{"abi":[{"type":"constructor","inputs":[],"stateMutability":"nonpayable"},{"type":"function","name":"agentConsensusParticipations","inputs":[{"name":"","type":"address","internalType":"address"}],"outputs":[{"name":"","type":"uint256","internalType":"uint256"}],"stateMutability":"view"},{"type":"function","name":"agentModelTypes","inputs":[{"name":"","type":"address","internalType":"address"}],"outputs":[{"name":"","type":"string","internalType":"string"}],"stateMutability":"view"},{"type":"function","name":"agentModelVersions","inputs":[{"name":"","type":"address","internalType":"address"}],"outputs":[{"name":"","type":"string","internalType":"string"}],"stateMutability":"view"},{"type":"function","name":"agentRewardsEarned","inputs":[{"name":"","type":"address","internalType":"address"}],"outputs":[{"name":"","type":"uint256","internalType":"uint256"}],"stateMutability":"view"},{"type":"function","name":"agentTasksCompleted","inputs":[{"name":"","type":"address","internalType":"address"}],"outputs":[{"name":"","type":"uint256","internalType":"uint256"}],"stateMutability":"view"},{"type":"function","name":"getAgentCount","inputs":[],"outputs":[{"name":"","type":"uint256","internalType":"uint256"}],"stateMutability":"view"},{"type":"function","name":"getAgentDetails","inputs":[{"name":"agent","type":"address","internalType":"address"}],"outputs":[{"name":"modelType","type":"string","internalType":"string"},{"name":"modelVersion","type":"string","internalType":"string"},{"name":"tasksCompleted","type":"uint256","internalType":"uint256"},{"name":"consensusParticipations","type":"uint256","internalType":"uint256"},{"name":"rewardsEarned","type":"uint256","internalType":"uint256"}],"stateMutability":"view"},{"type":"function","name":"getAllAgents","inputs":[],"outputs":[{"name":"","type":"address[]","internalType":"address[]"}],"stateMutability":"view"},{"type":"function","name":"isRegistered","inputs":[{"name":"","type":"address","internalType":"address"}],"outputs":[{"name":"","type":"bool","internalType":"bool"}],"stateMutability":"view"},{"type":"function","name":"owner","inputs":[],"outputs":[{"name":"","type":"address","internalType":"address"}],"stateMutability":"view"},{"type":"function","name":"registerAgent","inputs":[{"name":"agent","type":"address","internalType":"address"}],"outputs":[],"stateMutability":"nonpayable"},{"type":"function","name":"registeredAgents","inputs":[{"name":"","type":"uint256","internalType":"uint256"}],"outputs":[{"name":"","type":"address","internalType":"address"}],"stateMutability":"view"},{"type":"function","name":"renounceOwnership","inputs":[],"outputs":[],"stateMutability":"nonpayable"},{"type":"function","name":"transferOwnership","inputs":[{"name":"newOwner","type":"address","internalType":"address"}],"outputs":[],"stateMutability":"nonpayable"},{"type":"function","name":"unregisterAgent","inputs":[{"name":"agent","type":"address","internalType":"address"}],"outputs":[],"stateMutability":"nonpayable"},{"type":"function","name":"updateAgentStats","inputs":[{"name":"agent","type":"address","internalType":"address"}],"outputs":[],"stateMutability":"nonpayable"},{"type":"function","name":"updateAgentStatus","inputs":[{"name":"agent","type":"address","internalType":"address"},{"name":"status","type":"uint8","internalType":"enum AIAgent.AgentStatus"}],"outputs":[],"stateMutability":"nonpayable"},{"type":"event","name":"AgentRegistered","inputs":[{"name":"agentAddress","type":"address","indexed":true,"internalType":"address"},{"name":"modelType","type":"string","indexed":false,"internalType":"string"},{"name":"modelVersion","type":"string","indexed":false,"internalType":"string"}],"anonymous":false},{"type":"event","name":"AgentStatusUpdated","inputs":[{"name":"agentAddress","type":"address","indexed":true,"internalType":"address"},{"name":"status","type":"uint8","indexed":false,"internalType":"enum AIAgent.AgentStatus"}],"anonymous":false},{"type":"event","name":"AgentUnregistered","inputs":[{"name":"agentAddress","type":"address","indexed":true,"internalType":"address"}],"anonymous":false},{"type":"event","name":"OwnershipTransferred","inputs":[{"name":"previousOwner","type":"address","indexed":true,"internalType":"address"},{"name":"newOwner","type":"address","indexed":true,"internalType":"address"}],"anonymous":false},{"type":"error","name":"OwnableInvalidOwner","inputs":[{"name":"owner","type":"address","internalType":"address"}]},{"type":"error","name":"OwnableUnauthorizedAccount","inputs":[{"name":"account","type":"address","internalType":"address"}]}],"bytecode":{"object":"0x608080604052346071573315605e575f8054336001600160a01b0319821681178355916001600160a01b03909116907f8be0079c531659141344cd1fd0a4f28419497f9722a3daafe3b4186f6b6457e09080a361100090816100768239f35b631e4fbdf760e01b5f525f60045260245ffd5b5f80fdfe60806040526004361015610011575f80fd5b5f803560e01c8063306b9bb9146108525780633826b9bc146106ea578063492c1f65146106b25780635e6103191461067a578063715018a614610623578063860e4ac61461055b5780638da5cb5b146105345780638f35087f146104fc57806391cab63e146104df578063a7bd211c1461049d578063b8c05671146103df578063c06c5d58146103a7578063c3c5a5471461036a578063d010abca1461031a578063f1deda8d1461023c578063f2fde38b146101b75763fc08a7da146100d5575f80fd5b346101b35760403660031901126101b3576100ee610d9d565b6024359060038210156101b357610103610fda565b60018060a01b031690815f52600260205261012460ff60405f205416610f70565b813b156101b357604051632e49d78b60e01b81525f81806101488560048301610fb3565b038183875af180156101a857610191575b5061018b7f3e6af4de7e4ac852316386b4121ebdbc2a21fc4d711aaab2b539e510394117879160405191829182610fb3565b0390a280f35b61019e9193505f90610deb565b5f9161018b610159565b6040513d5f823e3d90fd5b5f80fd5b346101b35760203660031901126101b3576101d0610d9d565b6101d8610fda565b6001600160a01b03168015610229575f80546001600160a01b03198116831782556001600160a01b0316907f8be0079c531659141344cd1fd0a4f28419497f9722a3daafe3b4186f6b6457e09080a3005b631e4fbdf760e01b5f525f60045260245ffd5b346101b35760203660031901126101b3576001600160a01b0361025d610d9d565b16805f52600260205261027660ff60405f205416610f70565b604051633bd2f4f960e11b815290608082600481845afa9182156101a8575f80915f946102c9575b50825f52600560205260405f2055815f52600660205260405f20555f52600760205260405f20555f80f35b935050506080823d608011610312575b816102e660809383610deb565b810103126101b35781519160208101519260036060604084015193015110156101b3579290928461029e565b3d91506102d9565b346101b35760203660031901126101b3576001600160a01b0361033b610d9d565b165f52600360205261036661035260405f20610e0d565b604051918291602083526020830190610ead565b0390f35b346101b35760203660031901126101b3576001600160a01b0361038b610d9d565b165f526002602052602060ff60405f2054166040519015158152f35b346101b35760203660031901126101b3576001600160a01b036103c8610d9d565b165f526007602052602060405f2054604051908152f35b346101b35760203660031901126101b35761047b6001600160a01b03610403610d9d565b16805f52600260205261041c60ff60405f205416610f70565b5f908152600360209081526040808320600483528184206005845282852054600685528386205460079095529290942054919290610489906104679061046190610e0d565b95610e0d565b60405196879660a0885260a0880190610ead565b908682036020880152610ead565b926040850152606084015260808301520390f35b346101b35760203660031901126101b3576004356001548110156101b3576104c6602091610ed1565b905460405160039290921b1c6001600160a01b03168152f35b346101b3575f3660031901126101b3576020600154604051908152f35b346101b35760203660031901126101b3576001600160a01b0361051d610d9d565b165f526005602052602060405f2054604051908152f35b346101b3575f3660031901126101b3575f546040516001600160a01b039091168152602090f35b346101b3575f3660031901126101b3576040518060206001549283815201809260015f527fb10e2d527612073b26eecdfd717e6a320cf44b4afac2b0732d9fcbe2b7fa0cf6905f5b81811061060457505050816105b9910382610deb565b604051918291602083019060208452518091526040830191905f5b8181106105e2575050500390f35b82516001600160a01b03168452859450602093840193909201916001016105d4565b82546001600160a01b03168452602090930192600192830192016105a3565b346101b3575f3660031901126101b35761063b610fda565b5f80546001600160a01b0319811682556001600160a01b03167f8be0079c531659141344cd1fd0a4f28419497f9722a3daafe3b4186f6b6457e08280a3005b346101b35760203660031901126101b3576001600160a01b0361069b610d9d565b165f526006602052602060405f2054604051908152f35b346101b35760203660031901126101b3576001600160a01b036106d3610d9d565b165f52600460205261036661035260405f20610e0d565b346101b35760203660031901126101b357610703610d9d565b61070b610fda565b6001600160a01b03165f8181526002602052604090205461072e9060ff16610f70565b5f818152600260205260408120805460ff191690555b600154908181101561084b578261075a82610ed1565b905460039190911b1c6001600160a01b03161461077b576001915001610744565b5f198201918211610837576107ad6107956107d193610ed1565b905460039190911b1c6001600160a01b031691610ed1565b81546001600160a01b0393841660039290921b91821b9390911b1916919091179055565b6001548015610823575f19016107e681610ed1565b81549060018060a01b039060031b1b191690556001555b7f3e085cc53b86c19e2e6dba628297af6b8f76c89d1384dbcc599bab2adfd62d085f80a2005b634e487b7160e01b5f52603160045260245ffd5b634e487b7160e01b5f52601160045260245ffd5b50506107fd565b346101b35760203660031901126101b35761086b610d9d565b610873610fda565b6001600160a01b0381165f8181526002602052604090205490919060ff16610d58578115610d1b57604051633998fdd360e01b8152602081600481865afa9081156101a8575f91610cd9575b506001600160a01b031615610c94576001549068010000000000000000821015610b97576107ad8260016108f69401600155610ed1565b5f81815260026020526040808220805460ff1916600117905551636530a9cf60e11b8152919082600481845afa9182156101a8575f92610c78575b50805f52600360205260405f20825167ffffffffffffffff8111610b97576109598254610db3565b601f8111610c33575b506020601f8211600114610bd257819293945f92610bc7575b50508160011b915f199060031b1c19161790555b60405163edb3ba0b60e01b8152905f82600481845afa9182156101a8575f92610bab575b50805f52600460205260405f20825167ffffffffffffffff8111610b97576109db8254610db3565b601f8111610b52575b506020601f8211600114610af157819293945f92610ae6575b50508160011b915f199060031b1c19161790555b604051636530a9cf60e11b81525f81600481855afa9081156101a8575f91610acc575b5060405163edb3ba0b60e01b8152905f82600481865afa9081156101a857610aa5610a97927f37b3aaf4f807403887412a5994aa1832eface4a8c15501a3311bf21d3279ea3f945f91610aaa575b50604051938493604085526040850190610ead565b908382036020850152610ead565b0390a2005b610ac691503d805f833e610abe8183610deb565b810190610efd565b86610a82565b610ae091503d805f833e610abe8183610deb565b82610a34565b0151905084806109fd565b601f19821690835f52805f20915f5b818110610b3a57509583600195969710610b22575b505050811b019055610a11565b01515f1960f88460031b161c19169055848080610b15565b9192602060018192868b015181550194019201610b00565b825f5260205f20601f830160051c81019160208410610b8d575b601f0160051c01905b818110610b8257506109e4565b5f8155600101610b75565b9091508190610b6c565b634e487b7160e01b5f52604160045260245ffd5b610bc09192503d805f833e610abe8183610deb565b90826109b3565b01519050848061097b565b601f19821690835f52805f20915f5b818110610c1b57509583600195969710610c03575b505050811b01905561098f565b01515f1960f88460031b161c19169055848080610bf6565b9192602060018192868b015181550194019201610be1565b825f5260205f20601f830160051c81019160208410610c6e575b601f0160051c01905b818110610c635750610962565b5f8155600101610c56565b9091508190610c4d565b610c8d9192503d805f833e610abe8183610deb565b9082610931565b60405162461bcd60e51b815260206004820152601d60248201527f4167656e742073657276696365206d616e61676572206e6f74207365740000006044820152606490fd5b90506020813d602011610d13575b81610cf460209383610deb565b810103126101b357516001600160a01b03811681036101b357836108bf565b3d9150610ce7565b60405162461bcd60e51b8152602060048201526015602482015274496e76616c6964206167656e74206164647265737360581b6044820152606490fd5b60405162461bcd60e51b815260206004820152601860248201527f4167656e7420616c7265616479207265676973746572656400000000000000006044820152606490fd5b600435906001600160a01b03821682036101b357565b90600182811c92168015610de1575b6020831014610dcd57565b634e487b7160e01b5f52602260045260245ffd5b91607f1691610dc2565b90601f8019910116810190811067ffffffffffffffff821117610b9757604052565b9060405191825f825492610e2084610db3565b8084529360018116908115610e8b5750600114610e47575b50610e4592500383610deb565b565b90505f9291925260205f20905f915b818310610e6f575050906020610e45928201015f610e38565b6020919350806001915483858901015201910190918492610e56565b905060209250610e4594915060ff191682840152151560051b8201015f610e38565b805180835260209291819084018484015e5f828201840152601f01601f1916010190565b600154811015610ee95760015f5260205f2001905f90565b634e487b7160e01b5f52603260045260245ffd5b6020818303126101b35780519067ffffffffffffffff82116101b3570181601f820112156101b35780519067ffffffffffffffff8211610b975760405192610f4f601f8401601f191660200185610deb565b828452602083830101116101b357815f9260208093018386015e8301015290565b15610f7757565b60405162461bcd60e51b81526020600482015260146024820152731059d95b9d081b9bdd081c9959da5cdd195c995960621b6044820152606490fd5b919060208301926003821015610fc65752565b634e487b7160e01b5f52602160045260245ffd5b5f546001600160a01b03163303610fed57565b63118cdaa760e01b5f523360045260245ffd","linkReferences":{}},"methodIdentifiers":{"agentConsensusParticipations(address)":"5e610319","agentModelTypes(address)":"d010abca","agentModelVersions(address)":"492c1f65","agentRewardsEarned(address)":"c06c5d58","agentTasksCompleted(address)":"8f35087f","getAgentCount()":"91cab63e","getAgentDetails(address)":"b8c05671","getAllAgents()":"860e4ac6","isRegistered(address)":"c3c5a547","owner()":"8da5cb5b","registerAgent(address)":"306b9bb9","registeredAgents(uint256)":"a7bd211c","renounceOwnership()":"715018a6","transferOwnership(address)":"f2fde38b","unregisterAgent(address)":"3826b9bc","updateAgentStats(address)":"f1deda8d","updateAgentStatus(address,uint8)":"fc08a7da"},"id":108}