{"abi":[{"type":"constructor","inputs":[{"name":"_serviceManager","type":"address","internalType":"address"}],"stateMutability":"nonpayable"},{"type":"function","name":"agentConsensusParticipations","inputs":[{"name":"","type":"address","internalType":"address"}],"outputs":[{"name":"","type":"uint256","internalType":"uint256"}],"stateMutability":"view"},{"type":"function","name":"agentModelTypes","inputs":[{"name":"","type":"address","internalType":"address"}],"outputs":[{"name":"","type":"string","internalType":"string"}],"stateMutability":"view"},{"type":"function","name":"agentModelVersions","inputs":[{"name":"","type":"address","internalType":"address"}],"outputs":[{"name":"","type":"string","internalType":"string"}],"stateMutability":"view"},{"type":"function","name":"agentRewardsEarned","inputs":[{"name":"","type":"address","internalType":"address"}],"outputs":[{"name":"","type":"uint256","internalType":"uint256"}],"stateMutability":"view"},{"type":"function","name":"agentTasksCompleted","inputs":[{"name":"","type":"address","internalType":"address"}],"outputs":[{"name":"","type":"uint256","internalType":"uint256"}],"stateMutability":"view"},{"type":"function","name":"getAgentCount","inputs":[],"outputs":[{"name":"","type":"uint256","internalType":"uint256"}],"stateMutability":"view"},{"type":"function","name":"getAgentDetails","inputs":[{"name":"agent","type":"address","internalType":"address"}],"outputs":[{"name":"modelType","type":"string","internalType":"string"},{"name":"modelVersion","type":"string","internalType":"string"},{"name":"tasksCompleted","type":"uint256","internalType":"uint256"},{"name":"consensusParticipations","type":"uint256","internalType":"uint256"},{"name":"rewardsEarned","type":"uint256","internalType":"uint256"}],"stateMutability":"view"},{"type":"function","name":"getAllAgents","inputs":[],"outputs":[{"name":"","type":"address[]","internalType":"address[]"}],"stateMutability":"view"},{"type":"function","name":"isRegistered","inputs":[{"name":"","type":"address","internalType":"address"}],"outputs":[{"name":"","type":"bool","internalType":"bool"}],"stateMutability":"view"},{"type":"function","name":"owner","inputs":[],"outputs":[{"name":"","type":"address","internalType":"address"}],"stateMutability":"view"},{"type":"function","name":"registerAgent","inputs":[{"name":"agent","type":"address","internalType":"address"}],"outputs":[],"stateMutability":"nonpayable"},{"type":"function","name":"registeredAgents","inputs":[{"name":"","type":"uint256","internalType":"uint256"}],"outputs":[{"name":"","type":"address","internalType":"address"}],"stateMutability":"view"},{"type":"function","name":"renounceOwnership","inputs":[],"outputs":[],"stateMutability":"nonpayable"},{"type":"function","name":"serviceManager","inputs":[],"outputs":[{"name":"","type":"address","internalType":"contract IAIOracleServiceManager"}],"stateMutability":"view"},{"type":"function","name":"transferOwnership","inputs":[{"name":"newOwner","type":"address","internalType":"address"}],"outputs":[],"stateMutability":"nonpayable"},{"type":"function","name":"unregisterAgent","inputs":[{"name":"agent","type":"address","internalType":"address"}],"outputs":[],"stateMutability":"nonpayable"},{"type":"function","name":"updateAgentStats","inputs":[{"name":"agent","type":"address","internalType":"address"}],"outputs":[],"stateMutability":"nonpayable"},{"type":"function","name":"updateAgentStatus","inputs":[{"name":"agent","type":"address","internalType":"address"},{"name":"status","type":"uint8","internalType":"enum AIAgent.AgentStatus"}],"outputs":[],"stateMutability":"nonpayable"},{"type":"event","name":"AgentRegistered","inputs":[{"name":"agentAddress","type":"address","indexed":true,"internalType":"address"},{"name":"modelType","type":"string","indexed":false,"internalType":"string"},{"name":"modelVersion","type":"string","indexed":false,"internalType":"string"}],"anonymous":false},{"type":"event","name":"AgentStatusUpdated","inputs":[{"name":"agentAddress","type":"address","indexed":true,"internalType":"address"},{"name":"status","type":"uint8","indexed":false,"internalType":"enum AIAgent.AgentStatus"}],"anonymous":false},{"type":"event","name":"AgentUnregistered","inputs":[{"name":"agentAddress","type":"address","indexed":true,"internalType":"address"}],"anonymous":false},{"type":"event","name":"OwnershipTransferred","inputs":[{"name":"previousOwner","type":"address","indexed":true,"internalType":"address"},{"name":"newOwner","type":"address","indexed":true,"internalType":"address"}],"anonymous":false},{"type":"error","name":"OwnableInvalidOwner","inputs":[{"name":"owner","type":"address","internalType":"address"}]},{"type":"error","name":"OwnableUnauthorizedAccount","inputs":[{"name":"account","type":"address","internalType":"address"}]}],"bytecode":{"object":"0x608060405234801561000f575f5ffd5b5060405161137838038061137883398101604081905261002e916100d1565b338061005357604051631e4fbdf760e01b81525f600482015260240160405180910390fd5b61005c81610082565b50600180546001600160a01b0319166001600160a01b03929092169190911790556100fe565b5f80546001600160a01b038381166001600160a01b0319831681178455604051919092169283917f8be0079c531659141344cd1fd0a4f28419497f9722a3daafe3b4186f6b6457e09190a35050565b5f602082840312156100e1575f5ffd5b81516001600160a01b03811681146100f7575f5ffd5b9392505050565b61126d8061010b5f395ff3fe608060405234801561000f575f5ffd5b50600436106100e4575f3560e01c8063306b9bb9146100e85780633826b9bc146100fd5780633998fdd314610110578063492c1f65146101395780635e61031914610159578063715018a614610186578063860e4ac61461018e5780638da5cb5b146101a35780638f35087f146101ab57806391cab63e146101ca578063a7bd211c146101d2578063b8c05671146101e5578063c06c5d5814610209578063c3c5a54714610228578063d010abca1461025a578063f1deda8d1461026d578063f2fde38b14610280578063fc08a7da14610293575b5f5ffd5b6100fb6100f6366004610daf565b6102a6565b005b6100fb61010b366004610daf565b6106ab565b600154610123906001600160a01b031681565b6040516101309190610dd1565b60405180910390f35b61014c610147366004610daf565b610835565b6040516101309190610e13565b610178610167366004610daf565b60076020525f908152604090205481565b604051908152602001610130565b6100fb6108cc565b6101966108df565b6040516101309190610e25565b61012361093f565b6101786101b9366004610daf565b60066020525f908152604090205481565b600254610178565b6101236101e0366004610e70565b61094d565b6101f86101f3366004610daf565b610975565b604051610130959493929190610e87565b610178610217366004610daf565b60086020525f908152604090205481565b61024a610236366004610daf565b60036020525f908152604090205460ff1681565b6040519015158152602001610130565b61014c610268366004610daf565b610b1b565b6100fb61027b366004610daf565b610b33565b6100fb61028e366004610daf565b610c0c565b6100fb6102a1366004610ed5565b610c49565b6102ae610d1a565b6001600160a01b0381165f9081526003602052604090205460ff16156103165760405162461bcd60e51b81526020600482015260186024820152771059d95b9d08185b1c9958591e481c9959da5cdd195c995960421b60448201526064015b60405180910390fd5b6001600160a01b0381166103645760405162461bcd60e51b8152602060048201526015602482015274496e76616c6964206167656e74206164647265737360581b604482015260640161030d565b60015460408051633998fdd360e01b8152905183926001600160a01b039081169290841691633998fdd3916004808201926020929091908290030181865afa1580156103b2573d5f5f3e3d5ffd5b505050506040513d601f19601f820116820180604052508101906103d69190610f0c565b6001600160a01b0316146104385760405162461bcd60e51b815260206004820152602360248201527f4167656e742068617320696e636f72726563742073657276696365206d616e6160448201526233b2b960e91b606482015260840161030d565b6002805460018082019092557f405787fa12a823e0f2b7631cc41b3ba8828b3321ca811111fa75cd3aa3bb5ace0180546001600160a01b0319166001600160a01b038581169182179092555f90815260036020526040808220805460ff19169094179093558251636530a9cf60e11b815292519184169263ca61539e92600480830193928290030181865afa1580156104d3573d5f5f3e3d5ffd5b505050506040513d5f823e601f3d908101601f191682016040526104fa9190810190610f3b565b6001600160a01b0383165f9081526004602052604090209061051c908261106f565b50806001600160a01b031663edb3ba0b6040518163ffffffff1660e01b81526004015f60405180830381865afa158015610558573d5f5f3e3d5ffd5b505050506040513d5f823e601f3d908101601f1916820160405261057f9190810190610f3b565b6001600160a01b0383165f908152600560205260409020906105a1908261106f565b50816001600160a01b03167f37b3aaf4f807403887412a5994aa1832eface4a8c15501a3311bf21d3279ea3f826001600160a01b031663ca61539e6040518163ffffffff1660e01b81526004015f60405180830381865afa158015610608573d5f5f3e3d5ffd5b505050506040513d5f823e601f3d908101601f1916820160405261062f9190810190610f3b565b836001600160a01b031663edb3ba0b6040518163ffffffff1660e01b81526004015f60405180830381865afa15801561066a573d5f5f3e3d5ffd5b505050506040513d5f823e601f3d908101601f191682016040526106919190810190610f3b565b60405161069f929190611129565b60405180910390a25050565b6106b3610d1a565b6001600160a01b0381165f9081526003602052604090205460ff166106ea5760405162461bcd60e51b815260040161030d90611156565b6001600160a01b0381165f908152600360205260408120805460ff191690555b6002548110156107fe57816001600160a01b03166002828154811061073157610731611184565b5f918252602090912001546001600160a01b0316036107f6576002805461075a90600190611198565b8154811061076a5761076a611184565b5f91825260209091200154600280546001600160a01b03909216918390811061079557610795611184565b905f5260205f20015f6101000a8154816001600160a01b0302191690836001600160a01b0316021790555060028054806107d1576107d16111bd565b5f8281526020902081015f1990810180546001600160a01b03191690550190556107fe565b60010161070a565b506040516001600160a01b038216907f3e085cc53b86c19e2e6dba628297af6b8f76c89d1384dbcc599bab2adfd62d08905f90a250565b60056020525f90815260409020805461084d90610feb565b80601f016020809104026020016040519081016040528092919081815260200182805461087990610feb565b80156108c45780601f1061089b576101008083540402835291602001916108c4565b820191905f5260205f20905b8154815290600101906020018083116108a757829003601f168201915b505050505081565b6108d4610d1a565b6108dd5f610d4c565b565b6060600280548060200260200160405190810160405280929190818152602001828054801561093557602002820191905f5260205f20905b81546001600160a01b03168152600190910190602001808311610917575b5050505050905090565b5f546001600160a01b031690565b6002818154811061095c575f80fd5b5f918252602090912001546001600160a01b0316905081565b6001600160a01b0381165f9081526003602052604081205460609182918190819060ff166109b55760405162461bcd60e51b815260040161030d90611156565b6001600160a01b0386165f9081526004602090815260408083206005835281842060068452828520546007855283862054600890955292909420548154919493918590610a0190610feb565b80601f0160208091040260200160405190810160405280929190818152602001828054610a2d90610feb565b8015610a785780601f10610a4f57610100808354040283529160200191610a78565b820191905f5260205f20905b815481529060010190602001808311610a5b57829003601f168201915b50505050509450838054610a8b90610feb565b80601f0160208091040260200160405190810160405280929190818152602001828054610ab790610feb565b8015610b025780601f10610ad957610100808354040283529160200191610b02565b820191905f5260205f20905b815481529060010190602001808311610ae557829003601f168201915b50989f939e50959c50939a509198509650505050505050565b60046020525f90815260409020805461084d90610feb565b6001600160a01b0381165f9081526003602052604090205460ff16610b6a5760405162461bcd60e51b815260040161030d90611156565b5f8190505f5f5f836001600160a01b03166377a5e9f26040518163ffffffff1660e01b8152600401608060405180830381865afa158015610bad573d5f5f3e3d5ffd5b505050506040513d601f19601f82011682018060405250810190610bd191906111d1565b506001600160a01b039097165f9081526006602090815260408083209490945560078152838220929092556008909152209490945550505050565b610c14610d1a565b6001600160a01b038116610c3d575f604051631e4fbdf760e01b815260040161030d9190610dd1565b610c4681610d4c565b50565b610c51610d1a565b6001600160a01b0382165f9081526003602052604090205460ff16610c885760405162461bcd60e51b815260040161030d90611156565b604051632e49d78b60e01b81526001600160a01b03831690632e49d78b90610cb4908490600401611211565b5f604051808303815f87803b158015610ccb575f5ffd5b505af1158015610cdd573d5f5f3e3d5ffd5b50505050816001600160a01b03167f3e6af4de7e4ac852316386b4121ebdbc2a21fc4d711aaab2b539e510394117878260405161069f9190611211565b33610d2361093f565b6001600160a01b0316146108dd573360405163118cdaa760e01b815260040161030d9190610dd1565b5f80546001600160a01b038381166001600160a01b0319831681178455604051919092169283917f8be0079c531659141344cd1fd0a4f28419497f9722a3daafe3b4186f6b6457e09190a35050565b6001600160a01b0381168114610c46575f5ffd5b5f60208284031215610dbf575f5ffd5b8135610dca81610d9b565b9392505050565b6001600160a01b0391909116815260200190565b5f81518084528060208401602086015e5f602082860101526020601f19601f83011685010191505092915050565b602081525f610dca6020830184610de5565b602080825282518282018190525f918401906040840190835b81811015610e655783516001600160a01b0316835260209384019390920191600101610e3e565b509095945050505050565b5f60208284031215610e80575f5ffd5b5035919050565b60a081525f610e9960a0830188610de5565b8281036020840152610eab8188610de5565b60408401969096525050606081019290925260809091015292915050565b60038110610c46575f5ffd5b5f5f60408385031215610ee6575f5ffd5b8235610ef181610d9b565b91506020830135610f0181610ec9565b809150509250929050565b5f60208284031215610f1c575f5ffd5b8151610dca81610d9b565b634e487b7160e01b5f52604160045260245ffd5b5f60208284031215610f4b575f5ffd5b81516001600160401b03811115610f60575f5ffd5b8201601f81018413610f70575f5ffd5b80516001600160401b03811115610f8957610f89610f27565b604051601f8201601f19908116603f011681016001600160401b0381118282101715610fb757610fb7610f27565b604052818152828201602001861015610fce575f5ffd5b8160208401602083015e5f91810160200191909152949350505050565b600181811c90821680610fff57607f821691505b60208210810361101d57634e487b7160e01b5f52602260045260245ffd5b50919050565b601f82111561106a57805f5260205f20601f840160051c810160208510156110485750805b601f840160051c820191505b81811015611067575f8155600101611054565b50505b505050565b81516001600160401b0381111561108857611088610f27565b61109c816110968454610feb565b84611023565b6020601f8211600181146110ce575f83156110b75750848201515b5f19600385901b1c1916600184901b178455611067565b5f84815260208120601f198516915b828110156110fd57878501518255602094850194600190920191016110dd565b508482101561111a57868401515f19600387901b60f8161c191681555b50505050600190811b01905550565b604081525f61113b6040830185610de5565b828103602084015261114d8185610de5565b95945050505050565b6020808252601490820152731059d95b9d081b9bdd081c9959da5cdd195c995960621b604082015260600190565b634e487b7160e01b5f52603260045260245ffd5b818103818111156111b757634e487b7160e01b5f52601160045260245ffd5b92915050565b634e487b7160e01b5f52603160045260245ffd5b5f5f5f5f608085870312156111e4575f5ffd5b8451602086015160408701516060880151929650909450925061120681610ec9565b939692955090935050565b602081016003831061123157634e487b7160e01b5f52602160045260245ffd5b9190529056fea26469706673582212204342db8fe4ae49ff6a1e504a1abbe7ee2a568991190f6ca8c414ba03b59886fe64736f6c634300081b0033","linkReferences":{}},"methodIdentifiers":{"agentConsensusParticipations(address)":"5e610319","agentModelTypes(address)":"d010abca","agentModelVersions(address)":"492c1f65","agentRewardsEarned(address)":"c06c5d58","agentTasksCompleted(address)":"8f35087f","getAgentCount()":"91cab63e","getAgentDetails(address)":"b8c05671","getAllAgents()":"860e4ac6","isRegistered(address)":"c3c5a547","owner()":"8da5cb5b","registerAgent(address)":"306b9bb9","registeredAgents(uint256)":"a7bd211c","renounceOwnership()":"715018a6","serviceManager()":"3998fdd3","transferOwnership(address)":"f2fde38b","unregisterAgent(address)":"3826b9bc","updateAgentStats(address)":"f1deda8d","updateAgentStatus(address,uint8)":"fc08a7da"},"id":138}