{"abi":[{"type":"constructor","inputs":[{"name":"_serviceManager","type":"address","internalType":"address"}],"stateMutability":"nonpayable"},{"type":"function","name":"agentConsensusParticipations","inputs":[{"name":"","type":"address","internalType":"address"}],"outputs":[{"name":"","type":"uint256","internalType":"uint256"}],"stateMutability":"view"},{"type":"function","name":"agentModelTypes","inputs":[{"name":"","type":"address","internalType":"address"}],"outputs":[{"name":"","type":"string","internalType":"string"}],"stateMutability":"view"},{"type":"function","name":"agentModelVersions","inputs":[{"name":"","type":"address","internalType":"address"}],"outputs":[{"name":"","type":"string","internalType":"string"}],"stateMutability":"view"},{"type":"function","name":"agentRewardsEarned","inputs":[{"name":"","type":"address","internalType":"address"}],"outputs":[{"name":"","type":"uint256","internalType":"uint256"}],"stateMutability":"view"},{"type":"function","name":"agentTasksCompleted","inputs":[{"name":"","type":"address","internalType":"address"}],"outputs":[{"name":"","type":"uint256","internalType":"uint256"}],"stateMutability":"view"},{"type":"function","name":"getAgentCount","inputs":[],"outputs":[{"name":"","type":"uint256","internalType":"uint256"}],"stateMutability":"view"},{"type":"function","name":"getAgentDetails","inputs":[{"name":"agent","type":"address","internalType":"address"}],"outputs":[{"name":"modelType","type":"string","internalType":"string"},{"name":"modelVersion","type":"string","internalType":"string"},{"name":"tasksCompleted","type":"uint256","internalType":"uint256"},{"name":"consensusParticipations","type":"uint256","internalType":"uint256"},{"name":"rewardsEarned","type":"uint256","internalType":"uint256"}],"stateMutability":"view"},{"type":"function","name":"getAllAgents","inputs":[],"outputs":[{"name":"","type":"address[]","internalType":"address[]"}],"stateMutability":"view"},{"type":"function","name":"isRegistered","inputs":[{"name":"","type":"address","internalType":"address"}],"outputs":[{"name":"","type":"bool","internalType":"bool"}],"stateMutability":"view"},{"type":"function","name":"owner","inputs":[],"outputs":[{"name":"","type":"address","internalType":"address"}],"stateMutability":"view"},{"type":"function","name":"registerAgent","inputs":[{"name":"agent","type":"address","internalType":"address"}],"outputs":[],"stateMutability":"nonpayable"},{"type":"function","name":"registeredAgents","inputs":[{"name":"","type":"uint256","internalType":"uint256"}],"outputs":[{"name":"","type":"address","internalType":"address"}],"stateMutability":"view"},{"type":"function","name":"renounceOwnership","inputs":[],"outputs":[],"stateMutability":"nonpayable"},{"type":"function","name":"serviceManager","inputs":[],"outputs":[{"name":"","type":"address","internalType":"contract IAIOracleServiceManager"}],"stateMutability":"view"},{"type":"function","name":"transferOwnership","inputs":[{"name":"newOwner","type":"address","internalType":"address"}],"outputs":[],"stateMutability":"nonpayable"},{"type":"function","name":"unregisterAgent","inputs":[{"name":"agent","type":"address","internalType":"address"}],"outputs":[],"stateMutability":"nonpayable"},{"type":"function","name":"updateAgentStats","inputs":[{"name":"agent","type":"address","internalType":"address"}],"outputs":[],"stateMutability":"nonpayable"},{"type":"function","name":"updateAgentStatus","inputs":[{"name":"agent","type":"address","internalType":"address"},{"name":"status","type":"uint8","internalType":"enum AIAgent.AgentStatus"}],"outputs":[],"stateMutability":"nonpayable"},{"type":"event","name":"AgentRegistered","inputs":[{"name":"agentAddress","type":"address","indexed":true,"internalType":"address"},{"name":"modelType","type":"string","indexed":false,"internalType":"string"},{"name":"modelVersion","type":"string","indexed":false,"internalType":"string"}],"anonymous":false},{"type":"event","name":"AgentStatusUpdated","inputs":[{"name":"agentAddress","type":"address","indexed":true,"internalType":"address"},{"name":"status","type":"uint8","indexed":false,"internalType":"enum AIAgent.AgentStatus"}],"anonymous":false},{"type":"event","name":"AgentUnregistered","inputs":[{"name":"agentAddress","type":"address","indexed":true,"internalType":"address"}],"anonymous":false},{"type":"event","name":"OwnershipTransferred","inputs":[{"name":"previousOwner","type":"address","indexed":true,"internalType":"address"},{"name":"newOwner","type":"address","indexed":true,"internalType":"address"}],"anonymous":false},{"type":"error","name":"OwnableInvalidOwner","inputs":[{"name":"owner","type":"address","internalType":"address"}]},{"type":"error","name":"OwnableUnauthorizedAccount","inputs":[{"name":"account","type":"address","internalType":"address"}]}],"bytecode":{"object":"0x60803460cd57601f61116238819003918201601f19168301916001600160401b0383118484101760d15780849260209460405283398101031260cd57516001600160a01b0381169081900360cd57331560ba575f8054336001600160a01b0319821681178355604051939290916001600160a01b0316907f8be0079c531659141344cd1fd0a4f28419497f9722a3daafe3b4186f6b6457e09080a3600180546001600160a01b03191691909117905561107c90816100e68239f35b631e4fbdf760e01b5f525f60045260245ffd5b5f80fd5b634e487b7160e01b5f52604160045260245ffdfe60806040526004361015610011575f80fd5b5f803560e01c8063306b9bb9146108855780633826b9bc1461071d5780633998fdd3146106f5578063492c1f65146106bd5780635e61031914610685578063715018a61461062e578063860e4ac6146105665780638da5cb5b1461053f5780638f35087f1461050757806391cab63e146104ea578063a7bd211c146104a8578063b8c05671146103ea578063c06c5d58146103b2578063c3c5a54714610375578063d010abca14610325578063f1deda8d14610247578063f2fde38b146101c25763fc08a7da146100e0575f80fd5b346101be5760403660031901126101be576100f9610de3565b6024359060038210156101be5761010e611020565b60018060a01b031690815f52600360205261012f60ff60405f205416610fb6565b813b156101be57604051632e49d78b60e01b81525f81806101538560048301610ff9565b038183875af180156101b35761019c575b506101967f3e6af4de7e4ac852316386b4121ebdbc2a21fc4d711aaab2b539e510394117879160405191829182610ff9565b0390a280f35b6101a99193505f90610e31565b5f91610196610164565b6040513d5f823e3d90fd5b5f80fd5b346101be5760203660031901126101be576101db610de3565b6101e3611020565b6001600160a01b03168015610234575f80546001600160a01b03198116831782556001600160a01b0316907f8be0079c531659141344cd1fd0a4f28419497f9722a3daafe3b4186f6b6457e09080a3005b631e4fbdf760e01b5f525f60045260245ffd5b346101be5760203660031901126101be576001600160a01b03610268610de3565b16805f52600360205261028160ff60405f205416610fb6565b604051633bd2f4f960e11b815290608082600481845afa9182156101b3575f80915f946102d4575b50825f52600660205260405f2055815f52600760205260405f20555f52600860205260405f20555f80f35b935050506080823d60801161031d575b816102f160809383610e31565b810103126101be5781519160208101519260036060604084015193015110156101be57929092846102a9565b3d91506102e4565b346101be5760203660031901126101be576001600160a01b03610346610de3565b165f52600460205261037161035d60405f20610e53565b604051918291602083526020830190610ef3565b0390f35b346101be5760203660031901126101be576001600160a01b03610396610de3565b165f526003602052602060ff60405f2054166040519015158152f35b346101be5760203660031901126101be576001600160a01b036103d3610de3565b165f526008602052602060405f2054604051908152f35b346101be5760203660031901126101be576104866001600160a01b0361040e610de3565b16805f52600360205261042760ff60405f205416610fb6565b5f908152600460209081526040808320600583528184206006845282852054600785528386205460089095529290942054919290610494906104729061046c90610e53565b95610e53565b60405196879660a0885260a0880190610ef3565b908682036020880152610ef3565b926040850152606084015260808301520390f35b346101be5760203660031901126101be576004356002548110156101be576104d1602091610f17565b905460405160039290921b1c6001600160a01b03168152f35b346101be575f3660031901126101be576020600254604051908152f35b346101be5760203660031901126101be576001600160a01b03610528610de3565b165f526006602052602060405f2054604051908152f35b346101be575f3660031901126101be575f546040516001600160a01b039091168152602090f35b346101be575f3660031901126101be576040518060206002549283815201809260025f527f405787fa12a823e0f2b7631cc41b3ba8828b3321ca811111fa75cd3aa3bb5ace905f5b81811061060f57505050816105c4910382610e31565b604051918291602083019060208452518091526040830191905f5b8181106105ed575050500390f35b82516001600160a01b03168452859450602093840193909201916001016105df565b82546001600160a01b03168452602090930192600192830192016105ae565b346101be575f3660031901126101be57610646611020565b5f80546001600160a01b0319811682556001600160a01b03167f8be0079c531659141344cd1fd0a4f28419497f9722a3daafe3b4186f6b6457e08280a3005b346101be5760203660031901126101be576001600160a01b036106a6610de3565b165f526007602052602060405f2054604051908152f35b346101be5760203660031901126101be576001600160a01b036106de610de3565b165f52600560205261037161035d60405f20610e53565b346101be575f3660031901126101be576001546040516001600160a01b039091168152602090f35b346101be5760203660031901126101be57610736610de3565b61073e611020565b6001600160a01b03165f818152600360205260409020546107619060ff16610fb6565b5f818152600360205260408120805460ff191690555b600254908181101561087e578261078d82610f17565b905460039190911b1c6001600160a01b0316146107ae576001915001610777565b5f19820191821161086a576107e06107c861080493610f17565b905460039190911b1c6001600160a01b031691610f17565b81546001600160a01b0393841660039290921b91821b9390911b1916919091179055565b6002548015610856575f190161081981610f17565b81549060018060a01b039060031b1b191690556002555b7f3e085cc53b86c19e2e6dba628297af6b8f76c89d1384dbcc599bab2adfd62d085f80a2005b634e487b7160e01b5f52603160045260245ffd5b634e487b7160e01b5f52601160045260245ffd5b5050610830565b346101be5760203660031901126101be5761089e610de3565b6108a6611020565b6001600160a01b0381165f8181526003602052604090205490919060ff16610d9e578115610d6157604051633998fdd360e01b8152602081600481865afa9081156101b3575f91610d1f575b506001546001600160a01b03908116911603610cce576002549068010000000000000000821015610bd1576107e08260016109309401600255610f17565b5f81815260036020526040808220805460ff1916600117905551636530a9cf60e11b8152919082600481845afa9182156101b3575f92610cb2575b50805f52600460205260405f20825167ffffffffffffffff8111610bd1576109938254610df9565b601f8111610c6d575b506020601f8211600114610c0c57819293945f92610c01575b50508160011b915f199060031b1c19161790555b60405163edb3ba0b60e01b8152905f82600481845afa9182156101b3575f92610be5575b50805f52600560205260405f20825167ffffffffffffffff8111610bd157610a158254610df9565b601f8111610b8c575b506020601f8211600114610b2b57819293945f92610b20575b50508160011b915f199060031b1c19161790555b604051636530a9cf60e11b81525f81600481855afa9081156101b3575f91610b06575b5060405163edb3ba0b60e01b8152905f82600481865afa9081156101b357610adf610ad1927f37b3aaf4f807403887412a5994aa1832eface4a8c15501a3311bf21d3279ea3f945f91610ae4575b50604051938493604085526040850190610ef3565b908382036020850152610ef3565b0390a2005b610b0091503d805f833e610af88183610e31565b810190610f43565b86610abc565b610b1a91503d805f833e610af88183610e31565b82610a6e565b015190508480610a37565b601f19821690835f52805f20915f5b818110610b7457509583600195969710610b5c575b505050811b019055610a4b565b01515f1960f88460031b161c19169055848080610b4f565b9192602060018192868b015181550194019201610b3a565b825f5260205f20601f830160051c81019160208410610bc7575b601f0160051c01905b818110610bbc5750610a1e565b5f8155600101610baf565b9091508190610ba6565b634e487b7160e01b5f52604160045260245ffd5b610bfa9192503d805f833e610af88183610e31565b90826109ed565b0151905084806109b5565b601f19821690835f52805f20915f5b818110610c5557509583600195969710610c3d575b505050811b0190556109c9565b01515f1960f88460031b161c19169055848080610c30565b9192602060018192868b015181550194019201610c1b565b825f5260205f20601f830160051c81019160208410610ca8575b601f0160051c01905b818110610c9d575061099c565b5f8155600101610c90565b9091508190610c87565b610cc79192503d805f833e610af88183610e31565b908261096b565b60405162461bcd60e51b815260206004820152602360248201527f4167656e742068617320696e636f72726563742073657276696365206d616e6160448201526233b2b960e91b6064820152608490fd5b90506020813d602011610d59575b81610d3a60209383610e31565b810103126101be57516001600160a01b03811681036101be57836108f2565b3d9150610d2d565b60405162461bcd60e51b8152602060048201526015602482015274496e76616c6964206167656e74206164647265737360581b6044820152606490fd5b60405162461bcd60e51b815260206004820152601860248201527f4167656e7420616c7265616479207265676973746572656400000000000000006044820152606490fd5b600435906001600160a01b03821682036101be57565b90600182811c92168015610e27575b6020831014610e1357565b634e487b7160e01b5f52602260045260245ffd5b91607f1691610e08565b90601f8019910116810190811067ffffffffffffffff821117610bd157604052565b9060405191825f825492610e6684610df9565b8084529360018116908115610ed15750600114610e8d575b50610e8b92500383610e31565b565b90505f9291925260205f20905f915b818310610eb5575050906020610e8b928201015f610e7e565b6020919350806001915483858901015201910190918492610e9c565b905060209250610e8b94915060ff191682840152151560051b8201015f610e7e565b805180835260209291819084018484015e5f828201840152601f01601f1916010190565b600254811015610f2f5760025f5260205f2001905f90565b634e487b7160e01b5f52603260045260245ffd5b6020818303126101be5780519067ffffffffffffffff82116101be570181601f820112156101be5780519067ffffffffffffffff8211610bd15760405192610f95601f8401601f191660200185610e31565b828452602083830101116101be57815f9260208093018386015e8301015290565b15610fbd57565b60405162461bcd60e51b81526020600482015260146024820152731059d95b9d081b9bdd081c9959da5cdd195c995960621b6044820152606490fd5b91906020830192600382101561100c5752565b634e487b7160e01b5f52602160045260245ffd5b5f546001600160a01b0316330361103357565b63118cdaa760e01b5f523360045260245ffdfea2646970667358221220b9f9d24b3f7ff014d7ed94845d2efbe82c1bc93f36df2f174d14480a8b4d80fb64736f6c634300081a0033","linkReferences":{}},"methodIdentifiers":{"agentConsensusParticipations(address)":"5e610319","agentModelTypes(address)":"d010abca","agentModelVersions(address)":"492c1f65","agentRewardsEarned(address)":"c06c5d58","agentTasksCompleted(address)":"8f35087f","getAgentCount()":"91cab63e","getAgentDetails(address)":"b8c05671","getAllAgents()":"860e4ac6","isRegistered(address)":"c3c5a547","owner()":"8da5cb5b","registerAgent(address)":"306b9bb9","registeredAgents(uint256)":"a7bd211c","renounceOwnership()":"715018a6","serviceManager()":"3998fdd3","transferOwnership(address)":"f2fde38b","unregisterAgent(address)":"3826b9bc","updateAgentStats(address)":"f1deda8d","updateAgentStatus(address,uint8)":"fc08a7da"},"id":128}