{"abi":[{"type":"constructor","inputs":[{"name":"_serviceManager","type":"address","internalType":"address"},{"name":"_modelType","type":"string","internalType":"string"},{"name":"_modelVersion","type":"string","internalType":"string"}],"stateMutability":"nonpayable"},{"type":"function","name":"consensusParticipations","inputs":[],"outputs":[{"name":"","type":"uint256","internalType":"uint256"}],"stateMutability":"view"},{"type":"function","name":"getAgentStats","inputs":[],"outputs":[{"name":"_tasksCompleted","type":"uint256","internalType":"uint256"},{"name":"_consensusParticipations","type":"uint256","internalType":"uint256"},{"name":"_totalRewards","type":"uint256","internalType":"uint256"},{"name":"_currentStatus","type":"uint8","internalType":"enum AIAgent.AgentStatus"}],"stateMutability":"view"},{"type":"function","name":"modelType","inputs":[],"outputs":[{"name":"","type":"string","internalType":"string"}],"stateMutability":"view"},{"type":"function","name":"modelVersion","inputs":[],"outputs":[{"name":"","type":"string","internalType":"string"}],"stateMutability":"view"},{"type":"function","name":"owner","inputs":[],"outputs":[{"name":"","type":"address","internalType":"address"}],"stateMutability":"view"},{"type":"function","name":"processTask","inputs":[{"name":"taskIndex","type":"uint32","internalType":"uint32"},{"name":"signature","type":"bytes","internalType":"bytes"}],"outputs":[],"stateMutability":"nonpayable"},{"type":"function","name":"recordReward","inputs":[{"name":"amount","type":"uint256","internalType":"uint256"},{"name":"taskIndex","type":"uint32","internalType":"uint32"}],"outputs":[],"stateMutability":"nonpayable"},{"type":"function","name":"renounceOwnership","inputs":[],"outputs":[],"stateMutability":"nonpayable"},{"type":"function","name":"serviceManager","inputs":[],"outputs":[{"name":"","type":"address","internalType":"contract IAIOracleServiceManager"}],"stateMutability":"view"},{"type":"function","name":"setStatus","inputs":[{"name":"_status","type":"uint8","internalType":"enum AIAgent.AgentStatus"}],"outputs":[],"stateMutability":"nonpayable"},{"type":"function","name":"status","inputs":[],"outputs":[{"name":"","type":"uint8","internalType":"enum AIAgent.AgentStatus"}],"stateMutability":"view"},{"type":"function","name":"tasksCompleted","inputs":[],"outputs":[{"name":"","type":"uint256","internalType":"uint256"}],"stateMutability":"view"},{"type":"function","name":"totalRewardsEarned","inputs":[],"outputs":[{"name":"","type":"uint256","internalType":"uint256"}],"stateMutability":"view"},{"type":"function","name":"transferOwnership","inputs":[{"name":"newOwner","type":"address","internalType":"address"}],"outputs":[],"stateMutability":"nonpayable"},{"type":"function","name":"updateModelInfo","inputs":[{"name":"_modelType","type":"string","internalType":"string"},{"name":"_modelVersion","type":"string","internalType":"string"}],"outputs":[],"stateMutability":"nonpayable"},{"type":"event","name":"OwnershipTransferred","inputs":[{"name":"previousOwner","type":"address","indexed":true,"internalType":"address"},{"name":"newOwner","type":"address","indexed":true,"internalType":"address"}],"anonymous":false},{"type":"event","name":"RewardReceived","inputs":[{"name":"amount","type":"uint256","indexed":false,"internalType":"uint256"},{"name":"taskIndex","type":"uint32","indexed":false,"internalType":"uint32"}],"anonymous":false},{"type":"event","name":"StatusChanged","inputs":[{"name":"oldStatus","type":"uint8","indexed":false,"internalType":"enum AIAgent.AgentStatus"},{"name":"newStatus","type":"uint8","indexed":false,"internalType":"enum AIAgent.AgentStatus"}],"anonymous":false},{"type":"event","name":"TaskProcessed","inputs":[{"name":"taskIndex","type":"uint32","indexed":true,"internalType":"uint32"},{"name":"signature","type":"bytes","indexed":false,"internalType":"bytes"}],"anonymous":false},{"type":"error","name":"OwnableInvalidOwner","inputs":[{"name":"owner","type":"address","internalType":"address"}]},{"type":"error","name":"OwnableUnauthorizedAccount","inputs":[{"name":"account","type":"address","internalType":"address"}]}],"bytecode":{"object":"0x6080604052346103a75761101280380380610019816103ab565b9283398101906060818303126103a75780516001600160a01b03811691908290036103a75760208101516001600160401b0381116103a7578361005d9183016103d0565b60408201519093906001600160401b0381116103a75761007d92016103d0565b903315610394575f8054336001600160a01b0319821681178355916001600160a01b03909116907f8be0079c531659141344cd1fd0a4f28419497f9722a3daafe3b4186f6b6457e09080a3600180546001600160a01b03191691909117905581516001600160401b0381116102a757600254600181811c9116801561038a575b602082101461028957601f8111610327575b50602092601f82116001146102c657928192935f926102bb575b50508160011b915f199060031b1c1916176002555b80516001600160401b0381116102a757600354600181811c9116801561029d575b602082101461028957601f8111610226575b50602091601f82116001146101c6579181925f926101bb575b50508160011b915f199060031b1c1916176003555b600160ff196004541617600455604051610bf090816104228239f35b015190505f8061018a565b601f1982169260035f52805f20915f5b85811061020e575083600195106101f6575b505050811b0160035561019f565b01515f1960f88460031b161c191690555f80806101e8565b919260206001819286850151815501940192016101d6565b60035f527fc2575a0e9e593c00f959f8c92f12db2869c3395a3b0502d05e2516446f71f85b601f830160051c8101916020841061027f575b601f0160051c01905b8181106102745750610171565b5f8155600101610267565b909150819061025e565b634e487b7160e01b5f52602260045260245ffd5b90607f169061015f565b634e487b7160e01b5f52604160045260245ffd5b015190505f80610129565b601f1982169360025f52805f20915f5b86811061030f57508360019596106102f7575b505050811b0160025561013e565b01515f1960f88460031b161c191690555f80806102e9565b919260206001819286850151815501940192016102d6565b60025f527f405787fa12a823e0f2b7631cc41b3ba8828b3321ca811111fa75cd3aa3bb5ace601f830160051c81019160208410610380575b601f0160051c01905b818110610375575061010f565b5f8155600101610368565b909150819061035f565b90607f16906100fd565b631e4fbdf760e01b5f525f60045260245ffd5b5f80fd5b6040519190601f01601f191682016001600160401b038111838210176102a757604052565b81601f820112156103a7578051906001600160401b0382116102a7576103ff601f8301601f19166020016103ab565b92828452602083830101116103a757815f9260208093018386015e830101529056fe60806040526004361015610011575f80fd5b5f803560e01c80631b7ff65e1461080a5780631c8db4f6146107ec578063200d2ed2146107c65780632e49d78b1461074d57806337e0b4911461072f5780633998fdd314610706578063404040031461066e578063630366ca14610398578063715018a61461033e57806377a5e9f2146102fc5780638da5cb5b146102d5578063ca61539e14610241578063edb3ba0b1461016d578063f15576a61461014f5763f2fde38b146100bf575f80fd5b3461014c57602036600319011261014c576004356001600160a01b03811690819003610148576100ed610b54565b80156101345781546001600160a01b03198116821783556001600160a01b03167f8be0079c531659141344cd1fd0a4f28419497f9722a3daafe3b4186f6b6457e08380a380f35b631e4fbdf760e01b82526004829052602482fd5b5080fd5b80fd5b503461014c578060031936011261014c576020600754604051908152f35b503461014c578060031936011261014c5760405190806003549061019082610ad6565b808552916001811690811561021a57506001146101d0575b6101cc846101b881860382610a2f565b604051918291602083526020830190610b0e565b0390f35b600381525f80516020610b9b833981519152939250905b808210610200575090915081016020016101b8826101a8565b9192600181602092548385880101520191019092916101e7565b60ff191660208087019190915292151560051b850190920192506101b891508390506101a8565b503461014c578060031936011261014c5760405190806002549061026482610ad6565b808552916001811690811561021a575060011461028b576101cc846101b881860382610a2f565b600281525f80516020610b7b833981519152939250905b8082106102bb575090915081016020016101b8826101a8565b9192600181602092548385880101520191019092916102a2565b503461014c578060031936011261014c57546040516001600160a01b039091168152602090f35b503461014c578060031936011261014c57608060055461033c60065460075460ff6004541691604051948552602085015260408401526060830190610aab565bf35b503461014c578060031936011261014c57610357610b54565b80546001600160a01b03198116825581906001600160a01b03167f8be0079c531659141344cd1fd0a4f28419497f9722a3daafe3b4186f6b6457e08280a380f35b503461014c57604036600319011261014c5760043567ffffffffffffffff8111610148576103ca903690600401610ab8565b9060243567ffffffffffffffff8111610148576103eb903690600401610ab8565b906103f4610b54565b825167ffffffffffffffff811161057a57610410600254610ad6565b601f8111610606575b506020601f82116001146105995782939482939261058e575b50508160011b915f199060031b1c1916176002555b815167ffffffffffffffff811161057a57610463600354610ad6565b601f8111610512575b50602092601f82116001146104a85792829382939261049d575b50508160011b915f199060031b1c19161760035580f35b015190505f80610486565b60038352601f198216935f80516020610b9b83398151915291845b8681106104fa57508360019596106104e2575b505050811b0160035580f35b01515f1960f88460031b161c191690555f80806104d6565b919260206001819286850151815501940192016104c3565b60038352601f820160051c5f80516020610b9b833981519152019060208310610565575b601f0160051c5f80516020610b9b83398151915201905b81811061055a575061046c565b83815560010161054d565b5f80516020610b9b8339815191529150610536565b634e487b7160e01b82526041600452602482fd5b015190505f80610432565b600283525f80516020610b7b83398151915290601f198316845b8181106105ee575095836001959697106105d6575b505050811b01600255610447565b01515f1960f88460031b161c191690555f80806105c8565b9192602060018192868b0151815501940192016105b3565b60028352601f820160051c5f80516020610b7b833981519152019060208310610659575b601f0160051c5f80516020610b7b83398151915201905b81811061064e5750610419565b838155600101610641565b5f80516020610b7b833981519152915061062a565b503461014c57604036600319011261014c5760043560243563ffffffff81168091036107025761069c610b54565b6007548281018091116106ee57916040917f0497a9c240d19e6f1f55d6ec27d1b28c9360b63c1eb565737cc147e6809dc134936007556106dd600654610b32565b60065582519182526020820152a180f35b634e487b7160e01b84526011600452602484fd5b8280fd5b503461014c578060031936011261014c576001546040516001600160a01b039091168152602090f35b503461014c578060031936011261014c576020600554604051908152f35b503461014c57602036600319011261014c57600435600381101561014857604060ff6107c27fe1377aa21d49fa10bb9ece6a0cd4f75597a90a80c3750f7f7674967f49ab9a629361079c610b54565b6107b86004548483168519821617600455855194859116610aab565b6020830190610aab565ba180f35b503461014c578060031936011261014c57602060ff6004541661033c6040518092610aab565b503461014c578060031936011261014c576020600654604051908152f35b503461096f57604036600319011261096f5760043563ffffffff811680910361096f5760243567ffffffffffffffff811161096f573660238201121561096f5761085e903690602481600401359101610a65565b610866610b54565b60ff600454166003811015610a1b576001036109e057600154604051630b627dbf60e21b8152600481018490526001600160a01b0390911690602081602481855afa908115610964575f916109ae575b501561097357803b1561096f575f6040518092637776b82b60e11b8252856004830152604060248301528183816108f06044820189610b0e565b03925af180156109645761094d575b506109477f2c7f6f06865a6be52fa1d7a6850ea28b706d58257a26d46fffe0b799151fff9891610930600554610b32565b600555604051918291602083526020830190610b0e565b0390a280f35b61095a9193505f90610a2f565b5f916109476108ff565b6040513d5f823e3d90fd5b5f80fd5b60405162461bcd60e51b815260206004820152601360248201527215185cdac8191bd95cc81b9bdd08195e1a5cdd606a1b6044820152606490fd5b90506020813d6020116109d8575b816109c960209383610a2f565b8101031261096f57515f6108b6565b3d91506109bc565b60405162461bcd60e51b81526020600482015260136024820152724167656e74206973206e6f742061637469766560681b6044820152606490fd5b634e487b7160e01b5f52602160045260245ffd5b90601f8019910116810190811067ffffffffffffffff821117610a5157604052565b634e487b7160e01b5f52604160045260245ffd5b92919267ffffffffffffffff8211610a515760405191610a8f601f8201601f191660200184610a2f565b82948184528183011161096f578281602093845f960137010152565b906003821015610a1b5752565b9080601f8301121561096f57816020610ad393359101610a65565b90565b90600182811c92168015610b04575b6020831014610af057565b634e487b7160e01b5f52602260045260245ffd5b91607f1691610ae5565b805180835260209291819084018484015e5f828201840152601f01601f1916010190565b5f198114610b405760010190565b634e487b7160e01b5f52601160045260245ffd5b5f546001600160a01b03163303610b6757565b63118cdaa760e01b5f523360045260245ffdfe405787fa12a823e0f2b7631cc41b3ba8828b3321ca811111fa75cd3aa3bb5acec2575a0e9e593c00f959f8c92f12db2869c3395a3b0502d05e2516446f71f85ba2646970667358221220a7227d181add70f848f1495275d01f1a989ca0eb15847bca0c5856c1facb5cc364736f6c634300081a0033","linkReferences":{}},"methodIdentifiers":{"consensusParticipations()":"1c8db4f6","getAgentStats()":"77a5e9f2","modelType()":"ca61539e","modelVersion()":"edb3ba0b","owner()":"8da5cb5b","processTask(uint32,bytes)":"1b7ff65e","recordReward(uint256,uint32)":"40404003","renounceOwnership()":"715018a6","serviceManager()":"3998fdd3","setStatus(uint8)":"2e49d78b","status()":"200d2ed2","tasksCompleted()":"37e0b491","totalRewardsEarned()":"f15576a6","transferOwnership(address)":"f2fde38b","updateModelInfo(string,string)":"630366ca"},"id":71}