{"abi":[{"type":"constructor","inputs":[{"name":"_serviceManager","type":"address","internalType":"address"},{"name":"_modelType","type":"string","internalType":"string"},{"name":"_modelVersion","type":"string","internalType":"string"}],"stateMutability":"nonpayable"},{"type":"function","name":"consensusParticipations","inputs":[],"outputs":[{"name":"","type":"uint256","internalType":"uint256"}],"stateMutability":"view"},{"type":"function","name":"getAgentStats","inputs":[],"outputs":[{"name":"_tasksCompleted","type":"uint256","internalType":"uint256"},{"name":"_consensusParticipations","type":"uint256","internalType":"uint256"},{"name":"_totalRewards","type":"uint256","internalType":"uint256"},{"name":"_currentStatus","type":"uint8","internalType":"enum AIAgent.AgentStatus"}],"stateMutability":"view"},{"type":"function","name":"modelType","inputs":[],"outputs":[{"name":"","type":"string","internalType":"string"}],"stateMutability":"view"},{"type":"function","name":"modelVersion","inputs":[],"outputs":[{"name":"","type":"string","internalType":"string"}],"stateMutability":"view"},{"type":"function","name":"owner","inputs":[],"outputs":[{"name":"","type":"address","internalType":"address"}],"stateMutability":"view"},{"type":"function","name":"processTask","inputs":[{"name":"task","type":"tuple","internalType":"struct IAIOracleServiceManager.Task","components":[{"name":"name","type":"string","internalType":"string"},{"name":"taskCreatedBlock","type":"uint32","internalType":"uint32"}]},{"name":"taskIndex","type":"uint32","internalType":"uint32"},{"name":"signature","type":"bytes","internalType":"bytes"}],"outputs":[],"stateMutability":"nonpayable"},{"type":"function","name":"recordReward","inputs":[{"name":"amount","type":"uint256","internalType":"uint256"},{"name":"taskIndex","type":"uint32","internalType":"uint32"}],"outputs":[],"stateMutability":"nonpayable"},{"type":"function","name":"renounceOwnership","inputs":[],"outputs":[],"stateMutability":"nonpayable"},{"type":"function","name":"serviceManager","inputs":[],"outputs":[{"name":"","type":"address","internalType":"contract IAIOracleServiceManager"}],"stateMutability":"view"},{"type":"function","name":"setStatus","inputs":[{"name":"_status","type":"uint8","internalType":"enum AIAgent.AgentStatus"}],"outputs":[],"stateMutability":"nonpayable"},{"type":"function","name":"status","inputs":[],"outputs":[{"name":"","type":"uint8","internalType":"enum AIAgent.AgentStatus"}],"stateMutability":"view"},{"type":"function","name":"tasksCompleted","inputs":[],"outputs":[{"name":"","type":"uint256","internalType":"uint256"}],"stateMutability":"view"},{"type":"function","name":"totalRewardsEarned","inputs":[],"outputs":[{"name":"","type":"uint256","internalType":"uint256"}],"stateMutability":"view"},{"type":"function","name":"transferOwnership","inputs":[{"name":"newOwner","type":"address","internalType":"address"}],"outputs":[],"stateMutability":"nonpayable"},{"type":"function","name":"updateModelInfo","inputs":[{"name":"_modelType","type":"string","internalType":"string"},{"name":"_modelVersion","type":"string","internalType":"string"}],"outputs":[],"stateMutability":"nonpayable"},{"type":"event","name":"OwnershipTransferred","inputs":[{"name":"previousOwner","type":"address","indexed":true,"internalType":"address"},{"name":"newOwner","type":"address","indexed":true,"internalType":"address"}],"anonymous":false},{"type":"event","name":"RewardReceived","inputs":[{"name":"amount","type":"uint256","indexed":false,"internalType":"uint256"},{"name":"taskIndex","type":"uint32","indexed":false,"internalType":"uint32"}],"anonymous":false},{"type":"event","name":"StatusChanged","inputs":[{"name":"oldStatus","type":"uint8","indexed":false,"internalType":"enum AIAgent.AgentStatus"},{"name":"newStatus","type":"uint8","indexed":false,"internalType":"enum AIAgent.AgentStatus"}],"anonymous":false},{"type":"event","name":"TaskProcessed","inputs":[{"name":"taskIndex","type":"uint32","indexed":true,"internalType":"uint32"},{"name":"signature","type":"bytes","indexed":false,"internalType":"bytes"}],"anonymous":false},{"type":"error","name":"OwnableInvalidOwner","inputs":[{"name":"owner","type":"address","internalType":"address"}]},{"type":"error","name":"OwnableUnauthorizedAccount","inputs":[{"name":"account","type":"address","internalType":"address"}]}],"bytecode":{"object":"0x608060405234801561000f575f5ffd5b50604051610ee1380380610ee183398101604081905261002e91610194565b338061005357604051631e4fbdf760e01b81525f600482015260240160405180910390fd5b61005c816100a8565b50600180546001600160a01b0319166001600160a01b0385161790556002610084838261029a565b506003610091828261029a565b50506004805460ff19166001179055506103549050565b5f80546001600160a01b038381166001600160a01b0319831681178455604051919092169283917f8be0079c531659141344cd1fd0a4f28419497f9722a3daafe3b4186f6b6457e09190a35050565b634e487b7160e01b5f52604160045260245ffd5b5f82601f83011261011a575f5ffd5b81516001600160401b03811115610133576101336100f7565b604051601f8201601f19908116603f011681016001600160401b0381118282101715610161576101616100f7565b604052818152838201602001851015610178575f5ffd5b8160208501602083015e5f918101602001919091529392505050565b5f5f5f606084860312156101a6575f5ffd5b83516001600160a01b03811681146101bc575f5ffd5b60208501519093506001600160401b038111156101d7575f5ffd5b6101e38682870161010b565b604086015190935090506001600160401b03811115610200575f5ffd5b61020c8682870161010b565b9150509250925092565b600181811c9082168061022a57607f821691505b60208210810361024857634e487b7160e01b5f52602260045260245ffd5b50919050565b601f82111561029557805f5260205f20601f840160051c810160208510156102735750805b601f840160051c820191505b81811015610292575f815560010161027f565b50505b505050565b81516001600160401b038111156102b3576102b36100f7565b6102c7816102c18454610216565b8461024e565b6020601f8211600181146102f9575f83156102e25750848201515b5f19600385901b1c1916600184901b178455610292565b5f84815260208120601f198516915b828110156103285787850151825560209485019460019092019101610308565b508482101561034557868401515f19600387901b60f8161c191681555b50505050600190811b01905550565b610b80806103615f395ff3fe608060405234801561000f575f5ffd5b50600436106100f0575f3560e01c8063715018a611610093578063ca61539e11610063578063ca61539e146101e3578063edb3ba0b146101f8578063f15576a614610200578063f2fde38b14610209575f5ffd5b8063715018a61461019957806377a5e9f2146101a15780638da5cb5b146101c0578063aa7a2a59146101d0575f5ffd5b806337e0b491116100ce57806337e0b4911461013f5780633998fdd3146101485780634040400314610173578063630366ca14610186575f5ffd5b80631c8db4f6146100f4578063200d2ed2146101105780632e49d78b1461012a575b5f5ffd5b6100fd60065481565b6040519081526020015b60405180910390f35b60045461011d9060ff1681565b604051610107919061065d565b61013d610138366004610671565b61021c565b005b6100fd60055481565b60015461015b906001600160a01b031681565b6040516001600160a01b039091168152602001610107565b61013d6101813660046106ae565b610289565b61013d610194366004610781565b6102f6565b61013d61031c565b60055460065460075460045460ff1660405161010794939291906107e6565b5f546001600160a01b031661015b565b61013d6101de366004610811565b61032f565b6101eb61048e565b60405161010791906108ca565b6101eb61051a565b6100fd60075481565b61013d6102173660046108dc565b610527565b61022461057d565b6004805460ff811691839160ff1916600183600281111561024757610247610629565b02179055507fe1377aa21d49fa10bb9ece6a0cd4f75597a90a80c3750f7f7674967f49ab9a62818360405161027d929190610902565b60405180910390a15050565b61029161057d565b8160075f8282546102a29190610931565b909155505060068054905f6102b683610944565b90915550506040805183815263ffffffff831660208201527f0497a9c240d19e6f1f55d6ec27d1b28c9360b63c1eb565737cc147e6809dc134910161027d565b6102fe61057d565b600261030a83826109df565b50600361031782826109df565b505050565b61032461057d565b61032d5f6105c2565b565b61033761057d565b600160045460ff16600281111561035057610350610629565b146103bc576040517f08c379a000000000000000000000000000000000000000000000000000000000815260206004820152601360248201527f4167656e74206973206e6f74206163746976650000000000000000000000000060448201526064015b60405180910390fd5b6001546040517f3415a49c0000000000000000000000000000000000000000000000000000000081526001600160a01b0390911690633415a49c9061040990869086908690600401610a9a565b5f604051808303815f87803b158015610420575f5ffd5b505af1158015610432573d5f5f3e3d5ffd5b505060058054925090505f61044683610944565b91905055508163ffffffff167f2c7f6f06865a6be52fa1d7a6850ea28b706d58257a26d46fffe0b799151fff988260405161048191906108ca565b60405180910390a2505050565b6002805461049b9061095c565b80601f01602080910402602001604051908101604052809291908181526020018280546104c79061095c565b80156105125780601f106104e957610100808354040283529160200191610512565b820191905f5260205f20905b8154815290600101906020018083116104f557829003601f168201915b505050505081565b6003805461049b9061095c565b61052f61057d565b6001600160a01b038116610571576040517f1e4fbdf70000000000000000000000000000000000000000000000000000000081525f60048201526024016103b3565b61057a816105c2565b50565b5f546001600160a01b0316331461032d576040517f118cdaa70000000000000000000000000000000000000000000000000000000081523360048201526024016103b3565b5f80546001600160a01b038381167fffffffffffffffffffffffff0000000000000000000000000000000000000000831681178455604051919092169283917f8be0079c531659141344cd1fd0a4f28419497f9722a3daafe3b4186f6b6457e09190a35050565b634e487b7160e01b5f52602160045260245ffd5b6003811061065957634e487b7160e01b5f52602160045260245ffd5b9052565b6020810161066b828461063d565b92915050565b5f60208284031215610681575f5ffd5b81356003811061068f575f5ffd5b9392505050565b803563ffffffff811681146106a9575f5ffd5b919050565b5f5f604083850312156106bf575f5ffd5b823591506106cf60208401610696565b90509250929050565b634e487b7160e01b5f52604160045260245ffd5b5f5f67ffffffffffffffff841115610706576107066106d8565b50604051601f19601f85018116603f0116810181811067ffffffffffffffff82111715610735576107356106d8565b60405283815290508082840185101561074c575f5ffd5b838360208301375f60208583010152509392505050565b5f82601f830112610772575f5ffd5b61068f838335602085016106ec565b5f5f60408385031215610792575f5ffd5b823567ffffffffffffffff8111156107a8575f5ffd5b6107b485828601610763565b925050602083013567ffffffffffffffff8111156107d0575f5ffd5b6107dc85828601610763565b9150509250929050565b848152602081018490526040810183905260808101610808606083018461063d565b95945050505050565b5f5f5f60608486031215610823575f5ffd5b833567ffffffffffffffff811115610839575f5ffd5b84016040818703121561084a575f5ffd5b925061085860208501610696565b9150604084013567ffffffffffffffff811115610873575f5ffd5b8401601f81018613610883575f5ffd5b610892868235602084016106ec565b9150509250925092565b5f81518084528060208401602086015e5f602082860101526020601f19601f83011685010191505092915050565b602081525f61068f602083018461089c565b5f602082840312156108ec575f5ffd5b81356001600160a01b038116811461068f575f5ffd5b60408101610910828561063d565b61068f602083018461063d565b634e487b7160e01b5f52601160045260245ffd5b8082018082111561066b5761066b61091d565b5f600182016109555761095561091d565b5060010190565b600181811c9082168061097057607f821691505b60208210810361098e57634e487b7160e01b5f52602260045260245ffd5b50919050565b601f82111561031757805f5260205f20601f840160051c810160208510156109b95750805b601f840160051c820191505b818110156109d8575f81556001016109c5565b5050505050565b815167ffffffffffffffff8111156109f9576109f96106d8565b610a0d81610a07845461095c565b84610994565b6020601f821160018114610a3f575f8315610a285750848201515b5f19600385901b1c1916600184901b1784556109d8565b5f84815260208120601f198516915b82811015610a6e5787850151825560209485019460019092019101610a4e565b5084821015610a8b57868401515f19600387901b60f8161c191681555b50505050600190811b01905550565b606081525f8435601e19863603018112610ab2575f5ffd5b850160208101903567ffffffffffffffff811115610ace575f5ffd5b803603821315610adc575f5ffd5b604060608501528060a0850152808260c08601375f84820160c00152601f01601f191683019050610b0f60208701610696565b63ffffffff811660808501525063ffffffff8516602084015260c0838203016040840152610b4060c082018561089c565b969550505050505056fea2646970667358221220b3556df7f19d1bd69934a0578ba84456ed6900b7d5c53d2cf08ea98dba4e35f364736f6c634300081b0033","linkReferences":{}},"methodIdentifiers":{"consensusParticipations()":"1c8db4f6","getAgentStats()":"77a5e9f2","modelType()":"ca61539e","modelVersion()":"edb3ba0b","owner()":"8da5cb5b","processTask((string,uint32),uint32,bytes)":"aa7a2a59","recordReward(uint256,uint32)":"40404003","renounceOwnership()":"715018a6","serviceManager()":"3998fdd3","setStatus(uint8)":"2e49d78b","status()":"200d2ed2","tasksCompleted()":"37e0b491","totalRewardsEarned()":"f15576a6","transferOwnership(address)":"f2fde38b","updateModelInfo(string,string)":"630366ca"},"id":154}