{"abi":[{"type":"constructor","inputs":[{"name":"_avsDirectory","type":"address","internalType":"address"},{"name":"_stakeRegistry","type":"address","internalType":"address"},{"name":"_rewardsCoordinator","type":"address","internalType":"address"},{"name":"_delegationManager","type":"address","internalType":"address"},{"name":"_allocationManager","type":"address","internalType":"address"}],"stateMutability":"nonpayable"},{"type":"function","name":"addPendingAdmin","inputs":[{"name":"admin","type":"address","internalType":"address"}],"outputs":[],"stateMutability":"nonpayable"},{"type":"function","name":"addTestOperator","inputs":[{"name":"operator","type":"address","internalType":"address"}],"outputs":[],"stateMutability":"nonpayable"},{"type":"function","name":"allTaskHashes","inputs":[{"name":"","type":"uint32","internalType":"uint32"}],"outputs":[{"name":"","type":"bytes32","internalType":"bytes32"}],"stateMutability":"view"},{"type":"function","name":"allTaskResponseHashes","inputs":[{"name":"","type":"address","internalType":"address"},{"name":"","type":"uint32","internalType":"uint32"}],"outputs":[{"name":"","type":"bytes32","internalType":"bytes32"}],"stateMutability":"view"},{"type":"function","name":"allTaskResponses","inputs":[{"name":"operator","type":"address","internalType":"address"},{"name":"taskIndex","type":"uint32","internalType":"uint32"}],"outputs":[{"name":"","type":"bytes","internalType":"bytes"}],"stateMutability":"view"},{"type":"function","name":"allocationManager","inputs":[],"outputs":[{"name":"","type":"address","internalType":"address"}],"stateMutability":"view"},{"type":"function","name":"avsDirectory","inputs":[],"outputs":[{"name":"","type":"address","internalType":"address"}],"stateMutability":"view"},{"type":"function","name":"consensusResultHash","inputs":[{"name":"taskIndex","type":"uint32","internalType":"uint32"}],"outputs":[{"name":"","type":"bytes32","internalType":"bytes32"}],"stateMutability":"view"},{"type":"function","name":"consensusThreshold","inputs":[],"outputs":[{"name":"","type":"uint256","internalType":"uint256"}],"stateMutability":"view"},{"type":"function","name":"createAVSRewardsSubmission","inputs":[{"name":"rewardsSubmissions","type":"tuple[]","internalType":"struct IRewardsCoordinatorTypes.RewardsSubmission[]","components":[{"name":"strategiesAndMultipliers","type":"tuple[]","internalType":"struct IRewardsCoordinatorTypes.StrategyAndMultiplier[]","components":[{"name":"strategy","type":"address","internalType":"contract IStrategy"},{"name":"multiplier","type":"uint96","internalType":"uint96"}]},{"name":"token","type":"address","internalType":"contract IERC20"},{"name":"amount","type":"uint256","internalType":"uint256"},{"name":"startTimestamp","type":"uint32","internalType":"uint32"},{"name":"duration","type":"uint32","internalType":"uint32"}]}],"outputs":[],"stateMutability":"nonpayable"},{"type":"function","name":"createNewTask","inputs":[{"name":"name","type":"string","internalType":"string"}],"outputs":[{"name":"","type":"tuple","internalType":"struct IAIOracleServiceManager.Task","components":[{"name":"name","type":"string","internalType":"string"},{"name":"taskCreatedBlock","type":"uint32","internalType":"uint32"}]}],"stateMutability":"nonpayable"},{"type":"function","name":"createOperatorDirectedAVSRewardsSubmission","inputs":[{"name":"operatorDirectedRewardsSubmissions","type":"tuple[]","internalType":"struct IRewardsCoordinatorTypes.OperatorDirectedRewardsSubmission[]","components":[{"name":"strategiesAndMultipliers","type":"tuple[]","internalType":"struct IRewardsCoordinatorTypes.StrategyAndMultiplier[]","components":[{"name":"strategy","type":"address","internalType":"contract IStrategy"},{"name":"multiplier","type":"uint96","internalType":"uint96"}]},{"name":"token","type":"address","internalType":"contract IERC20"},{"name":"operatorRewards","type":"tuple[]","internalType":"struct IRewardsCoordinatorTypes.OperatorReward[]","components":[{"name":"operator","type":"address","internalType":"address"},{"name":"amount","type":"uint256","internalType":"uint256"}]},{"name":"startTimestamp","type":"uint32","internalType":"uint32"},{"name":"duration","type":"uint32","internalType":"uint32"},{"name":"description","type":"string","internalType":"string"}]}],"outputs":[],"stateMutability":"nonpayable"},{"type":"function","name":"deregisterOperatorFromAVS","inputs":[{"name":"operator","type":"address","internalType":"address"}],"outputs":[],"stateMutability":"nonpayable"},{"type":"function","name":"deregisterOperatorFromOperatorSets","inputs":[{"name":"operator","type":"address","internalType":"address"},{"name":"operatorSetIds","type":"uint32[]","internalType":"uint32[]"}],"outputs":[],"stateMutability":"nonpayable"},{"type":"function","name":"distributeRewards","inputs":[{"name":"taskIndex","type":"uint32","internalType":"uint32"}],"outputs":[],"stateMutability":"nonpayable"},{"type":"function","name":"getConsensusResult","inputs":[{"name":"taskIndex","type":"uint32","internalType":"uint32"}],"outputs":[{"name":"result","type":"bytes","internalType":"bytes"},{"name":"isResolved","type":"bool","internalType":"bool"}],"stateMutability":"view"},{"type":"function","name":"getOperatorRestakedStrategies","inputs":[{"name":"_operator","type":"address","internalType":"address"}],"outputs":[{"name":"","type":"address[]","internalType":"address[]"}],"stateMutability":"view"},{"type":"function","name":"getRestakeableStrategies","inputs":[],"outputs":[{"name":"","type":"address[]","internalType":"address[]"}],"stateMutability":"view"},{"type":"function","name":"hasResponded","inputs":[{"name":"","type":"uint32","internalType":"uint32"},{"name":"","type":"address","internalType":"address"}],"outputs":[{"name":"","type":"bool","internalType":"bool"}],"stateMutability":"view"},{"type":"function","name":"initialize","inputs":[{"name":"initialOwner","type":"address","internalType":"address"},{"name":"_rewardsInitiator","type":"address","internalType":"address"},{"name":"_minimumResponses","type":"uint256","internalType":"uint256"},{"name":"_consensusThreshold","type":"uint256","internalType":"uint256"}],"outputs":[],"stateMutability":"nonpayable"},{"type":"function","name":"latestTaskNum","inputs":[],"outputs":[{"name":"","type":"uint32","internalType":"uint32"}],"stateMutability":"view"},{"type":"function","name":"minimumResponses","inputs":[],"outputs":[{"name":"","type":"uint256","internalType":"uint256"}],"stateMutability":"view"},{"type":"function","name":"owner","inputs":[],"outputs":[{"name":"","type":"address","internalType":"address"}],"stateMutability":"view"},{"type":"function","name":"registerOperatorToAVS","inputs":[{"name":"operator","type":"address","internalType":"address"},{"name":"operatorSignature","type":"tuple","internalType":"struct ISignatureUtils.SignatureWithSaltAndExpiry","components":[{"name":"signature","type":"bytes","internalType":"bytes"},{"name":"salt","type":"bytes32","internalType":"bytes32"},{"name":"expiry","type":"uint256","internalType":"uint256"}]}],"outputs":[],"stateMutability":"nonpayable"},{"type":"function","name":"removeAdmin","inputs":[{"name":"admin","type":"address","internalType":"address"}],"outputs":[],"stateMutability":"nonpayable"},{"type":"function","name":"removeAppointee","inputs":[{"name":"appointee","type":"address","internalType":"address"},{"name":"target","type":"address","internalType":"address"},{"name":"selector","type":"bytes4","internalType":"bytes4"}],"outputs":[],"stateMutability":"nonpayable"},{"type":"function","name":"removePendingAdmin","inputs":[{"name":"pendingAdmin","type":"address","internalType":"address"}],"outputs":[],"stateMutability":"nonpayable"},{"type":"function","name":"renounceOwnership","inputs":[],"outputs":[],"stateMutability":"nonpayable"},{"type":"function","name":"respondToTask","inputs":[{"name":"referenceTaskIndex","type":"uint32","internalType":"uint32"},{"name":"signature","type":"bytes","internalType":"bytes"}],"outputs":[],"stateMutability":"nonpayable"},{"type":"function","name":"responseVotes","inputs":[{"name":"","type":"uint32","internalType":"uint32"},{"name":"","type":"bytes32","internalType":"bytes32"}],"outputs":[{"name":"","type":"uint256","internalType":"uint256"}],"stateMutability":"view"},{"type":"function","name":"rewardsInitiator","inputs":[],"outputs":[{"name":"","type":"address","internalType":"address"}],"stateMutability":"view"},{"type":"function","name":"setAVSRegistrar","inputs":[{"name":"registrar","type":"address","internalType":"contract IAVSRegistrar"}],"outputs":[],"stateMutability":"nonpayable"},{"type":"function","name":"setAppointee","inputs":[{"name":"appointee","type":"address","internalType":"address"},{"name":"target","type":"address","internalType":"address"},{"name":"selector","type":"bytes4","internalType":"bytes4"}],"outputs":[],"stateMutability":"nonpayable"},{"type":"function","name":"setClaimerFor","inputs":[{"name":"claimer","type":"address","internalType":"address"}],"outputs":[],"stateMutability":"nonpayable"},{"type":"function","name":"setRewardsInitiator","inputs":[{"name":"newRewardsInitiator","type":"address","internalType":"address"}],"outputs":[],"stateMutability":"nonpayable"},{"type":"function","name":"stakeRegistry","inputs":[],"outputs":[{"name":"","type":"address","internalType":"address"}],"stateMutability":"view"},{"type":"function","name":"taskConsensusResultHash","inputs":[{"name":"","type":"uint32","internalType":"uint32"}],"outputs":[{"name":"","type":"bytes32","internalType":"bytes32"}],"stateMutability":"view"},{"type":"function","name":"taskRespondents","inputs":[{"name":"taskIndex","type":"uint32","internalType":"uint32"}],"outputs":[{"name":"","type":"address[]","internalType":"address[]"}],"stateMutability":"view"},{"type":"function","name":"taskStatus","inputs":[{"name":"taskIndex","type":"uint32","internalType":"uint32"}],"outputs":[{"name":"","type":"uint8","internalType":"enum IAIOracleServiceManager.TaskStatus"}],"stateMutability":"view"},{"type":"function","name":"testOperators","inputs":[{"name":"","type":"address","internalType":"address"}],"outputs":[{"name":"","type":"bool","internalType":"bool"}],"stateMutability":"view"},{"type":"function","name":"transferOwnership","inputs":[{"name":"newOwner","type":"address","internalType":"address"}],"outputs":[],"stateMutability":"nonpayable"},{"type":"function","name":"updateAVSMetadataURI","inputs":[{"name":"_metadataURI","type":"string","internalType":"string"}],"outputs":[],"stateMutability":"nonpayable"},{"type":"function","name":"updateConsensusParameters","inputs":[{"name":"_minimumResponses","type":"uint256","internalType":"uint256"},{"name":"_consensusThreshold","type":"uint256","internalType":"uint256"}],"outputs":[],"stateMutability":"nonpayable"},{"type":"event","name":"AgentRewarded","inputs":[{"name":"agent","type":"address","indexed":true,"internalType":"address"},{"name":"taskIndex","type":"uint32","indexed":true,"internalType":"uint32"},{"name":"rewardAmount","type":"uint256","indexed":false,"internalType":"uint256"}],"anonymous":false},{"type":"event","name":"ConsensusReached","inputs":[{"name":"taskIndex","type":"uint32","indexed":true,"internalType":"uint32"},{"name":"consensusResult","type":"bytes","indexed":false,"internalType":"bytes"}],"anonymous":false},{"type":"event","name":"Initialized","inputs":[{"name":"version","type":"uint8","indexed":false,"internalType":"uint8"}],"anonymous":false},{"type":"event","name":"NewTaskCreated","inputs":[{"name":"taskIndex","type":"uint32","indexed":true,"internalType":"uint32"},{"name":"task","type":"tuple","indexed":false,"internalType":"struct IAIOracleServiceManager.Task","components":[{"name":"name","type":"string","internalType":"string"},{"name":"taskCreatedBlock","type":"uint32","internalType":"uint32"}]}],"anonymous":false},{"type":"event","name":"OwnershipTransferred","inputs":[{"name":"previousOwner","type":"address","indexed":true,"internalType":"address"},{"name":"newOwner","type":"address","indexed":true,"internalType":"address"}],"anonymous":false},{"type":"event","name":"RewardsInitiatorUpdated","inputs":[{"name":"prevRewardsInitiator","type":"address","indexed":false,"internalType":"address"},{"name":"newRewardsInitiator","type":"address","indexed":false,"internalType":"address"}],"anonymous":false},{"type":"event","name":"TaskResponded","inputs":[{"name":"taskIndex","type":"uint32","indexed":true,"internalType":"uint32"},{"name":"task","type":"tuple","indexed":false,"internalType":"struct IAIOracleServiceManager.Task","components":[{"name":"name","type":"string","internalType":"string"},{"name":"taskCreatedBlock","type":"uint32","internalType":"uint32"}]},{"name":"operator","type":"address","indexed":false,"internalType":"address"}],"anonymous":false},{"type":"error","name":"DelayPeriodNotPassed","inputs":[]},{"type":"error","name":"OnlyRegistryCoordinator","inputs":[]},{"type":"error","name":"OnlyRewardsInitiator","inputs":[]},{"type":"error","name":"OnlyStakeRegistry","inputs":[]},{"type":"error","name":"SafeERC20FailedOperation","inputs":[{"name":"token","type":"address","internalType":"address"}]}],"bytecode":{"object":"0x610120346101bc57601f612d6638819003918201601f19168301916001600160401b038311848410176101c05780849260a0946040528339810103126101bc57610048816101d4565b90610055602082016101d4565b610061604083016101d4565b9061007a6080610073606086016101d4565b94016101d4565b9360a05260805260e0526101005260c0525f5460ff8160081c166101675760ff8082160361012d575b604051612b7d90816101e98239608051818181610c0d01528181610ebe015281816113860152818161186301528181611bfa0152611d8d015260a051818181611286015281816113b80152818161188b0152611bb6015260c05181818161066e015261100b015260e0518181816102340152818161146c015261172b01526101005181611e530152f35b60ff90811916175f557f7f26b83ff96e1f2b6a682f133852f6798a09c465da95921460cefb3847402498602060405160ff8152a15f6100a3565b60405162461bcd60e51b815260206004820152602760248201527f496e697469616c697a61626c653a20636f6e747261637420697320696e697469604482015266616c697a696e6760c81b6064820152608490fd5b5f80fd5b634e487b7160e01b5f52604160045260245ffd5b51906001600160a01b03821682036101bc5756fe6080806040526004361015610012575f80fd5b5f905f3560e01c908163112e4db4146120f3575080631785f53c146120635780631e6d32b51461209e5780631fdb0cfd14612085578063279432eb146120635780632d89f6fc1461202e57806333cfb7b714611d605780633a22156814611d235780633bc28c8c14611cff57806354bcd7ff14611ce25780635b09fce114611c5e5780636745df4d14611c295780636830483514611be55780636b3aa72e14611ba1578063715018a614611b4657806385edf87414611a2757806386e6ddcc146119a65780638b00ce7c146119835780638da5cb5b1461195b5780639926ee7d146117b65780639da16d8e14611793578063a0169ddd14611706578063a20b99bf1461142f578063a364f4da1461136a578063a65feaf0146112f3578063a98fb3551461126c578063ab7eb25b14611228578063acbe1036146111e4578063ba550880146111ca578063c1a8e2c514611139578063c20bab7f1461103a578063ca8aa7c714610ff5578063cba32ecf14610fc0578063d43b77bc14610f6f578063e481af9d14610e99578063eb990c5914610cf3578063eeed7056146106d7578063f25f16101461063c578063f2d252d6146104bf578063f2fde38b1461042e578063f9b0b5b914610410578063fc299dee146103e75763fce36c7d146101f7575f80fd5b346102d45760203660031901126102d4576004356001600160401b0381116103e35761022790369060040161233c565b610232929192612667565b7f0000000000000000000000000000000000000000000000000000000000000000825b82811061037f57506001600160a01b031690813b1561037b576040519363fce36c7d60e01b8552816024860160206004880152526044850160448360051b87010192828690609e19813603015b8383106102e25788808b8181808c0381838f5af180156102d7576102c35750f35b816102cd9161224e565b6102d45780f35b80fd5b6040513d84823e3d90fd5b9091929394956043198a82030186528635828112156103775760206001928582930190608063ffffffff6103658261032b61031d8780612702565b60a0885260a0880191612736565b95898060a01b0361033d898301612192565b1688870152604081013560408701528361035960608301612155565b16606087015201612155565b169101529801960194930191906102a2565b8980fd5b8280fd5b806103b461039b6020610395600195888b612959565b016126ee565b60406103a884888b612959565b0135903090339061297b565b6103dd6103c7602061039584888b612959565b8460406103d585898c612959565b0135916129c6565b01610255565b5080fd5b50346102d457806003193601126102d4576065546040516001600160a01b039091168152602090f35b50346102d457806003193601126102d4576020609954604051908152f35b50346102d45760203660031901126102d457610448612166565b610450612421565b6001600160a01b0381161561046b576104689061261f565b80f35b60405162461bcd60e51b815260206004820152602660248201527f4f776e61626c653a206e6577206f776e657220697320746865207a65726f206160448201526564647265737360d01b6064820152608490fd5b50346102d45760203660031901126102d45763ffffffff6104de61212f565b16808252609a60205260ff6040832054166003811015610628576002036105ef57808252609d60205260408220549081156105b457808352609b602052604083205491835b83811061052e578480f35b600190838652609b6020528361054782604089206123ea565b848060a01b0391549060031b1c1680885260a060205260408820825f526020528460405f20541461057b575b505001610523565b7f7bb03d9adf04498e7d816ba1da47b33f38c0fe782e8b2d92d767b5ef91b4ec156020604051670de0b6b3a76400008152a3835f610573565b60405162461bcd60e51b8152602060048201526013602482015272139bc818dbdb9cd95b9cdd5cc81c995cdd5b1d606a1b6044820152606490fd5b60405162461bcd60e51b815260206004820152601160248201527015185cdac81b9bdd081c995cdbdb1d9959607a1b6044820152606490fd5b634e487b7160e01b83526021600452602483fd5b50346102d45760203660031901126102d457806004356001600160a01b038116908190036106d45761066c612421565b7f00000000000000000000000000000000000000000000000000000000000000006001600160a01b031690813b156106d05782916044839260405194859384926334f65bfd60e21b845230600485015260248401525af180156102d7576102c35750f35b5050fd5b50fd5b50346102d45760403660031901126102d4576106f161212f565b602435906001600160401b03821161037b573660238301121561037b5781600401356001600160401b038111610cef573660248285010111610cef576001609854148015610cd9575b15610bf2575b63ffffffff821692838552609f602052604085205415610bb757838552609e60209081526040808720335f908152925290205460ff16610b7257838552609a60205260ff6040862054166003811015610b5e57600214610b19576107a836836024840161226f565b6020815191012091848652609e6020526040862060018060a01b0333165f5260205260405f20600160ff1982541617905533865260a060205260408620855f526020528260405f205533865260a160205260408620855f526020528060405f2092610813845461239c565b601f8111610ade575b508790601f8311600114610a73578892610a65575b50508160011b915f199060031b1c19161790555b828452609b6020526040842080549068010000000000000000821015610a515790610875916001820181556123ea565b81549060031b9033821b9160018060a01b03901b1916179055828452609a60205260ff6040852054166003811015610a3d5715610a21575b828452609c60205260408420818552602052604084206108cd8154612413565b9055828452609b60205260408420546098548110156109a4575b505050807f8eb2d2fcccf5801e10ff58cd73e8781ba923122963789378771f03c1148b023e610937610917612383565b63ffffffff43166020820152604051918291604083526040830190612316565b3360208301520390a233825260a160205260408220905f526020528060405f20610961815461239c565b8061096a575050f35b601f811160011461097a57505580f35b8183526020832061099691601f0160051c8101906001016123d4565b808252816020812091555580f35b838552609c602052604085208286526020526040852054906127108202918083046127101490151715610a0d5780156109f957609954910410156109e9575b806108e7565b6109f29161279a565b5f806109e3565b634e487b7160e01b86526012600452602486fd5b634e487b7160e01b86526011600452602486fd5b828452609a60205260408420805460ff191660011790556108ad565b634e487b7160e01b85526021600452602485fd5b634e487b7160e01b86526041600452602486fd5b602492500101355f80610831565b84895260208920925090601f198416895b818110610ac35750908460019594939210610aa7575b505050811b019055610845565b01602401355f19600384901b60f8161c191690555f8080610a9a565b91936020600181926024888801013581550195019201610a84565b610b0990858a5260208a20601f850160051c81019160208610610b0f575b601f0160051c01906123d4565b5f61081c565b9091508190610afc565b60405162461bcd60e51b815260206004820152601e60248201527f5461736b2068617320616c7265616479206265656e207265736f6c76656400006044820152606490fd5b634e487b7160e01b86526021600452602486fd5b60405162461bcd60e51b815260206004820152601960248201527f416c726561647920726573706f6e64656420746f207461736b000000000000006044820152606490fd5b60405162461bcd60e51b81526020600482015260136024820152721d185cdac8191bd95cc81b9bdd08195e1a5cdd606a1b6044820152606490fd5b60405163ec7fbb3160e01b81523360048201526020816024817f00000000000000000000000000000000000000000000000000000000000000006001600160a01b03165afa908115610cce578591610c8f575b506107405760405162461bcd60e51b815260206004820152601b60248201527f4f70657261746f72206d757374206265207468652063616c6c657200000000006044820152606490fd5b90506020813d602011610cc6575b81610caa6020938361224e565b81010312610cc257518015158103610cc2575f610c45565b8480fd5b3d9150610c9d565b6040513d87823e3d90fd5b5033845260a260205260ff60408520541661073a565b8380fd5b50346102d45760803660031901126102d457610d0d612166565b610d1561217c565b9082549160ff8360081c161592838094610e8c575b8015610e75575b15610e195760ff198116600117855583610e08575b5060ff845460081c1615610daf57610d60610d659261261f565b6125c1565b604435609855606435609955610d785780f35b61ff001981541681557f7f26b83ff96e1f2b6a682f133852f6798a09c465da95921460cefb3847402498602060405160018152a180f35b60405162461bcd60e51b815260206004820152602b60248201527f496e697469616c697a61626c653a20636f6e7472616374206973206e6f74206960448201526a6e697469616c697a696e6760a81b6064820152608490fd5b61ffff19166101011784555f610d46565b60405162461bcd60e51b815260206004820152602e60248201527f496e697469616c697a61626c653a20636f6e747261637420697320616c72656160448201526d191e481a5b9a5d1a585b1a5e995960921b6064820152608490fd5b50303b158015610d315750600160ff821614610d31565b50600160ff821610610d2a565b50346102d457806003193601126102d4576040516302e0740360e31b815281816004817f00000000000000000000000000000000000000000000000000000000000000006001600160a01b03165afa9081156102d7578291610f4d575b50610f0281515161258f565b915b81518051821015610f3b57600191906001600160a01b0390610f2790839061257b565b515116610f34828661257b565b5201610f04565b60405180610f4986826121f1565b0390f35b610f6991503d8084833e610f61818361224e565b810190612479565b5f610ef6565b50346102d45760403660031901126102d45763ffffffff6040610f90612166565b92610f99612142565b9360018060a01b0316815260a06020522091165f52602052602060405f2054604051908152f35b50346102d45760203660031901126102d457604060209163ffffffff610fe461212f565b168152609d83522054604051908152f35b50346102d457806003193601126102d4576040517f00000000000000000000000000000000000000000000000000000000000000006001600160a01b03168152602090f35b50346102d45760403660031901126102d457611054612166565b61105c612142565b9060018060a01b0316825260a160205263ffffffff6040832091165f5260205260405f209060405191818154916110928361239c565b808652926001811690811561110f57506001146110ce575b610f49856110ba8187038261224e565b6040519182916020835260208301906122f2565b815260208120939250905b8082106110f5575090915081016020016110ba82610f496110aa565b9192600181602092548385880101520191019092916110d9565b869550610f49969350602092506110ba94915060ff191682840152151560051b82010192936110aa565b50346102d45760403660031901126102d457611153612166565b506024356001600160401b0381116103e357366023820112156103e3578060040135602460206111828361236c565b61118f604051918261224e565b838152019160051b83010191368311610cef57602401905b8282106111b2578380f35b602080916111bf84612155565b8152019101906111a7565b50346102d4576111d9366121a6565b505050610468612421565b50346102d45760203660031901126102d45763ffffffff61120361212f565b168152609a60205260ff60408220541660405190600381101561062857602092508152f35b50346102d45760203660031901126102d457611242612166565b61124a612421565b6001600160a01b0316815260a260205260408120805460ff1916600117905580f35b50346102d4578061127c366122b4565b611284612421565b7f00000000000000000000000000000000000000000000000000000000000000006001600160a01b0316803b156106d05760405163a98fb35560e01b81526020600482015291839183918290849082906112e29060248301906122f2565b03925af180156102d7576102c35750f35b50346102d45760403660031901126102d457602435611310612421565b61271081116113255760043560985560995580f35b60405162461bcd60e51b815260206004820152601c60248201527f5468726573686f6c642063616e6e6f74206578636565642031303025000000006044820152606490fd5b50346102d45760203660031901126102d457611384612166565b7f00000000000000000000000000000000000000000000000000000000000000006001600160a01b031633036114205781907f00000000000000000000000000000000000000000000000000000000000000006001600160a01b031690813b156106d0576040516351b27a6d60e11b81526001600160a01b0390911660048201529082908290602490829084905af180156102d7576102c35750f35b6346bf228160e01b8252600482fd5b50346102d45760203660031901126102d4576004356001600160401b0381116103e35761146090369060040161233c565b919061146a612667565b7f0000000000000000000000000000000000000000000000000000000000000000825b84811061165157506001600160a01b0316803b1561037b5760409391935191634e5cd2fd60e11b8352806044840130600486015260406024860152526064830160648260051b850101918691869760be19813603015b838a10611504578880898181808b0381838e5af180156102d7576102c35750f35b90919293946063198882030184528535828112156103775783019061153a61152c8380612702565b60c0845260c0840191612736565b916001600160a01b0361154f60208301612192565b16602083015260206115646040830183612702565b848603604086015280865294909101938c905b8082106116215750505063ffffffff61159260608301612155565b16606083015263ffffffff6115a960808301612155565b16608083015260a0810135601e198236030181121561161d570190602082359201906001600160401b03831161161d57823603821361161d57838360209485948460a0879660019a03910152818452848401378d838284010152601f801991011601019701940199019891909392936114e3565b8b80fd5b909194604080600192838060a01b036116398a612192565b16815260208901356020820152019601920190611577565b90929193829483955b61167261166885858561268a565b60408101906126ac565b90508710156116c25761168961166885858561268a565b8810156116ae5760019160206116a6928a60061b010135906126e1565b96019561165a565b634e487b7160e01b86526032600452602486fd5b919550929391600191611700906116ea8130336116e56020610395898f8e61268a565b61297b565b846116fb6020610395868c8b61268a565b6129c6565b0161148d565b50346102d45760203660031901126102d45780611721612166565b611729612421565b7f00000000000000000000000000000000000000000000000000000000000000006001600160a01b031690813b156106d05760405163a0169ddd60e01b81526001600160a01b0390911660048201529082908290602490829084905af180156102d7576102c35750f35b50346102d45760203660031901126102d4576117ad612166565b50610468612421565b5034611934576040366003190112611934576117d0612166565b602435906001600160401b03821161193457606060031983360301126119345760405190606082018281106001600160401b038211176119475760405282600401356001600160401b038111611934578301366023820112156119345761184190369060246004820135910161226f565b8252602082019160248401358352604460408201940135845260018060a01b037f0000000000000000000000000000000000000000000000000000000000000000163303611938577f00000000000000000000000000000000000000000000000000000000000000006001600160a01b031690813b15611934575f6118fc93819560405197889687958694639926ee7d60e01b865260018060a01b0316600486015260406024860152516060604486015260a48501906122f2565b9151606484015251608483015203925af180156119295761191b575080f35b61192791505f9061224e565b005b6040513d5f823e3d90fd5b5f80fd5b6346bf228160e01b5f5260045ffd5b634e487b7160e01b5f52604160045260245ffd5b34611934575f366003190112611934576033546040516001600160a01b039091168152602090f35b34611934575f36600319011261193457602063ffffffff60975416604051908152f35b346119345760203660031901126119345763ffffffff6119c461212f565b165f52609a60205260ff60405f2054166003811015611a1357604051611a08916119ef60208361224e565b5f825260026040519384936040855260408501906122f2565b911460208301520390f35b634e487b7160e01b5f52602160045260245ffd5b3461193457611a35366122b4565b611a3d612383565b50611a46612383565b90815263ffffffff43166020820152604051602081019060208252611a8081611a726040820186612316565b03601f19810183528261224e565b51902063ffffffff609754165f52609f60205260405f205563ffffffff609754165f52609a60205260405f2060ff19815416905560975490600163ffffffff8316807f58180a6a0403a63c2b5ce4b85d129d46a80d37851b2216bd0a98b59e7309b8476040516020815280611af86020820188612316565b0390a2019163ffffffff8311611b325763ffffffff610f4993169063ffffffff191617609755604051918291602083526020830190612316565b634e487b7160e01b5f52601160045260245ffd5b34611934575f36600319011261193457611b5e612421565b603380546001600160a01b031981169091555f906001600160a01b03167f8be0079c531659141344cd1fd0a4f28419497f9722a3daafe3b4186f6b6457e08280a3005b34611934575f366003190112611934576040517f00000000000000000000000000000000000000000000000000000000000000006001600160a01b03168152602090f35b34611934575f366003190112611934576040517f00000000000000000000000000000000000000000000000000000000000000006001600160a01b03168152602090f35b346119345760203660031901126119345763ffffffff611c4761212f565b165f52609d602052602060405f2054604051908152f35b346119345760203660031901126119345763ffffffff611c7c61212f565b165f52609b60205260405f206040519081602082549182815201915f5260205f20905f5b818110611cc357610f4985611cb78187038261224e565b604051918291826121f1565b82546001600160a01b0316845260209093019260019283019201611ca0565b34611934575f366003190112611934576020609854604051908152f35b3461193457602036600319011261193457611927611d1b612166565b610d60612421565b34611934576020366003190112611934576001600160a01b03611d44612166565b165f5260a2602052602060ff60405f2054166040519015158152f35b3461193457602036600319011261193457611d79612166565b6040516302e0740360e31b81525f816004817f00000000000000000000000000000000000000000000000000000000000000006001600160a01b03165afa908115611929575f91612014575b509081515190611dd48261236c565b90611de2604051928361224e565b828252611dee8361236c565b602083019490601f19013686375f5b848110611fe657505060408051639004134760e01b81526001600160a01b0390921660048301526024820152815160448201819052909384916064830191905f5b818110611fc457505f939283900391508290507f00000000000000000000000000000000000000000000000000000000000000006001600160a01b03165afa928315611929575f93611f32575b505f805b838110611f065750611ea09061258f565b925f905f5b848110611eba5760405180610f4988826121f1565b611ec4818361257b565b51611ed2575b600101611ea5565b91600190611efe906001600160a01b03611eec868861257b565b5116611ef8828a61257b565b52612413565b929050611eca565b611f10818661257b565b51611f1e575b600101611e8f565b90611f2a600191612413565b919050611f16565b9092503d805f833e611f44818361224e565b810190602081830312611934578051906001600160401b03821161193457019080601f83011215611934578151611f7a8161236c565b92611f88604051948561224e565b81845260208085019260051b82010192831161193457602001905b828210611fb4575050509183611e8b565b8151815260209182019101611fa3565b82516001600160a01b0316845287945060209384019390920191600101611e3e565b600190818060a09895981b03611ffd82855161257b565b51511661200a828761257b565b5201949194611dfd565b61202891503d805f833e610f61818361224e565b82611dc5565b346119345760203660031901126119345763ffffffff61204c61212f565b165f52609f602052602060405f2054604051908152f35b346119345760203660031901126119345761207c612166565b50611927612421565b3461193457612093366121a6565b505050611927612421565b34611934576040366003190112611934576120b761212f565b63ffffffff6120c461217c565b91165f52609e60205260405f209060018060a01b03165f52602052602060ff60405f2054166040519015158152f35b346119345760403660031901126119345760209063ffffffff61211461212f565b165f52609c825260405f206024355f52825260405f20548152f35b6004359063ffffffff8216820361193457565b6024359063ffffffff8216820361193457565b359063ffffffff8216820361193457565b600435906001600160a01b038216820361193457565b602435906001600160a01b038216820361193457565b35906001600160a01b038216820361193457565b6060906003190112611934576004356001600160a01b038116810361193457906024356001600160a01b038116810361193457906044356001600160e01b0319811681036119345790565b60206040818301928281528451809452019201905f5b8181106122145750505090565b82516001600160a01b0316845260209384019390920191600101612207565b604081019081106001600160401b0382111761194757604052565b90601f801991011681019081106001600160401b0382111761194757604052565b9291926001600160401b0382116119475760405191612298601f8201601f19166020018461224e565b829481845281830111611934578281602093845f960137010152565b602060031982011261193457600435906001600160401b0382116119345780602383011215611934578160246122ef9360040135910161226f565b90565b805180835260209291819084018484015e5f828201840152601f01601f1916010190565b90602063ffffffff8161233285516040865260408601906122f2565b9401511691015290565b9181601f84011215611934578235916001600160401b038311611934576020808501948460051b01011161193457565b6001600160401b0381116119475760051b60200190565b6040519061239082612233565b5f602083606081520152565b90600182811c921680156123ca575b60208310146123b657565b634e487b7160e01b5f52602260045260245ffd5b91607f16916123ab565b8181106123df575050565b5f81556001016123d4565b80548210156123ff575f5260205f2001905f90565b634e487b7160e01b5f52603260045260245ffd5b5f198114611b325760010190565b6033546001600160a01b0316330361243557565b606460405162461bcd60e51b815260206004820152602060248201527f4f776e61626c653a2063616c6c6572206973206e6f7420746865206f776e65726044820152fd5b602081830312611934578051906001600160401b0382116119345701906020828203126119345760405191602083018381106001600160401b03821117611947576040528051906001600160401b038211611934570181601f82011215611934578051906124e68261236c565b926124f4604051948561224e565b82845260208085019360061b8301019181831161193457602001925b8284106125205750505050815290565b604084830312611934576040519061253782612233565b84516001600160a01b03811681036119345782526020850151906bffffffffffffffffffffffff821682036119345782602092836040950152815201930192612510565b80518210156123ff5760209160051b010190565b906125998261236c565b6125a6604051918261224e565b82815280926125b7601f199161236c565b0190602036910137565b606554604080516001600160a01b038084168252841660208201529192917fe11cddf1816a43318ca175bbc52cd0185436e9cbead7c83acc54a73e461717e39190a16001600160a01b03166001600160a01b03199190911617606555565b603380546001600160a01b039283166001600160a01b0319821681179092559091167f8be0079c531659141344cd1fd0a4f28419497f9722a3daafe3b4186f6b6457e05f80a3565b6065546001600160a01b0316330361267b57565b638e79fdb560e01b5f5260045ffd5b91908110156123ff5760051b8101359060be1981360301821215611934570190565b903590601e198136030182121561193457018035906001600160401b03821161193457602001918160061b3603831361193457565b91908201809211611b3257565b356001600160a01b03811681036119345790565b9035601e19823603018112156119345701602081359101916001600160401b038211611934578160061b3603831361193457565b916020908281520191905f905b8082106127505750505090565b909192833560018060a01b0381168091036119345781526020840135906bffffffffffffffffffffffff821680920361193457604081600193602083940152019401920190612743565b63ffffffff16805f52609a60205260ff60405f2054166003811015611a135760021461295557805f52609a60205260405f20600260ff19825416179055805f52609d6020528160405f20556060915f5b825f52609b60205260405f205481101561292857825f52609b6020526128138160405f206123ea565b60018060a01b0391549060031b1c16805f5260a060205260405f20845f526020528260405f20541461284857506001016127ea565b92935050505f5260a160205260405f20815f5260205260405f20604051905f908054906128748261239c565b808552916001811690811561290157506001146128c4575b5050816110ba7f717054e12d1c28eb8880f00b72660a874ddba5eaba5a5a9994011648f5acea66936128bf93038261224e565b0390a2565b5f908152602081209092505b8183106128e75750508101602001816110ba61288c565b6001816020929493945483858801015201910191906128d0565b60ff191660208087019190915292151560051b850190920192508391506110ba905061288c565b5050906128bf7f717054e12d1c28eb8880f00b72660a874ddba5eaba5a5a9994011648f5acea66916110ba565b5050565b91908110156123ff5760051b81013590609e1981360301821215611934570190565b6040516323b872dd60e01b60208201526001600160a01b0392831660248201529290911660448301526064808301939093529181526129c4916129bf60848361224e565b612aef565b565b604051636eb1769f60e11b81523060048201526001600160a01b038381166024830152821693602082604481885afa8015611929575f90612abb575b612a0c92506126e1565b9260205f604051948286019063095ea7b360e01b825260018060a01b031696876024880152604487015260448652612a4560648761224e565b85519082865af1903d5f519083612a9c575b50505015612a6457505050565b6129bf6129c4936040519063095ea7b360e01b602083015260248201525f604482015260448152612a9660648261224e565b82612aef565b91925090612ab157503b15155b5f8080612a57565b6001915014612aa9565b506020823d602011612ae7575b81612ad56020938361224e565b8101031261193457612a0c9151612a02565b3d9150612ac8565b905f602091828151910182855af115611929575f513d612b3e57506001600160a01b0381163b155b612b1e5750565b635274afe760e01b5f9081526001600160a01b0391909116600452602490fd5b60011415612b1756fea264697066735822122052397f5afa97d911b9952c9c62bde5a3d35bc39b905de486029922265530056264736f6c634300081a0033","linkReferences":{}},"methodIdentifiers":{"addPendingAdmin(address)":"279432eb","addTestOperator(address)":"ab7eb25b","allTaskHashes(uint32)":"2d89f6fc","allTaskResponseHashes(address,uint32)":"d43b77bc","allTaskResponses(address,uint32)":"c20bab7f","allocationManager()":"ca8aa7c7","avsDirectory()":"6b3aa72e","consensusResultHash(uint32)":"cba32ecf","consensusThreshold()":"f9b0b5b9","createAVSRewardsSubmission(((address,uint96)[],address,uint256,uint32,uint32)[])":"fce36c7d","createNewTask(string)":"85edf874","createOperatorDirectedAVSRewardsSubmission(((address,uint96)[],address,(address,uint256)[],uint32,uint32,string)[])":"a20b99bf","deregisterOperatorFromAVS(address)":"a364f4da","deregisterOperatorFromOperatorSets(address,uint32[])":"c1a8e2c5","distributeRewards(uint32)":"f2d252d6","getConsensusResult(uint32)":"86e6ddcc","getOperatorRestakedStrategies(address)":"33cfb7b7","getRestakeableStrategies()":"e481af9d","hasResponded(uint32,address)":"1e6d32b5","initialize(address,address,uint256,uint256)":"eb990c59","latestTaskNum()":"8b00ce7c","minimumResponses()":"54bcd7ff","owner()":"8da5cb5b","registerOperatorToAVS(address,(bytes,bytes32,uint256))":"9926ee7d","removeAdmin(address)":"1785f53c","removeAppointee(address,address,bytes4)":"ba550880","removePendingAdmin(address)":"9da16d8e","renounceOwnership()":"715018a6","respondToTask(uint32,bytes)":"eeed7056","responseVotes(uint32,bytes32)":"112e4db4","rewardsInitiator()":"fc299dee","setAVSRegistrar(address)":"f25f1610","setAppointee(address,address,bytes4)":"1fdb0cfd","setClaimerFor(address)":"a0169ddd","setRewardsInitiator(address)":"3bc28c8c","stakeRegistry()":"68304835","taskConsensusResultHash(uint32)":"6745df4d","taskRespondents(uint32)":"5b09fce1","taskStatus(uint32)":"acbe1036","testOperators(address)":"3a221568","transferOwnership(address)":"f2fde38b","updateAVSMetadataURI(string)":"a98fb355","updateConsensusParameters(uint256,uint256)":"a65feaf0"},"id":73}