{"abi":[{"type":"constructor","inputs":[{"name":"_avsDirectory","type":"address","internalType":"address"},{"name":"_stakeRegistry","type":"address","internalType":"address"},{"name":"_rewardsCoordinator","type":"address","internalType":"address"},{"name":"_delegationManager","type":"address","internalType":"address"},{"name":"_allocationManager","type":"address","internalType":"address"}],"stateMutability":"nonpayable"},{"type":"function","name":"addPendingAdmin","inputs":[{"name":"admin","type":"address","internalType":"address"}],"outputs":[],"stateMutability":"nonpayable"},{"type":"function","name":"allTaskHashes","inputs":[{"name":"","type":"uint32","internalType":"uint32"}],"outputs":[{"name":"","type":"bytes32","internalType":"bytes32"}],"stateMutability":"view"},{"type":"function","name":"allTaskResponses","inputs":[{"name":"","type":"address","internalType":"address"},{"name":"","type":"uint32","internalType":"uint32"}],"outputs":[{"name":"","type":"bytes","internalType":"bytes"}],"stateMutability":"view"},{"type":"function","name":"allocationManager","inputs":[],"outputs":[{"name":"","type":"address","internalType":"address"}],"stateMutability":"view"},{"type":"function","name":"avsDirectory","inputs":[],"outputs":[{"name":"","type":"address","internalType":"address"}],"stateMutability":"view"},{"type":"function","name":"consensusResult","inputs":[{"name":"","type":"uint32","internalType":"uint32"}],"outputs":[{"name":"","type":"bytes","internalType":"bytes"}],"stateMutability":"view"},{"type":"function","name":"consensusThreshold","inputs":[],"outputs":[{"name":"","type":"uint256","internalType":"uint256"}],"stateMutability":"view"},{"type":"function","name":"createAVSRewardsSubmission","inputs":[{"name":"rewardsSubmissions","type":"tuple[]","internalType":"struct IRewardsCoordinatorTypes.RewardsSubmission[]","components":[{"name":"strategiesAndMultipliers","type":"tuple[]","internalType":"struct IRewardsCoordinatorTypes.StrategyAndMultiplier[]","components":[{"name":"strategy","type":"address","internalType":"contract IStrategy"},{"name":"multiplier","type":"uint96","internalType":"uint96"}]},{"name":"token","type":"address","internalType":"contract IERC20"},{"name":"amount","type":"uint256","internalType":"uint256"},{"name":"startTimestamp","type":"uint32","internalType":"uint32"},{"name":"duration","type":"uint32","internalType":"uint32"}]}],"outputs":[],"stateMutability":"nonpayable"},{"type":"function","name":"createNewTask","inputs":[{"name":"name","type":"string","internalType":"string"}],"outputs":[{"name":"","type":"tuple","internalType":"struct IAIOracleServiceManager.Task","components":[{"name":"name","type":"string","internalType":"string"},{"name":"taskCreatedBlock","type":"uint32","internalType":"uint32"}]}],"stateMutability":"nonpayable"},{"type":"function","name":"createOperatorDirectedAVSRewardsSubmission","inputs":[{"name":"operatorDirectedRewardsSubmissions","type":"tuple[]","internalType":"struct IRewardsCoordinatorTypes.OperatorDirectedRewardsSubmission[]","components":[{"name":"strategiesAndMultipliers","type":"tuple[]","internalType":"struct IRewardsCoordinatorTypes.StrategyAndMultiplier[]","components":[{"name":"strategy","type":"address","internalType":"contract IStrategy"},{"name":"multiplier","type":"uint96","internalType":"uint96"}]},{"name":"token","type":"address","internalType":"contract IERC20"},{"name":"operatorRewards","type":"tuple[]","internalType":"struct IRewardsCoordinatorTypes.OperatorReward[]","components":[{"name":"operator","type":"address","internalType":"address"},{"name":"amount","type":"uint256","internalType":"uint256"}]},{"name":"startTimestamp","type":"uint32","internalType":"uint32"},{"name":"duration","type":"uint32","internalType":"uint32"},{"name":"description","type":"string","internalType":"string"}]}],"outputs":[],"stateMutability":"nonpayable"},{"type":"function","name":"deregisterOperatorFromAVS","inputs":[{"name":"operator","type":"address","internalType":"address"}],"outputs":[],"stateMutability":"nonpayable"},{"type":"function","name":"deregisterOperatorFromOperatorSets","inputs":[{"name":"operator","type":"address","internalType":"address"},{"name":"operatorSetIds","type":"uint32[]","internalType":"uint32[]"}],"outputs":[],"stateMutability":"nonpayable"},{"type":"function","name":"getConsensusResult","inputs":[{"name":"taskIndex","type":"uint32","internalType":"uint32"}],"outputs":[{"name":"result","type":"bytes","internalType":"bytes"},{"name":"isResolved","type":"bool","internalType":"bool"}],"stateMutability":"view"},{"type":"function","name":"getOperatorRestakedStrategies","inputs":[{"name":"_operator","type":"address","internalType":"address"}],"outputs":[{"name":"","type":"address[]","internalType":"address[]"}],"stateMutability":"view"},{"type":"function","name":"getRestakeableStrategies","inputs":[],"outputs":[{"name":"","type":"address[]","internalType":"address[]"}],"stateMutability":"view"},{"type":"function","name":"initialize","inputs":[{"name":"initialOwner","type":"address","internalType":"address"},{"name":"_rewardsInitiator","type":"address","internalType":"address"},{"name":"_minimumResponses","type":"uint256","internalType":"uint256"},{"name":"_consensusThreshold","type":"uint256","internalType":"uint256"}],"outputs":[],"stateMutability":"nonpayable"},{"type":"function","name":"latestTaskNum","inputs":[],"outputs":[{"name":"","type":"uint32","internalType":"uint32"}],"stateMutability":"view"},{"type":"function","name":"minimumResponses","inputs":[],"outputs":[{"name":"","type":"uint256","internalType":"uint256"}],"stateMutability":"view"},{"type":"function","name":"owner","inputs":[],"outputs":[{"name":"","type":"address","internalType":"address"}],"stateMutability":"view"},{"type":"function","name":"registerOperatorToAVS","inputs":[{"name":"operator","type":"address","internalType":"address"},{"name":"operatorSignature","type":"tuple","internalType":"struct ISignatureUtils.SignatureWithSaltAndExpiry","components":[{"name":"signature","type":"bytes","internalType":"bytes"},{"name":"salt","type":"bytes32","internalType":"bytes32"},{"name":"expiry","type":"uint256","internalType":"uint256"}]}],"outputs":[],"stateMutability":"nonpayable"},{"type":"function","name":"removeAdmin","inputs":[{"name":"admin","type":"address","internalType":"address"}],"outputs":[],"stateMutability":"nonpayable"},{"type":"function","name":"removeAppointee","inputs":[{"name":"appointee","type":"address","internalType":"address"},{"name":"target","type":"address","internalType":"address"},{"name":"selector","type":"bytes4","internalType":"bytes4"}],"outputs":[],"stateMutability":"nonpayable"},{"type":"function","name":"removePendingAdmin","inputs":[{"name":"pendingAdmin","type":"address","internalType":"address"}],"outputs":[],"stateMutability":"nonpayable"},{"type":"function","name":"renounceOwnership","inputs":[],"outputs":[],"stateMutability":"nonpayable"},{"type":"function","name":"respondToTask","inputs":[{"name":"task","type":"tuple","internalType":"struct IAIOracleServiceManager.Task","components":[{"name":"name","type":"string","internalType":"string"},{"name":"taskCreatedBlock","type":"uint32","internalType":"uint32"}]},{"name":"referenceTaskIndex","type":"uint32","internalType":"uint32"},{"name":"signature","type":"bytes","internalType":"bytes"}],"outputs":[],"stateMutability":"nonpayable"},{"type":"function","name":"responseVotes","inputs":[{"name":"","type":"uint32","internalType":"uint32"},{"name":"","type":"bytes","internalType":"bytes"}],"outputs":[{"name":"","type":"uint256","internalType":"uint256"}],"stateMutability":"view"},{"type":"function","name":"rewardsInitiator","inputs":[],"outputs":[{"name":"","type":"address","internalType":"address"}],"stateMutability":"view"},{"type":"function","name":"setAVSRegistrar","inputs":[{"name":"registrar","type":"address","internalType":"contract IAVSRegistrar"}],"outputs":[],"stateMutability":"nonpayable"},{"type":"function","name":"setAppointee","inputs":[{"name":"appointee","type":"address","internalType":"address"},{"name":"target","type":"address","internalType":"address"},{"name":"selector","type":"bytes4","internalType":"bytes4"}],"outputs":[],"stateMutability":"nonpayable"},{"type":"function","name":"setClaimerFor","inputs":[{"name":"claimer","type":"address","internalType":"address"}],"outputs":[],"stateMutability":"nonpayable"},{"type":"function","name":"setRewardsInitiator","inputs":[{"name":"newRewardsInitiator","type":"address","internalType":"address"}],"outputs":[],"stateMutability":"nonpayable"},{"type":"function","name":"stakeRegistry","inputs":[],"outputs":[{"name":"","type":"address","internalType":"address"}],"stateMutability":"view"},{"type":"function","name":"taskRespondents","inputs":[{"name":"taskIndex","type":"uint32","internalType":"uint32"}],"outputs":[{"name":"","type":"address[]","internalType":"address[]"}],"stateMutability":"view"},{"type":"function","name":"taskStatus","inputs":[{"name":"taskIndex","type":"uint32","internalType":"uint32"}],"outputs":[{"name":"","type":"uint8","internalType":"enum IAIOracleServiceManager.TaskStatus"}],"stateMutability":"view"},{"type":"function","name":"transferOwnership","inputs":[{"name":"newOwner","type":"address","internalType":"address"}],"outputs":[],"stateMutability":"nonpayable"},{"type":"function","name":"updateAVSMetadataURI","inputs":[{"name":"_metadataURI","type":"string","internalType":"string"}],"outputs":[],"stateMutability":"nonpayable"},{"type":"function","name":"updateConsensusParameters","inputs":[{"name":"_minimumResponses","type":"uint256","internalType":"uint256"},{"name":"_consensusThreshold","type":"uint256","internalType":"uint256"}],"outputs":[],"stateMutability":"nonpayable"},{"type":"event","name":"AgentRewarded","inputs":[{"name":"agent","type":"address","indexed":true,"internalType":"address"},{"name":"taskIndex","type":"uint32","indexed":true,"internalType":"uint32"},{"name":"rewardAmount","type":"uint256","indexed":false,"internalType":"uint256"}],"anonymous":false},{"type":"event","name":"ConsensusReached","inputs":[{"name":"taskIndex","type":"uint32","indexed":true,"internalType":"uint32"},{"name":"consensusResult","type":"bytes","indexed":false,"internalType":"bytes"}],"anonymous":false},{"type":"event","name":"Initialized","inputs":[{"name":"version","type":"uint8","indexed":false,"internalType":"uint8"}],"anonymous":false},{"type":"event","name":"NewTaskCreated","inputs":[{"name":"taskIndex","type":"uint32","indexed":true,"internalType":"uint32"},{"name":"task","type":"tuple","indexed":false,"internalType":"struct IAIOracleServiceManager.Task","components":[{"name":"name","type":"string","internalType":"string"},{"name":"taskCreatedBlock","type":"uint32","internalType":"uint32"}]}],"anonymous":false},{"type":"event","name":"OwnershipTransferred","inputs":[{"name":"previousOwner","type":"address","indexed":true,"internalType":"address"},{"name":"newOwner","type":"address","indexed":true,"internalType":"address"}],"anonymous":false},{"type":"event","name":"RewardsInitiatorUpdated","inputs":[{"name":"prevRewardsInitiator","type":"address","indexed":false,"internalType":"address"},{"name":"newRewardsInitiator","type":"address","indexed":false,"internalType":"address"}],"anonymous":false},{"type":"event","name":"TaskResponded","inputs":[{"name":"taskIndex","type":"uint32","indexed":true,"internalType":"uint32"},{"name":"task","type":"tuple","indexed":false,"internalType":"struct IAIOracleServiceManager.Task","components":[{"name":"name","type":"string","internalType":"string"},{"name":"taskCreatedBlock","type":"uint32","internalType":"uint32"}]},{"name":"operator","type":"address","indexed":false,"internalType":"address"}],"anonymous":false},{"type":"error","name":"DelayPeriodNotPassed","inputs":[]},{"type":"error","name":"OnlyRegistryCoordinator","inputs":[]},{"type":"error","name":"OnlyRewardsInitiator","inputs":[]},{"type":"error","name":"OnlyStakeRegistry","inputs":[]},{"type":"error","name":"SafeERC20FailedOperation","inputs":[{"name":"token","type":"address","internalType":"address"}]}],"bytecode":{"object":"0x610120604052348015610010575f5ffd5b5060405161334738038061334783398101604081905261002f91610148565b6001600160a01b0380861660a05280851660805280841660e05280831661010052811660c0528484848484610062610071565b505050505050505050506101a9565b5f54610100900460ff16156100dc5760405162461bcd60e51b815260206004820152602760248201527f496e697469616c697a61626c653a20636f6e747261637420697320696e697469604482015266616c697a696e6760c81b606482015260840160405180910390fd5b5f5460ff9081161461012b575f805460ff191660ff9081179091556040519081527f7f26b83ff96e1f2b6a682f133852f6798a09c465da95921460cefb38474024989060200160405180910390a15b565b80516001600160a01b0381168114610143575f5ffd5b919050565b5f5f5f5f5f60a0868803121561015c575f5ffd5b6101658661012d565b94506101736020870161012d565b93506101816040870161012d565b925061018f6060870161012d565b915061019d6080870161012d565b90509295509295909350565b60805160a05160c05160e051610100516130ff6102485f395f61127101525f8181611765015281816118c00152818161194601528181611c270152611cb201525f81816104240152610fe501525f81816102ae015281816116e60152818161199601526119e201525f818161027a015281816105440152818161084201528181610cb001528181610d26015281816111310152611a1c01526130ff5ff3fe608060405234801561000f575f5ffd5b50600436106101b5575f3560e01c80631785f53c146101b95780631fdb0cfd146101ce578063279432eb146101b95780632d89f6fc146101e157806333cfb7b7146102135780633415a49c146102335780633bc28c8c1461024657806354bcd7ff146102595780635b09fce11461026257806368304835146102755780636b3aa72e146102a9578063715018a6146102d057806385edf874146102d857806386e6ddcc146102f85780638b00ce7c146103195780638da5cb5b1461033e5780639926ee7d146103465780639da16d8e146101b9578063a0169ddd14610359578063a20b99bf1461036c578063a364f4da1461037f578063a65feaf014610392578063a98fb355146103a5578063acbe1036146103b8578063ba550880146101ce578063c1a8e2c5146103ed578063c20bab7f146103ff578063ca8aa7c71461041f578063d0e1f25814610446578063e481af9d14610481578063e7f2665814610489578063eb990c591461049c578063f25f1610146104af578063f2fde38b146104c2578063f9b0b5b9146104d5578063fc299dee146104de578063fce36c7d146104f1575b5f5ffd5b6101cc6101c73660046120b0565b610504565b005b6101cc6101dc3660046120e7565b61050f565b6102006101ef366004612147565b609e6020525f908152604090205481565b6040519081526020015b60405180910390f35b6102266102213660046120b0565b61051c565b60405161020a9190612160565b6101cc6102413660046122af565b61052d565b6101cc6102543660046120b0565b610a44565b61020060985481565b610226610270366004612147565b610a55565b61029c7f000000000000000000000000000000000000000000000000000000000000000081565b60405161020a9190612325565b61029c7f000000000000000000000000000000000000000000000000000000000000000081565b6101cc610ac5565b6102eb6102e6366004612339565b610ad8565b60405161020a91906123b3565b61030b610306366004612147565b610bc0565b60405161020a9291906123ea565b6097546103299063ffffffff1681565b60405163ffffffff909116815260200161020a565b61029c610c96565b6101cc61035436600461240d565b610ca5565b6101cc6103673660046120b0565b610cf8565b6101cc61037a366004612506565b610d09565b6101cc61038d3660046120b0565b610d1b565b6101cc6103a0366004612544565b610d6d565b6101cc6103b3366004612339565b610dd1565b6103e06103c6366004612147565b63ffffffff165f908152609a602052604090205460ff1690565b60405161020a9190612578565b6101cc6103fb3660046125c0565b5050565b61041261040d366004612671565b610de2565b60405161020a91906126a4565b61029c7f000000000000000000000000000000000000000000000000000000000000000081565b6102006104543660046126b6565b609c60209081525f9283526040909220815180830184018051928152908401929093019190912091525481565b610226610e84565b610412610497366004612147565b610e93565b6101cc6104aa366004612700565b610eab565b6101cc6104bd3660046120b0565b610fc6565b6101cc6104d03660046120b0565b611045565b61020060995481565b60655461029c906001600160a01b031681565b6101cc6104ff366004612506565b6110bb565b61050c6110cd565b50565b6105176110cd565b505050565b60606105278261112c565b92915050565b60405163ec7fbb3160e01b81526001600160a01b037f0000000000000000000000000000000000000000000000000000000000000000169063ec7fbb3190610579903390600401612325565b602060405180830381865afa158015610594573d5f5f3e3d5ffd5b505050506040513d601f19601f820116820180604052508101906105b89190612743565b6106075760405162461bcd60e51b815260206004820152601b60248201527a27b832b930ba37b91036bab9ba103132903a34329031b0b63632b960291b60448201526064015b60405180910390fd5b63ffffffff82165f908152609e602090815260409182902054915161062e9186910161280c565b60405160208183030381529060405280519060200120146106b75760405162461bcd60e51b815260206004820152603d60248201527f737570706c696564207461736b20646f6573206e6f74206d617463682074686560448201527f206f6e65207265636f7264656420696e2074686520636f6e747261637400000060648201526084016105fe565b335f908152609f6020908152604080832063ffffffff86168452909152902080546106e19061281e565b1590506107435760405162461bcd60e51b815260206004820152602a60248201527f4f70657261746f722068617320616c726561647920726573706f6e64656420746044820152696f20746865207461736b60b01b60648201526084016105fe565b600263ffffffff83165f908152609a602052604090205460ff16600281111561076e5761076e612564565b036107bb5760405162461bcd60e51b815260206004820152601e60248201527f5461736b2068617320616c7265616479206265656e207265736f6c766564000060448201526064016105fe565b5f6107c68480612856565b6040516020016107d7929190612898565b6040516020818303038152906040528051906020012090505f610825827b0ca2ba3432b932bab69029b4b3b732b21026b2b9b9b0b3b29d05199960211b5f908152601c91909152603c902090565b604051630b135d3f60e11b8082529192505f906001600160a01b037f00000000000000000000000000000000000000000000000000000000000000001690631626ba7e9061087990869089906004016128ba565b602060405180830381865afa158015610894573d5f5f3e3d5ffd5b505050506040513d601f19601f820116820180604052508101906108b891906128d2565b90506001600160e01b03198281169082161461090a5760405162461bcd60e51b8152602060048201526011602482015270496e76616c6964207369676e617475726560781b60448201526064016105fe565b335f908152609f6020908152604080832063ffffffff8a16845290915290206109338682612931565b5063ffffffff86165f818152609b6020908152604080832080546001810182559084528284200180546001600160a01b03191633179055928252609a90529081205460ff16600281111561098957610989612564565b036109ae5763ffffffff86165f908152609a60205260409020805460ff191660011790555b63ffffffff86165f908152609c60205260409081902090516109d19087906129eb565b9081526040519081900360200190208054905f6109ed83612a15565b91905055506109fb86611407565b8563ffffffff167f8eb2d2fcccf5801e10ff58cd73e8781ba923122963789378771f03c1148b023e8833604051610a33929190612a2d565b60405180910390a250505050505050565b610a4c6110cd565b61050c81611615565b63ffffffff81165f908152609b6020908152604091829020805483518184028101840190945280845260609392830182828015610ab957602002820191905f5260205f20905b81546001600160a01b03168152600190910190602001808311610a9b575b50505050509050919050565b610acd6110cd565b610ad65f61167e565b565b610ae0612085565b610ae8612085565b82815263ffffffff4316602080830191909152604051610b0a918391016123b3565b60408051808303601f1901815282825280516020918201206097805463ffffffff9081165f908152609e855285812093909355815481168352609a909352929020805460ff19169055905416907f58180a6a0403a63c2b5ce4b85d129d46a80d37851b2216bd0a98b59e7309b84790610b849084906123b3565b60405180910390a2609754610ba09063ffffffff166001612a56565b6097805463ffffffff191663ffffffff9290921691909117905592915050565b60605f600263ffffffff84165f908152609a602052604090205460ff166002811115610bee57610bee612564565b63ffffffff85165f908152609d602052604090208054919092149250610c139061281e565b80601f0160208091040260200160405190810160405280929190818152602001828054610c3f9061281e565b8015610c8a5780601f10610c6157610100808354040283529160200191610c8a565b820191905f5260205f20905b815481529060010190602001808311610c6d57829003601f168201915b50505050509150915091565b6033546001600160a01b031690565b336001600160a01b037f00000000000000000000000000000000000000000000000000000000000000001614610cee576040516346bf228160e01b815260040160405180910390fd5b6103fb82826116cf565b610d006110cd565b61050c8161174e565b610d1161179a565b6103fb82826117c5565b336001600160a01b037f00000000000000000000000000000000000000000000000000000000000000001614610d64576040516346bf228160e01b815260040160405180910390fd5b61050c8161197f565b610d756110cd565b612710811115610dc65760405162461bcd60e51b815260206004820152601c60248201527b5468726573686f6c642063616e6e6f7420657863656564203130302560201b60448201526064016105fe565b609891909155609955565b610dd96110cd565b61050c816119cb565b609f60209081525f928352604080842090915290825290208054610e059061281e565b80601f0160208091040260200160405190810160405280929190818152602001828054610e319061281e565b8015610e7c5780601f10610e5357610100808354040283529160200191610e7c565b820191905f5260205f20905b815481529060010190602001808311610e5f57829003601f168201915b505050505081565b6060610e8e611a17565b905090565b609d6020525f908152604090208054610e059061281e565b5f54610100900460ff1615808015610ec957505f54600160ff909116105b80610ee25750303b158015610ee257505f5460ff166001145b610f455760405162461bcd60e51b815260206004820152602e60248201527f496e697469616c697a61626c653a20636f6e747261637420697320616c72656160448201526d191e481a5b9a5d1a585b1a5e995960921b60648201526084016105fe565b5f805460ff191660011790558015610f66575f805461ff0019166101001790555b610f708585611b4b565b609883905560998290558015610fbf575f805461ff0019169055604051600181527f7f26b83ff96e1f2b6a682f133852f6798a09c465da95921460cefb38474024989060200160405180910390a15b5050505050565b610fce6110cd565b6040516334f65bfd60e21b81526001600160a01b037f0000000000000000000000000000000000000000000000000000000000000000169063d3d96ff49061101c9030908590600401612a72565b5f604051808303815f87803b158015611033575f5ffd5b505af1158015610fbf573d5f5f3e3d5ffd5b61104d6110cd565b6001600160a01b0381166110b25760405162461bcd60e51b815260206004820152602660248201527f4f776e61626c653a206e6577206f776e657220697320746865207a65726f206160448201526564647265737360d01b60648201526084016105fe565b61050c8161167e565b6110c361179a565b6103fb8282611bc7565b336110d6610c96565b6001600160a01b031614610ad65760405162461bcd60e51b815260206004820181905260248201527f4f776e61626c653a2063616c6c6572206973206e6f7420746865206f776e657260448201526064016105fe565b60605f7f00000000000000000000000000000000000000000000000000000000000000006001600160a01b0316631703a0186040518163ffffffff1660e01b81526004015f60405180830381865afa15801561118a573d5f5f3e3d5ffd5b505050506040513d5f823e601f3d908101601f191682016040526111b19190810190612aa0565b8051519091505f816001600160401b038111156111d0576111d06121ab565b6040519080825280602002602001820160405280156111f9578160200160208202803683370190505b5090505f5b8281101561125757835180518290811061121a5761121a612ba0565b60200260200101515f015182828151811061123757611237612ba0565b6001600160a01b03909216602092830291909101909101526001016111fe565b50604051639004134760e01b81525f906001600160a01b037f000000000000000000000000000000000000000000000000000000000000000016906390041347906112a89089908690600401612bb4565b5f60405180830381865afa1580156112c2573d5f5f3e3d5ffd5b505050506040513d5f823e601f3d908101601f191682016040526112e99190810190612c12565b90505f5f5b8481101561132d575f83828151811061130957611309612ba0565b60200260200101511115611325578161132181612a15565b9250505b6001016112ee565b505f816001600160401b03811115611347576113476121ab565b604051908082528060200260200182016040528015611370578160200160208202803683370190505b5090505f805b868110156113f9575f85828151811061139157611391612ba0565b602002602001015111156113f1578581815181106113b1576113b1612ba0565b60200260200101518383815181106113cb576113cb612ba0565b6001600160a01b0390921660209283029190910190910152816113ed81612a15565b9250505b600101611376565b509098975050505050505050565b63ffffffff81165f908152609b602052604090205460985481101561142a575050565b60605f805b838110156115725763ffffffff85165f908152609b6020526040812080548390811061145d5761145d612ba0565b5f9182526020808320909101546001600160a01b0316808352609f8252604080842063ffffffff8b16855290925290822080549193509061149d9061281e565b80601f01602080910402602001604051908101604052809291908181526020018280546114c99061281e565b80156115145780601f106114eb57610100808354040283529160200191611514565b820191905f5260205f20905b8154815290600101906020018083116114f757829003601f168201915b505050505090505f609c5f8963ffffffff1663ffffffff1681526020019081526020015f208260405161154791906129eb565b908152602001604051809103902054905084811115611567578094508195505b50505060010161142f565b506099548361158383612710612c98565b61158d9190612caf565b1061160f5763ffffffff84165f908152609a60209081526040808320805460ff19166002179055609d90915290206115c58382612931565b506115d08483611ce9565b8363ffffffff167f717054e12d1c28eb8880f00b72660a874ddba5eaba5a5a9994011648f5acea668360405161160691906126a4565b60405180910390a25b50505050565b6065546040517fe11cddf1816a43318ca175bbc52cd0185436e9cbead7c83acc54a73e461717e391611654916001600160a01b03909116908490612a72565b60405180910390a1606580546001600160a01b0319166001600160a01b0392909216919091179055565b603380546001600160a01b038381166001600160a01b0319831681179093556040519116919082907f8be0079c531659141344cd1fd0a4f28419497f9722a3daafe3b4186f6b6457e0905f90a35050565b604051639926ee7d60e01b81526001600160a01b037f00000000000000000000000000000000000000000000000000000000000000001690639926ee7d9061171d9085908590600401612cce565b5f604051808303815f87803b158015611734575f5ffd5b505af1158015611746573d5f5f3e3d5ffd5b505050505050565b60405163a0169ddd60e01b81526001600160a01b037f0000000000000000000000000000000000000000000000000000000000000000169063a0169ddd9061101c908490600401612325565b6065546001600160a01b03163314610ad657604051638e79fdb560e01b815260040160405180910390fd5b5f5b8181101561192e575f805b8484848181106117e4576117e4612ba0565b90506020028101906117f69190612d18565b611804906040810190612d36565b905081101561186e5784848481811061181f5761181f612ba0565b90506020028101906118319190612d18565b61183f906040810190612d36565b8281811061184f5761184f612ba0565b90506040020160200135826118649190612d7b565b91506001016117d2565b506118bb33308387878781811061188757611887612ba0565b90506020028101906118999190612d18565b6118aa9060408101906020016120b0565b6001600160a01b0316929190611e5d565b6119257f0000000000000000000000000000000000000000000000000000000000000000828686868181106118f2576118f2612ba0565b90506020028101906119049190612d18565b6119159060408101906020016120b0565b6001600160a01b03169190611ec4565b506001016117c7565b50604051634e5cd2fd60e11b81526001600160a01b037f00000000000000000000000000000000000000000000000000000000000000001690639cb9a5fa9061171d90309086908690600401612e36565b6040516351b27a6d60e11b81526001600160a01b037f0000000000000000000000000000000000000000000000000000000000000000169063a364f4da9061101c908490600401612325565b60405163a98fb35560e01b81526001600160a01b037f0000000000000000000000000000000000000000000000000000000000000000169063a98fb3559061101c9084906004016126a4565b60605f7f00000000000000000000000000000000000000000000000000000000000000006001600160a01b0316631703a0186040518163ffffffff1660e01b81526004015f60405180830381865afa158015611a75573d5f5f3e3d5ffd5b505050506040513d5f823e601f3d908101601f19168201604052611a9c9190810190612aa0565b90505f815f0151516001600160401b03811115611abb57611abb6121ab565b604051908082528060200260200182016040528015611ae4578160200160208202803683370190505b5090505f5b825151811015611b44578251805182908110611b0757611b07612ba0565b60200260200101515f0151828281518110611b2457611b24612ba0565b6001600160a01b0390921660209283029190910190910152600101611ae9565b5092915050565b5f54610100900460ff16611bb55760405162461bcd60e51b815260206004820152602b60248201527f496e697469616c697a61626c653a20636f6e7472616374206973206e6f74206960448201526a6e697469616c697a696e6760a81b60648201526084016105fe565b611bbe8261167e565b6103fb81611615565b5f5b81811015611c9a57611c223330858585818110611be857611be8612ba0565b9050602002810190611bfa9190612fa5565b60400135868686818110611c1057611c10612ba0565b90506020028101906118999190612fa5565b611c927f0000000000000000000000000000000000000000000000000000000000000000848484818110611c5857611c58612ba0565b9050602002810190611c6a9190612fa5565b60400135858585818110611c8057611c80612ba0565b90506020028101906119049190612fa5565b600101611bc9565b5060405163fce36c7d60e01b81526001600160a01b037f0000000000000000000000000000000000000000000000000000000000000000169063fce36c7d9061171d9085908590600401612fb9565b63ffffffff82165f908152609b6020526040812054905b8181101561160f5763ffffffff84165f908152609b60205260408120805483908110611d2e57611d2e612ba0565b5f9182526020808320909101546001600160a01b0316808352609f8252604080842063ffffffff8a168552909252908220805491935090611d6e9061281e565b80601f0160208091040260200160405190810160405280929190818152602001828054611d9a9061281e565b8015611de55780601f10611dbc57610100808354040283529160200191611de5565b820191905f5260205f20905b815481529060010190602001808311611dc857829003601f168201915b505050505090508480519060200120818051906020012003611e5357604051670de0b6b3a76400008082529063ffffffff8816906001600160a01b038516907f7bb03d9adf04498e7d816ba1da47b33f38c0fe782e8b2d92d767b5ef91b4ec159060200160405180910390a3505b5050600101611d00565b6040516001600160a01b03848116602483015283811660448301526064820183905261160f9186918216906323b872dd906084015b604051602081830303815290604052915060e01b6020820180516001600160e01b038381831617835250505050611f49565b604051636eb1769f60e11b81525f906001600160a01b0385169063dd62ed3e90611ef49030908790600401612a72565b602060405180830381865afa158015611f0f573d5f5f3e3d5ffd5b505050506040513d601f19601f82011682018060405250810190611f339190613099565b905061160f8484611f448585612d7b565b611fac565b5f5f60205f8451602086015f885af180611f68576040513d5f823e3d81fd5b50505f513d91508115611f7f578060011415611f8c565b6001600160a01b0384163b155b1561160f5783604051635274afe760e01b81526004016105fe9190612325565b5f836001600160a01b031663095ea7b38484604051602401611fcf9291906130b0565b604051602081830303815290604052915060e01b6020820180516001600160e01b0383818316178352505050509050612008848261203c565b61160f5761203284856001600160a01b031663095ea7b3865f604051602401611e929291906130b0565b61160f8482611f49565b5f5f5f5f60205f8651602088015f8a5af192503d91505f51905082801561207b5750811561206d578060011461207b565b5f866001600160a01b03163b115b9695505050505050565b60408051808201909152606081525f602082015290565b6001600160a01b038116811461050c575f5ffd5b5f602082840312156120c0575f5ffd5b81356120cb8161209c565b9392505050565b6001600160e01b03198116811461050c575f5ffd5b5f5f5f606084860312156120f9575f5ffd5b83356121048161209c565b925060208401356121148161209c565b91506040840135612124816120d2565b809150509250925092565b803563ffffffff81168114612142575f5ffd5b919050565b5f60208284031215612157575f5ffd5b6120cb8261212f565b602080825282518282018190525f918401906040840190835b818110156121a05783516001600160a01b0316835260209384019390920191600101612179565b509095945050505050565b634e487b7160e01b5f52604160045260245ffd5b604051602081016001600160401b03811182821017156121e1576121e16121ab565b60405290565b604080519081016001600160401b03811182821017156121e1576121e16121ab565b604051601f8201601f191681016001600160401b0381118282101715612231576122316121ab565b604052919050565b5f806001600160401b03841115612252576122526121ab565b50601f8301601f191660200161226781612209565b91505082815283838301111561227b575f5ffd5b828260208301375f602084830101529392505050565b5f82601f8301126122a0575f5ffd5b6120cb83833560208501612239565b5f5f5f606084860312156122c1575f5ffd5b83356001600160401b038111156122d6575f5ffd5b8401604081870312156122e7575f5ffd5b92506122f56020850161212f565b915060408401356001600160401b0381111561230f575f5ffd5b61231b86828701612291565b9150509250925092565b6001600160a01b0391909116815260200190565b5f60208284031215612349575f5ffd5b81356001600160401b0381111561235e575f5ffd5b8201601f8101841361236e575f5ffd5b61237d84823560208401612239565b949350505050565b5f81518084528060208401602086015e5f602082860101526020601f19601f83011685010191505092915050565b602081525f8251604060208401526123ce6060840182612385565b905063ffffffff60208501511660408401528091505092915050565b604081525f6123fc6040830185612385565b905082151560208301529392505050565b5f5f6040838503121561241e575f5ffd5b82356124298161209c565b915060208301356001600160401b03811115612443575f5ffd5b830160608186031215612454575f5ffd5b604051606081016001600160401b0381118282101715612476576124766121ab565b60405281356001600160401b0381111561248e575f5ffd5b61249a87828501612291565b8252506020828101359082015260409182013591810191909152919491935090915050565b5f5f83601f8401126124cf575f5ffd5b5081356001600160401b038111156124e5575f5ffd5b6020830191508360208260051b85010111156124ff575f5ffd5b9250929050565b5f5f60208385031215612517575f5ffd5b82356001600160401b0381111561252c575f5ffd5b612538858286016124bf565b90969095509350505050565b5f5f60408385031215612555575f5ffd5b50508035926020909101359150565b634e487b7160e01b5f52602160045260245ffd5b602081016003831061259857634e487b7160e01b5f52602160045260245ffd5b91905290565b5f6001600160401b038211156125b6576125b66121ab565b5060051b60200190565b5f5f604083850312156125d1575f5ffd5b82356125dc8161209c565b915060208301356001600160401b038111156125f6575f5ffd5b8301601f81018513612606575f5ffd5b80356126196126148261259e565b612209565b8082825260208201915060208360051b85010192508783111561263a575f5ffd5b6020840193505b82841015612663576126528461212f565b825260209384019390910190612641565b809450505050509250929050565b5f5f60408385031215612682575f5ffd5b823561268d8161209c565b915061269b6020840161212f565b90509250929050565b602081525f6120cb6020830184612385565b5f5f604083850312156126c7575f5ffd5b6126d08361212f565b915060208301356001600160401b038111156126ea575f5ffd5b6126f685828601612291565b9150509250929050565b5f5f5f5f60808587031215612713575f5ffd5b843561271e8161209c565b9350602085013561272e8161209c565b93969395505050506040820135916060013590565b5f60208284031215612753575f5ffd5b815180151581146120cb575f5ffd5b5f5f8335601e19843603018112612777575f5ffd5b83016020810192503590506001600160401b03811115612795575f5ffd5b8036038213156124ff575f5ffd5b81835281816020850137505f828201602090810191909152601f909101601f19169091010190565b5f6127d68283612762565b604085526127e86040860182846127a3565b91505063ffffffff6127fc6020850161212f565b1660208501528091505092915050565b602081525f6120cb60208301846127cb565b600181811c9082168061283257607f821691505b60208210810361285057634e487b7160e01b5f52602260045260245ffd5b50919050565b5f5f8335601e1984360301811261286b575f5ffd5b8301803591506001600160401b03821115612884575f5ffd5b6020019150368190038213156124ff575f5ffd5b6602432b6363796160cd1b8152818360078301375f9101600701908152919050565b828152604060208201525f61237d6040830184612385565b5f602082840312156128e2575f5ffd5b81516120cb816120d2565b601f82111561051757805f5260205f20601f840160051c810160208510156129125750805b601f840160051c820191505b81811015610fbf575f815560010161291e565b81516001600160401b0381111561294a5761294a6121ab565b61295e81612958845461281e565b846128ed565b6020601f821160018114612990575f83156129795750848201515b5f19600385901b1c1916600184901b178455610fbf565b5f84815260208120601f198516915b828110156129bf578785015182556020948501946001909201910161299f565b50848210156129dc57868401515f19600387901b60f8161c191681555b50505050600190811b01905550565b5f82518060208501845e5f920191825250919050565b634e487b7160e01b5f52601160045260245ffd5b5f60018201612a2657612a26612a01565b5060010190565b604081525f612a3f60408301856127cb565b905060018060a01b03831660208301529392505050565b63ffffffff818116838216019081111561052757610527612a01565b6001600160a01b0392831681529116602082015260400190565b6001600160601b038116811461050c575f5ffd5b5f60208284031215612ab0575f5ffd5b81516001600160401b03811115612ac5575f5ffd5b820160208185031215612ad6575f5ffd5b612ade6121bf565b81516001600160401b03811115612af3575f5ffd5b80830192505084601f830112612b07575f5ffd5b8151612b156126148261259e565b8082825260208201915060208360061b860101925087831115612b36575f5ffd5b6020850194505b82851015612b935760408589031215612b54575f5ffd5b612b5c6121e7565b8551612b678161209c565b81526020860151612b7781612a8c565b8060208301525080835250602082019150604085019450612b3d565b8352509095945050505050565b634e487b7160e01b5f52603260045260245ffd5b6001600160a01b03831681526040602080830182905283519183018290525f91908401906060840190835b81811015612c065783516001600160a01b0316835260209384019390920191600101612bdf565b50909695505050505050565b5f60208284031215612c22575f5ffd5b81516001600160401b03811115612c37575f5ffd5b8201601f81018413612c47575f5ffd5b8051612c556126148261259e565b8082825260208201915060208360051b850101925086831115612c76575f5ffd5b6020840193505b8284101561207b578351825260209384019390910190612c7d565b808202811582820484141761052757610527612a01565b5f82612cc957634e487b7160e01b5f52601260045260245ffd5b500490565b60018060a01b0383168152604060208201525f825160606040840152612cf760a0840182612385565b90506020840151606084015260408401516080840152809150509392505050565b5f823560be19833603018112612d2c575f5ffd5b9190910192915050565b5f5f8335601e19843603018112612d4b575f5ffd5b8301803591506001600160401b03821115612d64575f5ffd5b6020019150600681901b36038213156124ff575f5ffd5b8082018082111561052757610527612a01565b5f5f8335601e19843603018112612da3575f5ffd5b83016020810192503590506001600160401b03811115612dc1575f5ffd5b8060061b36038213156124ff575f5ffd5b8183526020830192505f815f5b84811015612e2c578135612df28161209c565b6001600160a01b031686526020820135612e0b81612a8c565b6001600160601b031660208701526040958601959190910190600101612ddf565b5093949350505050565b6001600160a01b038416815260406020820181905281018290525f6060600584901b83018101908301858360be1936839003015b87821015612f9757868503605f190184528235818112612e88575f5ffd5b8901612e948180612d8e565b60c08852612ea660c089018284612dd2565b9150506020820135612eb78161209c565b6001600160a01b03166020880152612ed26040830183612d8e565b88830360408a015280835290915f91906020015b81831015612f21578335612ef98161209c565b6001600160a01b03168152602084810135908201526040938401936001939093019201612ee6565b612f2d6060860161212f565b63ffffffff811660608c01529350612f476080860161212f565b63ffffffff811660808c01529350612f6260a0860186612762565b9550935089810360a08b0152612f798186866127a3565b99505050505050602083019250602084019350600182019150612e6a565b509298975050505050505050565b5f8235609e19833603018112612d2c575f5ffd5b602080825281018290525f6040600584901b830181019083018583609e1936839003015b8782101561308c57868503603f190184528235818112612ffb575f5ffd5b89016130078180612d8e565b60a0885261301960a089018284612dd2565b915050602082013561302a8161209c565b6001600160a01b031660208801526040828101359088015263ffffffff6130536060840161212f565b16606088015263ffffffff61306a6080840161212f565b1660808801528096505050602083019250602084019350600182019150612fdd565b5092979650505050505050565b5f602082840312156130a9575f5ffd5b5051919050565b6001600160a01b0392909216825260208201526040019056fea26469706673582212207cc9f32b898565ac6f1f037bf72a04318fcfb9cfe614fa623d2fb19623321bdb64736f6c634300081b0033","linkReferences":{}},"methodIdentifiers":{"addPendingAdmin(address)":"279432eb","allTaskHashes(uint32)":"2d89f6fc","allTaskResponses(address,uint32)":"c20bab7f","allocationManager()":"ca8aa7c7","avsDirectory()":"6b3aa72e","consensusResult(uint32)":"e7f26658","consensusThreshold()":"f9b0b5b9","createAVSRewardsSubmission(((address,uint96)[],address,uint256,uint32,uint32)[])":"fce36c7d","createNewTask(string)":"85edf874","createOperatorDirectedAVSRewardsSubmission(((address,uint96)[],address,(address,uint256)[],uint32,uint32,string)[])":"a20b99bf","deregisterOperatorFromAVS(address)":"a364f4da","deregisterOperatorFromOperatorSets(address,uint32[])":"c1a8e2c5","getConsensusResult(uint32)":"86e6ddcc","getOperatorRestakedStrategies(address)":"33cfb7b7","getRestakeableStrategies()":"e481af9d","initialize(address,address,uint256,uint256)":"eb990c59","latestTaskNum()":"8b00ce7c","minimumResponses()":"54bcd7ff","owner()":"8da5cb5b","registerOperatorToAVS(address,(bytes,bytes32,uint256))":"9926ee7d","removeAdmin(address)":"1785f53c","removeAppointee(address,address,bytes4)":"ba550880","removePendingAdmin(address)":"9da16d8e","renounceOwnership()":"715018a6","respondToTask((string,uint32),uint32,bytes)":"3415a49c","responseVotes(uint32,bytes)":"d0e1f258","rewardsInitiator()":"fc299dee","setAVSRegistrar(address)":"f25f1610","setAppointee(address,address,bytes4)":"1fdb0cfd","setClaimerFor(address)":"a0169ddd","setRewardsInitiator(address)":"3bc28c8c","stakeRegistry()":"68304835","taskRespondents(uint32)":"5b09fce1","taskStatus(uint32)":"acbe1036","transferOwnership(address)":"f2fde38b","updateAVSMetadataURI(string)":"a98fb355","updateConsensusParameters(uint256,uint256)":"a65feaf0"},"id":54}