{"abi":[{"type":"constructor","inputs":[{"name":"_agentRegistry","type":"address","internalType":"address"}],"stateMutability":"nonpayable"},{"type":"function","name":"NO_HASH","inputs":[],"outputs":[{"name":"","type":"bytes32","internalType":"bytes32"}],"stateMutability":"view"},{"type":"function","name":"YES_HASH","inputs":[],"outputs":[{"name":"","type":"bytes32","internalType":"bytes32"}],"stateMutability":"view"},{"type":"function","name":"addTestOperator","inputs":[{"name":"operator","type":"address","internalType":"address"}],"outputs":[],"stateMutability":"nonpayable"},{"type":"function","name":"agentRegistry","inputs":[],"outputs":[{"name":"","type":"address","internalType":"contract IAIAgentRegistry"}],"stateMutability":"view"},{"type":"function","name":"allTaskHashes","inputs":[{"name":"","type":"uint32","internalType":"uint32"}],"outputs":[{"name":"","type":"bytes32","internalType":"bytes32"}],"stateMutability":"view"},{"type":"function","name":"allTaskResponseHashes","inputs":[{"name":"","type":"address","internalType":"address"},{"name":"","type":"uint32","internalType":"uint32"}],"outputs":[{"name":"","type":"bytes32","internalType":"bytes32"}],"stateMutability":"view"},{"type":"function","name":"allTaskResponses","inputs":[{"name":"operator","type":"address","internalType":"address"},{"name":"taskIndex","type":"uint32","internalType":"uint32"}],"outputs":[{"name":"","type":"bytes","internalType":"bytes"}],"stateMutability":"view"},{"type":"function","name":"consensusResultHash","inputs":[{"name":"taskIndex","type":"uint32","internalType":"uint32"}],"outputs":[{"name":"","type":"bytes32","internalType":"bytes32"}],"stateMutability":"view"},{"type":"function","name":"consensusThreshold","inputs":[],"outputs":[{"name":"","type":"uint256","internalType":"uint256"}],"stateMutability":"view"},{"type":"function","name":"createMarketResolutionTask","inputs":[{"name":"name","type":"string","internalType":"string"},{"name":"marketId","type":"bytes32","internalType":"bytes32"},{"name":"hookAddress","type":"address","internalType":"address"}],"outputs":[{"name":"taskIndex","type":"uint32","internalType":"uint32"}],"stateMutability":"nonpayable"},{"type":"function","name":"createNewTask","inputs":[{"name":"name","type":"string","internalType":"string"}],"outputs":[{"name":"","type":"tuple","internalType":"struct IAIOracleServiceManager.Task","components":[{"name":"name","type":"string","internalType":"string"},{"name":"taskCreatedBlock","type":"uint32","internalType":"uint32"}]}],"stateMutability":"nonpayable"},{"type":"function","name":"distributeRewards","inputs":[{"name":"taskIndex","type":"uint32","internalType":"uint32"}],"outputs":[],"stateMutability":"nonpayable"},{"type":"function","name":"getConsensusResult","inputs":[{"name":"taskIndex","type":"uint32","internalType":"uint32"}],"outputs":[{"name":"result","type":"bytes","internalType":"bytes"},{"name":"isResolved","type":"bool","internalType":"bool"}],"stateMutability":"view"},{"type":"function","name":"getHookAddressForTask","inputs":[{"name":"taskIndex","type":"uint32","internalType":"uint32"}],"outputs":[{"name":"","type":"address","internalType":"address"}],"stateMutability":"view"},{"type":"function","name":"getMarketIdForTask","inputs":[{"name":"taskIndex","type":"uint32","internalType":"uint32"}],"outputs":[{"name":"","type":"bytes32","internalType":"bytes32"}],"stateMutability":"view"},{"type":"function","name":"hasResponded","inputs":[{"name":"","type":"uint32","internalType":"uint32"},{"name":"","type":"address","internalType":"address"}],"outputs":[{"name":"","type":"bool","internalType":"bool"}],"stateMutability":"view"},{"type":"function","name":"initialize","inputs":[{"name":"initialOwner","type":"address","internalType":"address"},{"name":"_minimumResponses","type":"uint256","internalType":"uint256"},{"name":"_consensusThreshold","type":"uint256","internalType":"uint256"},{"name":"_predictionMarketHook","type":"address","internalType":"address"}],"outputs":[],"stateMutability":"nonpayable"},{"type":"function","name":"isAuthorizedOperator","inputs":[{"name":"","type":"address","internalType":"address"}],"outputs":[{"name":"","type":"bool","internalType":"bool"}],"stateMutability":"view"},{"type":"function","name":"latestTaskNum","inputs":[],"outputs":[{"name":"","type":"uint32","internalType":"uint32"}],"stateMutability":"view"},{"type":"function","name":"minimumResponses","inputs":[],"outputs":[{"name":"","type":"uint256","internalType":"uint256"}],"stateMutability":"view"},{"type":"function","name":"owner","inputs":[],"outputs":[{"name":"","type":"address","internalType":"address"}],"stateMutability":"view"},{"type":"function","name":"predictionMarketHook","inputs":[],"outputs":[{"name":"","type":"address","internalType":"address"}],"stateMutability":"view"},{"type":"function","name":"renounceOwnership","inputs":[],"outputs":[],"stateMutability":"nonpayable"},{"type":"function","name":"respondToTask","inputs":[{"name":"referenceTaskIndex","type":"uint32","internalType":"uint32"},{"name":"signature","type":"bytes","internalType":"bytes"}],"outputs":[],"stateMutability":"nonpayable"},{"type":"function","name":"responseVotes","inputs":[{"name":"","type":"uint32","internalType":"uint32"},{"name":"","type":"bytes32","internalType":"bytes32"}],"outputs":[{"name":"","type":"uint256","internalType":"uint256"}],"stateMutability":"view"},{"type":"function","name":"taskConsensusResultHash","inputs":[{"name":"","type":"uint32","internalType":"uint32"}],"outputs":[{"name":"","type":"bytes32","internalType":"bytes32"}],"stateMutability":"view"},{"type":"function","name":"taskRespondents","inputs":[{"name":"taskIndex","type":"uint32","internalType":"uint32"}],"outputs":[{"name":"","type":"address[]","internalType":"address[]"}],"stateMutability":"view"},{"type":"function","name":"taskStatus","inputs":[{"name":"taskIndex","type":"uint32","internalType":"uint32"}],"outputs":[{"name":"","type":"uint8","internalType":"enum IAIOracleServiceManager.TaskStatus"}],"stateMutability":"view"},{"type":"function","name":"taskToHookAddress","inputs":[{"name":"","type":"uint32","internalType":"uint32"}],"outputs":[{"name":"","type":"address","internalType":"address"}],"stateMutability":"view"},{"type":"function","name":"taskToMarketId","inputs":[{"name":"","type":"uint32","internalType":"uint32"}],"outputs":[{"name":"","type":"bytes32","internalType":"bytes32"}],"stateMutability":"view"},{"type":"function","name":"testOperators","inputs":[{"name":"","type":"address","internalType":"address"}],"outputs":[{"name":"","type":"bool","internalType":"bool"}],"stateMutability":"view"},{"type":"function","name":"transferOwnership","inputs":[{"name":"newOwner","type":"address","internalType":"address"}],"outputs":[],"stateMutability":"nonpayable"},{"type":"function","name":"updateConsensusParameters","inputs":[{"name":"_minimumResponses","type":"uint256","internalType":"uint256"},{"name":"_consensusThreshold","type":"uint256","internalType":"uint256"}],"outputs":[],"stateMutability":"nonpayable"},{"type":"event","name":"AgentRewarded","inputs":[{"name":"agent","type":"address","indexed":true,"internalType":"address"},{"name":"taskIndex","type":"uint32","indexed":true,"internalType":"uint32"},{"name":"rewardAmount","type":"uint256","indexed":false,"internalType":"uint256"}],"anonymous":false},{"type":"event","name":"ConsensusReached","inputs":[{"name":"taskIndex","type":"uint32","indexed":true,"internalType":"uint32"},{"name":"consensusResult","type":"bytes","indexed":false,"internalType":"bytes"}],"anonymous":false},{"type":"event","name":"Initialized","inputs":[{"name":"version","type":"uint64","indexed":false,"internalType":"uint64"}],"anonymous":false},{"type":"event","name":"MarketResolutionFailed","inputs":[{"name":"taskIndex","type":"uint32","indexed":true,"internalType":"uint32"},{"name":"marketId","type":"bytes32","indexed":true,"internalType":"bytes32"},{"name":"reason","type":"string","indexed":false,"internalType":"string"}],"anonymous":false},{"type":"event","name":"MarketResolvedByOracle","inputs":[{"name":"taskIndex","type":"uint32","indexed":true,"internalType":"uint32"},{"name":"marketId","type":"bytes32","indexed":true,"internalType":"bytes32"},{"name":"outcome","type":"bool","indexed":false,"internalType":"bool"}],"anonymous":false},{"type":"event","name":"NewTaskCreated","inputs":[{"name":"taskIndex","type":"uint32","indexed":true,"internalType":"uint32"},{"name":"task","type":"tuple","indexed":false,"internalType":"struct IAIOracleServiceManager.Task","components":[{"name":"name","type":"string","internalType":"string"},{"name":"taskCreatedBlock","type":"uint32","internalType":"uint32"}]}],"anonymous":false},{"type":"event","name":"OwnershipTransferred","inputs":[{"name":"previousOwner","type":"address","indexed":true,"internalType":"address"},{"name":"newOwner","type":"address","indexed":true,"internalType":"address"}],"anonymous":false},{"type":"event","name":"TaskResponded","inputs":[{"name":"taskIndex","type":"uint32","indexed":true,"internalType":"uint32"},{"name":"task","type":"tuple","indexed":false,"internalType":"struct IAIOracleServiceManager.Task","components":[{"name":"name","type":"string","internalType":"string"},{"name":"taskCreatedBlock","type":"uint32","internalType":"uint32"}]},{"name":"operator","type":"address","indexed":false,"internalType":"address"}],"anonymous":false},{"type":"error","name":"InvalidInitialization","inputs":[]},{"type":"error","name":"NotInitializing","inputs":[]},{"type":"error","name":"OwnableInvalidOwner","inputs":[{"name":"owner","type":"address","internalType":"address"}]},{"type":"error","name":"OwnableUnauthorizedAccount","inputs":[{"name":"account","type":"address","internalType":"address"}]}],"bytecode":{"object":"0x60a03460b957601f611be638819003918201601f19168301916001600160401b0383118484101760bd5780849260209460405283398101031260b957516001600160a01b0381169081900360b9578015607457608052604051611b1490816100d28239608051818181610942015261153f0152f35b60405162461bcd60e51b815260206004820152601e60248201527f496e76616c6964206167656e74207265676973747279206164647265737300006044820152606490fd5b5f80fd5b634e487b7160e01b5f52604160045260245ffdfe6080806040526004361015610012575f80fd5b5f3560e01c9081630d1cfcae1461152d57508063112e4db4146114ec57806312a2d26014610ba45780631e6d32b51461148c5780632c97bd8a146112c35780632d89f6fc146114575780633a2215681461141a5780633f455a5d146114005780634975400f146113d857806354bcd7ff146113bb5780635b09fce1146112f85780635eb046fa146112c35780636745df4d14610a715780636f66f2b914611111578063715018a6146110aa57806373c98ec41461108857806382d52c1e1461104b57806385edf87414610f2e57806386e6ddcc14610ec15780638b00ce7c14610e9f5780638da5cb5b14610e6b5780639e3d87cd14610c9b578063a65feaf014610c66578063ab7eb25b14610c22578063acbe103614610be1578063b2640c9a14610ba4578063c20bab7f14610aa6578063cba32ecf14610a71578063d43b77bc14610a21578063eeed7056146103b5578063f2d252d6146101d3578063f2fde38b146101a85763f9b0b5b914610187575f80fd5b346101a4575f3660031901126101a4576020600254604051908152f35b5f80fd5b346101a45760203660031901126101a4576101d16101c4611594565b6101cc611818565b6117a7565b005b346101a45760203660031901126101a45763ffffffff6101f161156e565b16805f52600360205260ff60405f20541660038110156103a15760020361036857805f52600660205260405f205490811561032d57805f52600460205260405f205490805f52600460205260405f2092604051808560208297549384815201905f5260205f20925f5b81811061030b57505061026f925003856115aa565b5f5b83811061027a57005b84518110156102f75760019083828060a01b0360208360051b8901015116805f52600960205260405f20825f526020528460405f2054146102be575b505001610271565b7f7bb03d9adf04498e7d816ba1da47b33f38c0fe782e8b2d92d767b5ef91b4ec156020604051670de0b6b3a76400008152a383876102b6565b634e487b7160e01b5f52603260045260245ffd5b84546001600160a01b031683526001948501948994506020909301920161025a565b60405162461bcd60e51b8152602060048201526013602482015272139bc818dbdb9cd95b9cdd5cc81c995cdd5b1d606a1b6044820152606490fd5b60405162461bcd60e51b815260206004820152601160248201527015185cdac81b9bdd081c995cdbdb1d9959607a1b6044820152606490fd5b634e487b7160e01b5f52602160045260245ffd5b346101a45760403660031901126101a4576103ce61156e565b6024359067ffffffffffffffff82116101a457366023830112156101a457816004013567ffffffffffffffff81116101a45736602482850101116101a45760018054141580610a0a575b610927575b63ffffffff821692835f52600860205260405f2054156108ec575f84815260076020908152604080832033845290915290205460ff166108a757835f52600360205260ff60405f20541660038110156103a1576002146108625761048536836024840161160a565b6020815191012091845f52600d60205260405f20546107e9575b5f85815260076020908152604080832033808552908352818420805460ff191660011790556009835281842089855283528184208790558352600a825280832088845290915290208054909282916104f690611759565b601f81116107ae575b505f90601f8311600114610741575f92610733575b50508160011b915f199060031b1c19161790555b825f52600460205260405f208054906801000000000000000082101561071f57600182018082558210156102f7575f5260205f2001336001600160601b0360a01b825416179055825f52600360205260ff60405f20541660038110156103a15715610703575b825f52600560205260405f20815f5260205260405f2080545f1981146106ef576001019055825f52600460205260405f2054600154811015610686575b505050807f8eb2d2fcccf5801e10ff58cd73e8781ba923122963789378771f03c1148b023e61061b6105fb6116cb565b63ffffffff431660208201526040519182916040835260408301906116a5565b3360208301520390a2335f52600a60205260405f20905f5260205260405f206106448154611759565b908161064c57005b81601f5f931160011461065d575055005b8183526020832061067991601f0160051c810190600101611791565b8082528160208120915555005b835f52600560205260405f20825f5260205260405f20549061271082029180830461271014901517156106ef5780156106db57600254910410156106cb575b806105cb565b6106d49161184b565b81806106c5565b634e487b7160e01b5f52601260045260245ffd5b634e487b7160e01b5f52601160045260245ffd5b825f52600360205260405f20600160ff1982541617905561058e565b634e487b7160e01b5f52604160045260245ffd5b602492500101358680610514565b909150601f19831691845f5260205f20925f5b8181106107935750908460019594939210610777575b505050811b019055610528565b01602401355f19600384901b60f8161c1916905586808061076a565b91936020600181926024888801013581550195019201610754565b6107d990855f5260205f20601f850160051c810191602086106107df575b601f0160051c0190611791565b876104ff565b90915081906107cc565b6107f161165e565b83148015610852575b61049f5760405162461bcd60e51b815260206004820152602660248201527f496e76616c696420726573706f6e736520666f72206d61726b6574207265736f604482015265363aba34b7b760d11b6064820152608490fd5b5061085b6115e8565b83146107fa565b60405162461bcd60e51b815260206004820152601e60248201527f5461736b2068617320616c7265616479206265656e207265736f6c76656400006044820152606490fd5b60405162461bcd60e51b815260206004820152601960248201527f416c726561647920726573706f6e64656420746f207461736b000000000000006044820152606490fd5b60405162461bcd60e51b81526020600482015260136024820152721d185cdac8191bd95cc81b9bdd08195e1a5cdd606a1b6044820152606490fd5b60405163c3c5a54760e01b81523360048201526020816024817f00000000000000000000000000000000000000000000000000000000000000006001600160a01b03165afa9081156109ff575f916109c4575b5061041d5760405162461bcd60e51b815260206004820152601d60248201527f4167656e7420636f6e7472616374206e6f7420726567697374657265640000006044820152606490fd5b90506020813d6020116109f7575b816109df602093836115aa565b810103126101a4575180151581036101a4578461097a565b3d91506109d2565b6040513d5f823e3d90fd5b50335f52600c60205260ff60405f20541615610418565b346101a45760403660031901126101a457610a3a611594565b610a42611581565b9060018060a01b03165f52600960205263ffffffff60405f2091165f52602052602060405f2054604051908152f35b346101a45760203660031901126101a45763ffffffff610a8f61156e565b165f526006602052602060405f2054604051908152f35b346101a45760403660031901126101a457610abf611594565b610ac7611581565b9060018060a01b03165f52600a60205263ffffffff60405f2091165f5260205260405f20604051905f90805490610afd82611759565b8085529160018116908115610b7d5750600114610b3d575b610b3984610b25818603826115aa565b604051918291602083526020830190611681565b0390f35b5f90815260208120939250905b808210610b6357509091508101602001610b2582610b15565b919260018160209254838588010152019101909291610b4a565b60ff191660208087019190915292151560051b85019092019250610b259150839050610b15565b346101a45760203660031901126101a45763ffffffff610bc261156e565b165f52600e602052602060018060a01b0360405f205416604051908152f35b346101a45760203660031901126101a45763ffffffff610bff61156e565b165f52600360205260ff60405f20541660405160038210156103a1576020918152f35b346101a45760203660031901126101a457610c3b611594565b610c43611818565b6001600160a01b03165f908152600c60205260409020805460ff19166001179055005b346101a45760403660031901126101a457602435610c82611818565b610c9061271082111561170d565b600435600155600255005b346101a45760803660031901126101a457610cb4611594565b604435906064356001600160a01b03811691908290036101a4575f80516020611af4833981519152549060ff8260401c16159367ffffffffffffffff831680159081610e63575b6001149081610e59575b159081610e50575b50610e4157610d5261271092610d639487600167ffffffffffffffff198316175f80516020611af483398151915255610e15575b50610d4a611aa8565b6101cc611aa8565b60243560015580600255111561170d565b8015610dd9576001600160601b0360a01b600f541617600f55610d8257005b68ff0000000000000000195f80516020611af483398151915254165f80516020611af4833981519152557fc7f505b2f371ae2175ee4913f4499e1f2633a7b5936321eed1cdaeb6115181d2602060405160018152a1005b60405162461bcd60e51b8152602060048201526014602482015273496e76616c696420686f6f6b206164647265737360601b6044820152606490fd5b68ffffffffffffffffff191668010000000000000001175f80516020611af48339815191525587610d41565b63f92ee8a960e01b5f5260045ffd5b90501586610d0d565b303b159150610d05565b869150610cfb565b346101a4575f3660031901126101a4575f80516020611ad4833981519152546040516001600160a01b039091168152602090f35b346101a4575f3660031901126101a457602063ffffffff5f5416604051908152f35b346101a45760203660031901126101a45763ffffffff610edf61156e565b165f52600360205260ff60405f20541660038110156103a157604051610f2391610f0a6020836115aa565b5f82526002604051938493604085526040850190611681565b911460208301520390f35b346101a45760203660031901126101a45760043567ffffffffffffffff81116101a457610f62610b39913690600401611640565b610f6a6116cb565b50610f736116cb565b90815263ffffffff43166020820152604051602081019060208252610fad81610f9f60408201866116a5565b03601f1981018352826115aa565b51902063ffffffff5f54165f52600860205260405f205563ffffffff5f54165f52600360205260405f2060ff1981541690555f5463ffffffff61102b818316807f58180a6a0403a63c2b5ce4b85d129d46a80d37851b2216bd0a98b59e7309b8476040516020815280611023602082018a6116a5565b0390a26116f5565b169063ffffffff1916175f556040519182916020835260208301906116a5565b346101a45760203660031901126101a4576001600160a01b0361106c611594565b165f52600b602052602060ff60405f2054166040519015158152f35b346101a4575f3660031901126101a45760206110a261165e565b604051908152f35b346101a4575f3660031901126101a4576110c2611818565b5f80516020611ad483398151915280546001600160a01b031981169091555f906001600160a01b03167f8be0079c531659141344cd1fd0a4f28419497f9722a3daafe3b4186f6b6457e08280a3005b346101a45760603660031901126101a45760043567ffffffffffffffff81116101a457611142903690600401611640565b6044356001600160a01b03811690602435908290036101a457801561128b578115611250577f58180a6a0403a63c2b5ce4b85d129d46a80d37851b2216bd0a98b59e7309b84761122760209463ffffffff5f54169485946111a16116cb565b92835263ffffffff431688840152604051888101908982526111ca81610f9f60408201886116a5565b519020865f526008895260405f2055855f526003885260405f2060ff198154169055855f52600d885260405f2055845f52600e875260405f20906001600160601b0360a01b825416179055604051918291878352878301906116a5565b0390a25f5463ffffffff61123c8183166116f5565b169063ffffffff1916175f55604051908152f35b60405162461bcd60e51b8152602060048201526013602482015272496e76616c696420686f6f6b4164647265737360681b6044820152606490fd5b60405162461bcd60e51b815260206004820152601060248201526f125b9d985b1a59081b585c9ad95d125960821b6044820152606490fd5b346101a45760203660031901126101a45763ffffffff6112e161156e565b165f52600d602052602060405f2054604051908152f35b346101a45760203660031901126101a45763ffffffff61131661156e565b165f52600460205260405f20604051806020835491828152019081935f5260205f20905f5b81811061139c57505050816113519103826115aa565b604051918291602083019060208452518091526040830191905f5b81811061137a575050500390f35b82516001600160a01b031684528594506020938401939092019160010161136c565b82546001600160a01b031684526020909301926001928301920161133b565b346101a4575f3660031901126101a4576020600154604051908152f35b346101a4575f3660031901126101a457600f546040516001600160a01b039091168152602090f35b346101a4575f3660031901126101a45760206110a26115e8565b346101a45760203660031901126101a4576001600160a01b0361143b611594565b165f52600c602052602060ff60405f2054166040519015158152f35b346101a45760203660031901126101a45763ffffffff61147561156e565b165f526008602052602060405f2054604051908152f35b346101a45760403660031901126101a4576114a561156e565b602435906001600160a01b03821682036101a45763ffffffff165f52600760205260405f209060018060a01b03165f52602052602060ff60405f2054166040519015158152f35b346101a45760403660031901126101a45763ffffffff61150a61156e565b165f52600560205260405f206024355f52602052602060405f2054604051908152f35b346101a4575f3660031901126101a4577f00000000000000000000000000000000000000000000000000000000000000006001600160a01b03168152602090f35b6004359063ffffffff821682036101a457565b6024359063ffffffff821682036101a457565b600435906001600160a01b03821682036101a457565b90601f8019910116810190811067ffffffffffffffff82111761071f57604052565b67ffffffffffffffff811161071f57601f01601f191660200190565b600260206040516115fa6040826115aa565b82815201614e4f60f01b81522090565b929192611616826115cc565b9161162460405193846115aa565b8294818452818301116101a4578281602093845f960137010152565b9080601f830112156101a45781602061165b9335910161160a565b90565b600360206040516116706040826115aa565b828152016259455360e81b81522090565b805180835260209291819084018484015e5f828201840152601f01601f1916010190565b90602063ffffffff816116c18551604086526040860190611681565b9401511691015290565b604051906040820182811067ffffffffffffffff82111761071f576040525f602083606081520152565b63ffffffff60019116019063ffffffff82116106ef57565b1561171457565b60405162461bcd60e51b815260206004820152601c60248201527f5468726573686f6c642063616e6e6f74206578636565642031303025000000006044820152606490fd5b90600182811c92168015611787575b602083101461177357565b634e487b7160e01b5f52602260045260245ffd5b91607f1691611768565b81811061179c575050565b5f8155600101611791565b6001600160a01b03168015611805575f80516020611ad483398151915280546001600160a01b0319811683179091556001600160a01b03167f8be0079c531659141344cd1fd0a4f28419497f9722a3daafe3b4186f6b6457e05f80a3565b631e4fbdf760e01b5f525f60045260245ffd5b5f80516020611ad4833981519152546001600160a01b0316330361183857565b63118cdaa760e01b5f523360045260245ffd5b63ffffffff5f911690815f52600360205260ff60405f20541660038110156103a157600214611aa357815f52600360205260405f20600260ff19825416179055815f5260066020528260405f2055817f717054e12d1c28eb8880f00b72660a874ddba5eaba5a5a9994011648f5acea6660408051602081525f6020820152a2815f52600d60205260405f205492825f52600e60205260018060a01b0360405f2054169084151580611a9a575b611903575b5050505050565b61190b61165e565b8103611a32575060015b813b156101a4575f8091604460405180948193631b27c4e560e21b83528a60048401521515968760248401525af19081611a1d575b506119eb57503d156119bf576119b17f88116d86d25548108551d72ebfe34eece2cf7d5984f830e6e7cebdc5d76265de913d611985816115cc565b9061199360405192836115aa565b8152809160203d92013e604051918291602083526020830190611681565b0390a35b5f808080806118fc565b507f88116d86d25548108551d72ebfe34eece2cf7d5984f830e6e7cebdc5d76265de6119b16060610b25565b7f246ccc0877cf9279be3ccd85934bb4c68faaade2ce5cfb35fe956982366d9cd69150602090604051908152a36119b5565b611a2a9193505f906115aa565b5f915f61194a565b611a3a6115e8565b03611a45575f611915565b50507f88116d86d25548108551d72ebfe34eece2cf7d5984f830e6e7cebdc5d76265de6060604051602081526016602082015275092dcecc2d8d2c840c6dedce6cadce6eae640d0c2e6d60531b6040820152a3565b508115156118f7565b505050565b60ff5f80516020611af48339815191525460401c1615611ac457565b631afcd79f60e31b5f5260045ffdfe9016d09d72d40fdae2fd8ceac6b6234c7706214fd39c1cd1e609a0528c199300f0c57e16840df040f15088dc2f81fe391c3923bec73e23a9662efc9c229c6a00","linkReferences":{}},"methodIdentifiers":{"NO_HASH()":"3f455a5d","YES_HASH()":"73c98ec4","addTestOperator(address)":"ab7eb25b","agentRegistry()":"0d1cfcae","allTaskHashes(uint32)":"2d89f6fc","allTaskResponseHashes(address,uint32)":"d43b77bc","allTaskResponses(address,uint32)":"c20bab7f","consensusResultHash(uint32)":"cba32ecf","consensusThreshold()":"f9b0b5b9","createMarketResolutionTask(string,bytes32,address)":"6f66f2b9","createNewTask(string)":"85edf874","distributeRewards(uint32)":"f2d252d6","getConsensusResult(uint32)":"86e6ddcc","getHookAddressForTask(uint32)":"12a2d260","getMarketIdForTask(uint32)":"2c97bd8a","hasResponded(uint32,address)":"1e6d32b5","initialize(address,uint256,uint256,address)":"9e3d87cd","isAuthorizedOperator(address)":"82d52c1e","latestTaskNum()":"8b00ce7c","minimumResponses()":"54bcd7ff","owner()":"8da5cb5b","predictionMarketHook()":"4975400f","renounceOwnership()":"715018a6","respondToTask(uint32,bytes)":"eeed7056","responseVotes(uint32,bytes32)":"112e4db4","taskConsensusResultHash(uint32)":"6745df4d","taskRespondents(uint32)":"5b09fce1","taskStatus(uint32)":"acbe1036","taskToHookAddress(uint32)":"b2640c9a","taskToMarketId(uint32)":"5eb046fa","testOperators(address)":"3a221568","transferOwnership(address)":"f2fde38b","updateConsensusParameters(uint256,uint256)":"a65feaf0"},"id":109}