{"abi":[{"type":"constructor","inputs":[{"name":"_avsDirectory","type":"address","internalType":"address"},{"name":"_stakeRegistry","type":"address","internalType":"address"},{"name":"_rewardsCoordinator","type":"address","internalType":"address"},{"name":"_delegationManager","type":"address","internalType":"address"},{"name":"_allocationManager","type":"address","internalType":"address"}],"stateMutability":"nonpayable"},{"type":"function","name":"addPendingAdmin","inputs":[{"name":"admin","type":"address","internalType":"address"}],"outputs":[],"stateMutability":"nonpayable"},{"type":"function","name":"allTaskHashes","inputs":[{"name":"","type":"uint32","internalType":"uint32"}],"outputs":[{"name":"","type":"bytes32","internalType":"bytes32"}],"stateMutability":"view"},{"type":"function","name":"allTaskResponses","inputs":[{"name":"","type":"address","internalType":"address"},{"name":"","type":"uint32","internalType":"uint32"}],"outputs":[{"name":"","type":"bytes","internalType":"bytes"}],"stateMutability":"view"},{"type":"function","name":"allocationManager","inputs":[],"outputs":[{"name":"","type":"address","internalType":"address"}],"stateMutability":"view"},{"type":"function","name":"avsDirectory","inputs":[],"outputs":[{"name":"","type":"address","internalType":"address"}],"stateMutability":"view"},{"type":"function","name":"consensusResult","inputs":[{"name":"","type":"uint32","internalType":"uint32"}],"outputs":[{"name":"","type":"bytes","internalType":"bytes"}],"stateMutability":"view"},{"type":"function","name":"consensusThreshold","inputs":[],"outputs":[{"name":"","type":"uint256","internalType":"uint256"}],"stateMutability":"view"},{"type":"function","name":"createAVSRewardsSubmission","inputs":[{"name":"rewardsSubmissions","type":"tuple[]","internalType":"struct IRewardsCoordinatorTypes.RewardsSubmission[]","components":[{"name":"strategiesAndMultipliers","type":"tuple[]","internalType":"struct IRewardsCoordinatorTypes.StrategyAndMultiplier[]","components":[{"name":"strategy","type":"address","internalType":"contract IStrategy"},{"name":"multiplier","type":"uint96","internalType":"uint96"}]},{"name":"token","type":"address","internalType":"contract IERC20"},{"name":"amount","type":"uint256","internalType":"uint256"},{"name":"startTimestamp","type":"uint32","internalType":"uint32"},{"name":"duration","type":"uint32","internalType":"uint32"}]}],"outputs":[],"stateMutability":"nonpayable"},{"type":"function","name":"createNewTask","inputs":[{"name":"name","type":"string","internalType":"string"}],"outputs":[{"name":"","type":"tuple","internalType":"struct IAIOracleServiceManager.Task","components":[{"name":"name","type":"string","internalType":"string"},{"name":"taskCreatedBlock","type":"uint32","internalType":"uint32"}]}],"stateMutability":"nonpayable"},{"type":"function","name":"createOperatorDirectedAVSRewardsSubmission","inputs":[{"name":"operatorDirectedRewardsSubmissions","type":"tuple[]","internalType":"struct IRewardsCoordinatorTypes.OperatorDirectedRewardsSubmission[]","components":[{"name":"strategiesAndMultipliers","type":"tuple[]","internalType":"struct IRewardsCoordinatorTypes.StrategyAndMultiplier[]","components":[{"name":"strategy","type":"address","internalType":"contract IStrategy"},{"name":"multiplier","type":"uint96","internalType":"uint96"}]},{"name":"token","type":"address","internalType":"contract IERC20"},{"name":"operatorRewards","type":"tuple[]","internalType":"struct IRewardsCoordinatorTypes.OperatorReward[]","components":[{"name":"operator","type":"address","internalType":"address"},{"name":"amount","type":"uint256","internalType":"uint256"}]},{"name":"startTimestamp","type":"uint32","internalType":"uint32"},{"name":"duration","type":"uint32","internalType":"uint32"},{"name":"description","type":"string","internalType":"string"}]}],"outputs":[],"stateMutability":"nonpayable"},{"type":"function","name":"deregisterOperatorFromAVS","inputs":[{"name":"operator","type":"address","internalType":"address"}],"outputs":[],"stateMutability":"nonpayable"},{"type":"function","name":"deregisterOperatorFromOperatorSets","inputs":[{"name":"operator","type":"address","internalType":"address"},{"name":"operatorSetIds","type":"uint32[]","internalType":"uint32[]"}],"outputs":[],"stateMutability":"nonpayable"},{"type":"function","name":"getConsensusResult","inputs":[{"name":"taskIndex","type":"uint32","internalType":"uint32"}],"outputs":[{"name":"result","type":"bytes","internalType":"bytes"},{"name":"isResolved","type":"bool","internalType":"bool"}],"stateMutability":"view"},{"type":"function","name":"getOperatorRestakedStrategies","inputs":[{"name":"_operator","type":"address","internalType":"address"}],"outputs":[{"name":"","type":"address[]","internalType":"address[]"}],"stateMutability":"view"},{"type":"function","name":"getRestakeableStrategies","inputs":[],"outputs":[{"name":"","type":"address[]","internalType":"address[]"}],"stateMutability":"view"},{"type":"function","name":"initialize","inputs":[{"name":"initialOwner","type":"address","internalType":"address"},{"name":"_rewardsInitiator","type":"address","internalType":"address"},{"name":"_minimumResponses","type":"uint256","internalType":"uint256"},{"name":"_consensusThreshold","type":"uint256","internalType":"uint256"}],"outputs":[],"stateMutability":"nonpayable"},{"type":"function","name":"latestTaskNum","inputs":[],"outputs":[{"name":"","type":"uint32","internalType":"uint32"}],"stateMutability":"view"},{"type":"function","name":"minimumResponses","inputs":[],"outputs":[{"name":"","type":"uint256","internalType":"uint256"}],"stateMutability":"view"},{"type":"function","name":"owner","inputs":[],"outputs":[{"name":"","type":"address","internalType":"address"}],"stateMutability":"view"},{"type":"function","name":"registerOperatorToAVS","inputs":[{"name":"operator","type":"address","internalType":"address"},{"name":"operatorSignature","type":"tuple","internalType":"struct ISignatureUtils.SignatureWithSaltAndExpiry","components":[{"name":"signature","type":"bytes","internalType":"bytes"},{"name":"salt","type":"bytes32","internalType":"bytes32"},{"name":"expiry","type":"uint256","internalType":"uint256"}]}],"outputs":[],"stateMutability":"nonpayable"},{"type":"function","name":"removeAdmin","inputs":[{"name":"admin","type":"address","internalType":"address"}],"outputs":[],"stateMutability":"nonpayable"},{"type":"function","name":"removeAppointee","inputs":[{"name":"appointee","type":"address","internalType":"address"},{"name":"target","type":"address","internalType":"address"},{"name":"selector","type":"bytes4","internalType":"bytes4"}],"outputs":[],"stateMutability":"nonpayable"},{"type":"function","name":"removePendingAdmin","inputs":[{"name":"pendingAdmin","type":"address","internalType":"address"}],"outputs":[],"stateMutability":"nonpayable"},{"type":"function","name":"renounceOwnership","inputs":[],"outputs":[],"stateMutability":"nonpayable"},{"type":"function","name":"respondToTask","inputs":[{"name":"task","type":"tuple","internalType":"struct IAIOracleServiceManager.Task","components":[{"name":"name","type":"string","internalType":"string"},{"name":"taskCreatedBlock","type":"uint32","internalType":"uint32"}]},{"name":"referenceTaskIndex","type":"uint32","internalType":"uint32"},{"name":"signature","type":"bytes","internalType":"bytes"}],"outputs":[],"stateMutability":"nonpayable"},{"type":"function","name":"responseVotes","inputs":[{"name":"","type":"uint32","internalType":"uint32"},{"name":"","type":"bytes","internalType":"bytes"}],"outputs":[{"name":"","type":"uint256","internalType":"uint256"}],"stateMutability":"view"},{"type":"function","name":"rewardsInitiator","inputs":[],"outputs":[{"name":"","type":"address","internalType":"address"}],"stateMutability":"view"},{"type":"function","name":"setAVSRegistrar","inputs":[{"name":"registrar","type":"address","internalType":"contract IAVSRegistrar"}],"outputs":[],"stateMutability":"nonpayable"},{"type":"function","name":"setAppointee","inputs":[{"name":"appointee","type":"address","internalType":"address"},{"name":"target","type":"address","internalType":"address"},{"name":"selector","type":"bytes4","internalType":"bytes4"}],"outputs":[],"stateMutability":"nonpayable"},{"type":"function","name":"setClaimerFor","inputs":[{"name":"claimer","type":"address","internalType":"address"}],"outputs":[],"stateMutability":"nonpayable"},{"type":"function","name":"setRewardsInitiator","inputs":[{"name":"newRewardsInitiator","type":"address","internalType":"address"}],"outputs":[],"stateMutability":"nonpayable"},{"type":"function","name":"stakeRegistry","inputs":[],"outputs":[{"name":"","type":"address","internalType":"address"}],"stateMutability":"view"},{"type":"function","name":"taskRespondents","inputs":[{"name":"taskIndex","type":"uint32","internalType":"uint32"}],"outputs":[{"name":"","type":"address[]","internalType":"address[]"}],"stateMutability":"view"},{"type":"function","name":"taskStatus","inputs":[{"name":"taskIndex","type":"uint32","internalType":"uint32"}],"outputs":[{"name":"","type":"uint8","internalType":"enum IAIOracleServiceManager.TaskStatus"}],"stateMutability":"view"},{"type":"function","name":"transferOwnership","inputs":[{"name":"newOwner","type":"address","internalType":"address"}],"outputs":[],"stateMutability":"nonpayable"},{"type":"function","name":"updateAVSMetadataURI","inputs":[{"name":"_metadataURI","type":"string","internalType":"string"}],"outputs":[],"stateMutability":"nonpayable"},{"type":"function","name":"updateConsensusParameters","inputs":[{"name":"_minimumResponses","type":"uint256","internalType":"uint256"},{"name":"_consensusThreshold","type":"uint256","internalType":"uint256"}],"outputs":[],"stateMutability":"nonpayable"},{"type":"event","name":"AgentRewarded","inputs":[{"name":"agent","type":"address","indexed":true,"internalType":"address"},{"name":"taskIndex","type":"uint32","indexed":true,"internalType":"uint32"},{"name":"rewardAmount","type":"uint256","indexed":false,"internalType":"uint256"}],"anonymous":false},{"type":"event","name":"ConsensusReached","inputs":[{"name":"taskIndex","type":"uint32","indexed":true,"internalType":"uint32"},{"name":"consensusResult","type":"bytes","indexed":false,"internalType":"bytes"}],"anonymous":false},{"type":"event","name":"Initialized","inputs":[{"name":"version","type":"uint8","indexed":false,"internalType":"uint8"}],"anonymous":false},{"type":"event","name":"NewTaskCreated","inputs":[{"name":"taskIndex","type":"uint32","indexed":true,"internalType":"uint32"},{"name":"task","type":"tuple","indexed":false,"internalType":"struct IAIOracleServiceManager.Task","components":[{"name":"name","type":"string","internalType":"string"},{"name":"taskCreatedBlock","type":"uint32","internalType":"uint32"}]}],"anonymous":false},{"type":"event","name":"OwnershipTransferred","inputs":[{"name":"previousOwner","type":"address","indexed":true,"internalType":"address"},{"name":"newOwner","type":"address","indexed":true,"internalType":"address"}],"anonymous":false},{"type":"event","name":"RewardsInitiatorUpdated","inputs":[{"name":"prevRewardsInitiator","type":"address","indexed":false,"internalType":"address"},{"name":"newRewardsInitiator","type":"address","indexed":false,"internalType":"address"}],"anonymous":false},{"type":"event","name":"TaskResponded","inputs":[{"name":"taskIndex","type":"uint32","indexed":true,"internalType":"uint32"},{"name":"task","type":"tuple","indexed":false,"internalType":"struct IAIOracleServiceManager.Task","components":[{"name":"name","type":"string","internalType":"string"},{"name":"taskCreatedBlock","type":"uint32","internalType":"uint32"}]},{"name":"operator","type":"address","indexed":false,"internalType":"address"}],"anonymous":false},{"type":"error","name":"DelayPeriodNotPassed","inputs":[]},{"type":"error","name":"OnlyRegistryCoordinator","inputs":[]},{"type":"error","name":"OnlyRewardsInitiator","inputs":[]},{"type":"error","name":"OnlyStakeRegistry","inputs":[]},{"type":"error","name":"SafeERC20FailedOperation","inputs":[{"name":"token","type":"address","internalType":"address"}]}],"bytecode":{"object":"0x610120604052348015610010575f5ffd5b5060405161362a38038061362a83398101604081905261002f91610148565b6001600160a01b0380861660a05280851660805280841660e05280831661010052811660c0528484848484610062610071565b505050505050505050506101a9565b5f54610100900460ff16156100dc5760405162461bcd60e51b815260206004820152602760248201527f496e697469616c697a61626c653a20636f6e747261637420697320696e697469604482015266616c697a696e6760c81b606482015260840160405180910390fd5b5f5460ff9081161461012b575f805460ff191660ff9081179091556040519081527f7f26b83ff96e1f2b6a682f133852f6798a09c465da95921460cefb38474024989060200160405180910390a15b565b80516001600160a01b0381168114610143575f5ffd5b919050565b5f5f5f5f5f60a0868803121561015c575f5ffd5b6101658661012d565b94506101736020870161012d565b93506101816040870161012d565b925061018f6060870161012d565b915061019d6080870161012d565b90509295509295909350565b60805160a05160c05160e051610100516133e26102485f395f61140001525f818161194901528181611ab701528181611b5601528181611e7e0152611f2201525f81816104ec015261115401525f818161036d015281816118a901528181611bc70152611c2601525f818161032e015281816106230152818161094d01528181610de801528181610e5e015281816112a60152611c6001526133e25ff3fe608060405234801561000f575f5ffd5b5060043610610269575f3560e01c8063a0169ddd11610157578063ca8aa7c7116100d2578063f25f161011610088578063f9b0b5b91161006e578063f9b0b5b91461059d578063fc299dee146105a6578063fce36c7d146105b9575f5ffd5b8063f25f161014610577578063f2fde38b1461058a575f5ffd5b8063e481af9d116100b8578063e481af9d14610549578063e7f2665814610551578063eb990c5914610564575f5ffd5b8063ca8aa7c7146104e7578063d0e1f2581461050e575f5ffd5b8063a98fb35511610127578063ba5508801161010d578063ba55088014610282578063c1a8e2c5146104b5578063c20bab7f146104c7575f5ffd5b8063a98fb3551461046d578063acbe103614610480575f5ffd5b8063a0169ddd14610421578063a20b99bf14610434578063a364f4da14610447578063a65feaf01461045a575f5ffd5b806368304835116101e757806386e6ddcc116101b75780638da5cb5b1161019d5780638da5cb5b146103fd5780639926ee7d1461040e5780639da16d8e1461026d575f5ffd5b806386e6ddcc146103b75780638b00ce7c146103d8575f5ffd5b806368304835146103295780636b3aa72e14610368578063715018a61461038f57806385edf87414610397575f5ffd5b806333cfb7b71161023c5780633bc28c8c116102225780633bc28c8c146102fa57806354bcd7ff1461030d5780635b09fce114610316575f5ffd5b806333cfb7b7146102c75780633415a49c146102e7575f5ffd5b80631785f53c1461026d5780631fdb0cfd14610282578063279432eb1461026d5780632d89f6fc14610295575b5f5ffd5b61028061027b366004612388565b6105cc565b005b6102806102903660046123d7565b6105d7565b6102b46102a3366004612437565b609e6020525f908152604090205481565b6040519081526020015b60405180910390f35b6102da6102d5366004612388565b6105e4565b6040516102be9190612450565b6102806102f53660046125a3565b6105f5565b610280610308366004612388565b610b80565b6102b460985481565b6102da610324366004612437565b610b91565b6103507f000000000000000000000000000000000000000000000000000000000000000081565b6040516001600160a01b0390911681526020016102be565b6103507f000000000000000000000000000000000000000000000000000000000000000081565b610280610c01565b6103aa6103a536600461261b565b610c14565b6040516102be9190612696565b6103ca6103c5366004612437565b610d07565b6040516102be9291906126cd565b6097546103e89063ffffffff1681565b60405163ffffffff90911681526020016102be565b6033546001600160a01b0316610350565b61028061041c3660046126f0565b610ddd565b61028061042f366004612388565b610e30565b6102806104423660046127ed565b610e41565b610280610455366004612388565b610e53565b61028061046836600461282c565b610ea5565b61028061047b36600461261b565b610f0a565b6104a861048e366004612437565b63ffffffff165f908152609a602052604090205460ff1690565b6040516102be9190612860565b6102806104c33660046128a9565b5050565b6104da6104d536600461295b565b610f1b565b6040516102be919061298e565b6103507f000000000000000000000000000000000000000000000000000000000000000081565b6102b461051c3660046129a0565b609c60209081525f9283526040909220815180830184018051928152908401929093019190912091525481565b6102da610fbd565b6104da61055f366004612437565b610fcc565b6102806105723660046129eb565b610fe4565b610280610585366004612388565b61110e565b610280610598366004612388565b6111a8565b6102b460995481565b606554610350906001600160a01b031681565b6102806105c73660046127ed565b611235565b6105d4611247565b50565b6105df611247565b505050565b60606105ef826112a1565b92915050565b6040517fec7fbb310000000000000000000000000000000000000000000000000000000081523360048201527f00000000000000000000000000000000000000000000000000000000000000006001600160a01b03169063ec7fbb3190602401602060405180830381865afa158015610670573d5f5f3e3d5ffd5b505050506040513d601f19601f820116820180604052508101906106949190612a2e565b6106e55760405162461bcd60e51b815260206004820152601b60248201527f4f70657261746f72206d757374206265207468652063616c6c6572000000000060448201526064015b60405180910390fd5b63ffffffff82165f908152609e602090815260409182902054915161070c91869101612af8565b60405160208183030381529060405280519060200120146107955760405162461bcd60e51b815260206004820152603d60248201527f737570706c696564207461736b20646f6573206e6f74206d617463682074686560448201527f206f6e65207265636f7264656420696e2074686520636f6e747261637400000060648201526084016106dc565b335f908152609f6020908152604080832063ffffffff86168452909152902080546107bf90612b0a565b1590506108345760405162461bcd60e51b815260206004820152602a60248201527f4f70657261746f722068617320616c726561647920726573706f6e646564207460448201527f6f20746865207461736b0000000000000000000000000000000000000000000060648201526084016106dc565b600263ffffffff83165f908152609a602052604090205460ff16600281111561085f5761085f61284c565b036108ac5760405162461bcd60e51b815260206004820152601e60248201527f5461736b2068617320616c7265616479206265656e207265736f6c766564000060448201526064016106dc565b5f6108b78480612b42565b6040516020016108c8929190612b85565b6040516020818303038152906040528051906020012090505f610917827f19457468657265756d205369676e6564204d6573736167653a0a3332000000005f908152601c91909152603c902090565b6040517f1626ba7e000000000000000000000000000000000000000000000000000000008082529192505f906001600160a01b037f00000000000000000000000000000000000000000000000000000000000000001690631626ba7e906109849086908990600401612bbd565b602060405180830381865afa15801561099f573d5f5f3e3d5ffd5b505050506040513d601f19601f820116820180604052508101906109c39190612bd5565b90507fffffffff0000000000000000000000000000000000000000000000000000000082811690821614610a395760405162461bcd60e51b815260206004820152601160248201527f496e76616c6964207369676e617475726500000000000000000000000000000060448201526064016106dc565b335f908152609f6020908152604080832063ffffffff8a1684529091529020610a628682612c34565b5063ffffffff86165f818152609b60209081526040808320805460018101825590845282842001805473ffffffffffffffffffffffffffffffffffffffff191633179055928252609a90529081205460ff166002811115610ac557610ac561284c565b03610aea5763ffffffff86165f908152609a60205260409020805460ff191660011790555b63ffffffff86165f908152609c6020526040908190209051610b0d908790612cef565b9081526040519081900360200190208054905f610b2983612d19565b9190505550610b3786611597565b8563ffffffff167f8eb2d2fcccf5801e10ff58cd73e8781ba923122963789378771f03c1148b023e8833604051610b6f929190612d31565b60405180910390a250505050505050565b610b88611247565b6105d4816117a5565b63ffffffff81165f908152609b6020908152604091829020805483518184028101840190945280845260609392830182828015610bf557602002820191905f5260205f20905b81546001600160a01b03168152600190910190602001808311610bd7575b50505050509050919050565b610c09611247565b610c125f61181b565b565b604080518082018252606081525f602080830191909152825180840184528481524363ffffffff16818301529251919291610c5191839101612696565b60408051808303601f1901815282825280516020918201206097805463ffffffff9081165f908152609e855285812093909355815481168352609a909352929020805460ff19169055905416907f58180a6a0403a63c2b5ce4b85d129d46a80d37851b2216bd0a98b59e7309b84790610ccb908490612696565b60405180910390a2609754610ce79063ffffffff166001612d5b565b6097805463ffffffff191663ffffffff9290921691909117905592915050565b60605f600263ffffffff84165f908152609a602052604090205460ff166002811115610d3557610d3561284c565b63ffffffff85165f908152609d602052604090208054919092149250610d5a90612b0a565b80601f0160208091040260200160405190810160405280929190818152602001828054610d8690612b0a565b8015610dd15780601f10610da857610100808354040283529160200191610dd1565b820191905f5260205f20905b815481529060010190602001808311610db457829003601f168201915b50505050509150915091565b336001600160a01b037f00000000000000000000000000000000000000000000000000000000000000001614610e26576040516346bf228160e01b815260040160405180910390fd5b6104c38282611879565b610e38611247565b6105d481611911565b610e49611978565b6104c382826119bc565b336001600160a01b037f00000000000000000000000000000000000000000000000000000000000000001614610e9c576040516346bf228160e01b815260040160405180910390fd5b6105d481611b8f565b610ead611247565b612710811115610eff5760405162461bcd60e51b815260206004820152601c60248201527f5468726573686f6c642063616e6e6f742065786365656420313030250000000060448201526064016106dc565b609891909155609955565b610f12611247565b6105d481611bf6565b609f60209081525f928352604080842090915290825290208054610f3e90612b0a565b80601f0160208091040260200160405190810160405280929190818152602001828054610f6a90612b0a565b8015610fb55780601f10610f8c57610100808354040283529160200191610fb5565b820191905f5260205f20905b815481529060010190602001808311610f9857829003601f168201915b505050505081565b6060610fc7611c5b565b905090565b609d6020525f908152604090208054610f3e90612b0a565b5f54610100900460ff161580801561100257505f54600160ff909116105b8061101b5750303b15801561101b57505f5460ff166001145b61108d5760405162461bcd60e51b815260206004820152602e60248201527f496e697469616c697a61626c653a20636f6e747261637420697320616c72656160448201527f647920696e697469616c697a656400000000000000000000000000000000000060648201526084016106dc565b5f805460ff1916600117905580156110ae575f805461ff0019166101001790555b6110b88585611d90565b609883905560998290558015611107575f805461ff0019169055604051600181527f7f26b83ff96e1f2b6a682f133852f6798a09c465da95921460cefb38474024989060200160405180910390a15b5050505050565b611116611247565b6040517fd3d96ff40000000000000000000000000000000000000000000000000000000081523060048201526001600160a01b0382811660248301527f0000000000000000000000000000000000000000000000000000000000000000169063d3d96ff4906044015b5f604051808303815f87803b158015611196575f5ffd5b505af1158015611107573d5f5f3e3d5ffd5b6111b0611247565b6001600160a01b03811661122c5760405162461bcd60e51b815260206004820152602660248201527f4f776e61626c653a206e6577206f776e657220697320746865207a65726f206160448201527f646472657373000000000000000000000000000000000000000000000000000060648201526084016106dc565b6105d48161181b565b61123d611978565b6104c38282611e1e565b6033546001600160a01b03163314610c125760405162461bcd60e51b815260206004820181905260248201527f4f776e61626c653a2063616c6c6572206973206e6f7420746865206f776e657260448201526064016106dc565b60605f7f00000000000000000000000000000000000000000000000000000000000000006001600160a01b0316631703a0186040518163ffffffff1660e01b81526004015f60405180830381865afa1580156112ff573d5f5f3e3d5ffd5b505050506040513d5f823e601f3d908101601f191682016040526113269190810190612d90565b8051519091505f8167ffffffffffffffff8111156113465761134661249b565b60405190808252806020026020018201604052801561136f578160200160208202803683370190505b5090505f5b828110156113cd57835180518290811061139057611390612e92565b60200260200101515f01518282815181106113ad576113ad612e92565b6001600160a01b0390921660209283029190910190910152600101611374565b506040517f900413470000000000000000000000000000000000000000000000000000000081525f906001600160a01b037f000000000000000000000000000000000000000000000000000000000000000016906390041347906114379089908690600401612ea6565b5f60405180830381865afa158015611451573d5f5f3e3d5ffd5b505050506040513d5f823e601f3d908101601f191682016040526114789190810190612f05565b90505f5f5b848110156114bc575f83828151811061149857611498612e92565b602002602001015111156114b457816114b081612d19565b9250505b60010161147d565b505f8167ffffffffffffffff8111156114d7576114d761249b565b604051908082528060200260200182016040528015611500578160200160208202803683370190505b5090505f805b86811015611589575f85828151811061152157611521612e92565b602002602001015111156115815785818151811061154157611541612e92565b602002602001015183838151811061155b5761155b612e92565b6001600160a01b03909216602092830291909101909101528161157d81612d19565b9250505b600101611506565b509098975050505050505050565b63ffffffff81165f908152609b60205260409020546098548110156115ba575050565b60605f805b838110156117025763ffffffff85165f908152609b602052604081208054839081106115ed576115ed612e92565b5f9182526020808320909101546001600160a01b0316808352609f8252604080842063ffffffff8b16855290925290822080549193509061162d90612b0a565b80601f016020809104026020016040519081016040528092919081815260200182805461165990612b0a565b80156116a45780601f1061167b576101008083540402835291602001916116a4565b820191905f5260205f20905b81548152906001019060200180831161168757829003601f168201915b505050505090505f609c5f8963ffffffff1663ffffffff1681526020019081526020015f20826040516116d79190612cef565b9081526020016040518091039020549050848111156116f7578094508195505b5050506001016115bf565b506099548361171383612710612f8c565b61171d9190612fa3565b1061179f5763ffffffff84165f908152609a60209081526040808320805460ff19166002179055609d90915290206117558382612c34565b506117608483611f59565b8363ffffffff167f717054e12d1c28eb8880f00b72660a874ddba5eaba5a5a9994011648f5acea6683604051611796919061298e565b60405180910390a25b50505050565b606554604080516001600160a01b03928316815291831660208301527fe11cddf1816a43318ca175bbc52cd0185436e9cbead7c83acc54a73e461717e3910160405180910390a16065805473ffffffffffffffffffffffffffffffffffffffff19166001600160a01b0392909216919091179055565b603380546001600160a01b0383811673ffffffffffffffffffffffffffffffffffffffff19831681179093556040519116919082907f8be0079c531659141344cd1fd0a4f28419497f9722a3daafe3b4186f6b6457e0905f90a35050565b6040517f9926ee7d0000000000000000000000000000000000000000000000000000000081526001600160a01b037f00000000000000000000000000000000000000000000000000000000000000001690639926ee7d906118e09085908590600401612fc2565b5f604051808303815f87803b1580156118f7575f5ffd5b505af1158015611909573d5f5f3e3d5ffd5b505050505050565b6040517fa0169ddd0000000000000000000000000000000000000000000000000000000081526001600160a01b0382811660048301527f0000000000000000000000000000000000000000000000000000000000000000169063a0169ddd9060240161117f565b6065546001600160a01b03163314610c12576040517f8e79fdb500000000000000000000000000000000000000000000000000000000815260040160405180910390fd5b5f5b81811015611b25575f805b8484848181106119db576119db612e92565b90506020028101906119ed919061300d565b6119fb90604081019061302b565b9050811015611a6557848484818110611a1657611a16612e92565b9050602002810190611a28919061300d565b611a3690604081019061302b565b82818110611a4657611a46612e92565b9050604002016020013582611a5b9190613071565b91506001016119c9565b50611ab2333083878787818110611a7e57611a7e612e92565b9050602002810190611a90919061300d565b611aa1906040810190602001612388565b6001600160a01b03169291906120cd565b611b1c7f000000000000000000000000000000000000000000000000000000000000000082868686818110611ae957611ae9612e92565b9050602002810190611afb919061300d565b611b0c906040810190602001612388565b6001600160a01b03169190612149565b506001016119be565b506040517f9cb9a5fa0000000000000000000000000000000000000000000000000000000081526001600160a01b037f00000000000000000000000000000000000000000000000000000000000000001690639cb9a5fa906118e090309086908690600401613132565b6040517fa364f4da0000000000000000000000000000000000000000000000000000000081526001600160a01b0382811660048301527f0000000000000000000000000000000000000000000000000000000000000000169063a364f4da9060240161117f565b6040517fa98fb3550000000000000000000000000000000000000000000000000000000081526001600160a01b037f0000000000000000000000000000000000000000000000000000000000000000169063a98fb3559061117f90849060040161298e565b60605f7f00000000000000000000000000000000000000000000000000000000000000006001600160a01b0316631703a0186040518163ffffffff1660e01b81526004015f60405180830381865afa158015611cb9573d5f5f3e3d5ffd5b505050506040513d5f823e601f3d908101601f19168201604052611ce09190810190612d90565b90505f815f01515167ffffffffffffffff811115611d0057611d0061249b565b604051908082528060200260200182016040528015611d29578160200160208202803683370190505b5090505f5b825151811015611d89578251805182908110611d4c57611d4c612e92565b60200260200101515f0151828281518110611d6957611d69612e92565b6001600160a01b0390921660209283029190910190910152600101611d2e565b5092915050565b5f54610100900460ff16611e0c5760405162461bcd60e51b815260206004820152602b60248201527f496e697469616c697a61626c653a20636f6e7472616374206973206e6f74206960448201527f6e697469616c697a696e6700000000000000000000000000000000000000000060648201526084016106dc565b611e158261181b565b6104c3816117a5565b5f5b81811015611ef157611e793330858585818110611e3f57611e3f612e92565b9050602002810190611e5191906132a1565b60400135868686818110611e6757611e67612e92565b9050602002810190611a9091906132a1565b611ee97f0000000000000000000000000000000000000000000000000000000000000000848484818110611eaf57611eaf612e92565b9050602002810190611ec191906132a1565b60400135858585818110611ed757611ed7612e92565b9050602002810190611afb91906132a1565b600101611e20565b506040517ffce36c7d0000000000000000000000000000000000000000000000000000000081526001600160a01b037f0000000000000000000000000000000000000000000000000000000000000000169063fce36c7d906118e090859085906004016132b5565b63ffffffff82165f908152609b6020526040812054905b8181101561179f5763ffffffff84165f908152609b60205260408120805483908110611f9e57611f9e612e92565b5f9182526020808320909101546001600160a01b0316808352609f8252604080842063ffffffff8a168552909252908220805491935090611fde90612b0a565b80601f016020809104026020016040519081016040528092919081815260200182805461200a90612b0a565b80156120555780601f1061202c57610100808354040283529160200191612055565b820191905f5260205f20905b81548152906001019060200180831161203857829003601f168201915b5050505050905084805190602001208180519060200120036120c357604051670de0b6b3a76400008082529063ffffffff8816906001600160a01b038516907f7bb03d9adf04498e7d816ba1da47b33f38c0fe782e8b2d92d767b5ef91b4ec159060200160405180910390a3505b5050600101611f70565b6040516001600160a01b03848116602483015283811660448301526064820183905261179f9186918216906323b872dd906084015b604051602081830303815290604052915060e01b6020820180517bffffffffffffffffffffffffffffffffffffffffffffffffffffffff83818316178352505050506121e9565b6040517fdd62ed3e0000000000000000000000000000000000000000000000000000000081523060048201526001600160a01b0383811660248301525f919085169063dd62ed3e90604401602060405180830381865afa1580156121af573d5f5f3e3d5ffd5b505050506040513d601f19601f820116820180604052508101906121d39190613395565b905061179f84846121e48585613071565b61226e565b5f5f60205f8451602086015f885af180612208576040513d5f823e3d81fd5b50505f513d9150811561221f57806001141561222c565b6001600160a01b0384163b155b1561179f576040517f5274afe70000000000000000000000000000000000000000000000000000000081526001600160a01b03851660048201526024016106dc565b604080516001600160a01b038416602482015260448082018490528251808303909101815260649091019091526020810180517bffffffffffffffffffffffffffffffffffffffffffffffffffffffff167f095ea7b3000000000000000000000000000000000000000000000000000000001790526122ed848261232b565b61179f576040516001600160a01b0384811660248301525f604483015261232191869182169063095ea7b390606401612102565b61179f84826121e9565b5f5f5f5f60205f8651602088015f8a5af192503d91505f51905082801561236a5750811561235c578060011461236a565b5f866001600160a01b03163b115b9695505050505050565b6001600160a01b03811681146105d4575f5ffd5b5f60208284031215612398575f5ffd5b81356123a381612374565b9392505050565b7fffffffff00000000000000000000000000000000000000000000000000000000811681146105d4575f5ffd5b5f5f5f606084860312156123e9575f5ffd5b83356123f481612374565b9250602084013561240481612374565b91506040840135612414816123aa565b809150509250925092565b803563ffffffff81168114612432575f5ffd5b919050565b5f60208284031215612447575f5ffd5b6123a38261241f565b602080825282518282018190525f918401906040840190835b818110156124905783516001600160a01b0316835260209384019390920191600101612469565b509095945050505050565b634e487b7160e01b5f52604160045260245ffd5b6040516020810167ffffffffffffffff811182821017156124d2576124d261249b565b60405290565b6040805190810167ffffffffffffffff811182821017156124d2576124d261249b565b604051601f8201601f1916810167ffffffffffffffff811182821017156125245761252461249b565b604052919050565b5f5f67ffffffffffffffff8411156125465761254661249b565b50601f8301601f191660200161255b816124fb565b91505082815283838301111561256f575f5ffd5b828260208301375f602084830101529392505050565b5f82601f830112612594575f5ffd5b6123a38383356020850161252c565b5f5f5f606084860312156125b5575f5ffd5b833567ffffffffffffffff8111156125cb575f5ffd5b8401604081870312156125dc575f5ffd5b92506125ea6020850161241f565b9150604084013567ffffffffffffffff811115612605575f5ffd5b61261186828701612585565b9150509250925092565b5f6020828403121561262b575f5ffd5b813567ffffffffffffffff811115612641575f5ffd5b8201601f81018413612651575f5ffd5b6126608482356020840161252c565b949350505050565b5f81518084528060208401602086015e5f602082860101526020601f19601f83011685010191505092915050565b602081525f8251604060208401526126b16060840182612668565b905063ffffffff60208501511660408401528091505092915050565b604081525f6126df6040830185612668565b905082151560208301529392505050565b5f5f60408385031215612701575f5ffd5b823561270c81612374565b9150602083013567ffffffffffffffff811115612727575f5ffd5b830160608186031215612738575f5ffd5b6040516060810167ffffffffffffffff8111828210171561275b5761275b61249b565b604052813567ffffffffffffffff811115612774575f5ffd5b61278087828501612585565b8252506020828101359082015260409182013591810191909152919491935090915050565b5f5f83601f8401126127b5575f5ffd5b50813567ffffffffffffffff8111156127cc575f5ffd5b6020830191508360208260051b85010111156127e6575f5ffd5b9250929050565b5f5f602083850312156127fe575f5ffd5b823567ffffffffffffffff811115612814575f5ffd5b612820858286016127a5565b90969095509350505050565b5f5f6040838503121561283d575f5ffd5b50508035926020909101359150565b634e487b7160e01b5f52602160045260245ffd5b602081016003831061288057634e487b7160e01b5f52602160045260245ffd5b91905290565b5f67ffffffffffffffff82111561289f5761289f61249b565b5060051b60200190565b5f5f604083850312156128ba575f5ffd5b82356128c581612374565b9150602083013567ffffffffffffffff8111156128e0575f5ffd5b8301601f810185136128f0575f5ffd5b80356129036128fe82612886565b6124fb565b8082825260208201915060208360051b850101925087831115612924575f5ffd5b6020840193505b8284101561294d5761293c8461241f565b82526020938401939091019061292b565b809450505050509250929050565b5f5f6040838503121561296c575f5ffd5b823561297781612374565b91506129856020840161241f565b90509250929050565b602081525f6123a36020830184612668565b5f5f604083850312156129b1575f5ffd5b6129ba8361241f565b9150602083013567ffffffffffffffff8111156129d5575f5ffd5b6129e185828601612585565b9150509250929050565b5f5f5f5f608085870312156129fe575f5ffd5b8435612a0981612374565b93506020850135612a1981612374565b93969395505050506040820135916060013590565b5f60208284031215612a3e575f5ffd5b815180151581146123a3575f5ffd5b5f5f8335601e19843603018112612a62575f5ffd5b830160208101925035905067ffffffffffffffff811115612a81575f5ffd5b8036038213156127e6575f5ffd5b81835281816020850137505f828201602090810191909152601f909101601f19169091010190565b5f612ac28283612a4d565b60408552612ad4604086018284612a8f565b91505063ffffffff612ae86020850161241f565b1660208501528091505092915050565b602081525f6123a36020830184612ab7565b600181811c90821680612b1e57607f821691505b602082108103612b3c57634e487b7160e01b5f52602260045260245ffd5b50919050565b5f5f8335601e19843603018112612b57575f5ffd5b83018035915067ffffffffffffffff821115612b71575f5ffd5b6020019150368190038213156127e6575f5ffd5b7f48656c6c6f2c20000000000000000000000000000000000000000000000000008152818360078301375f9101600701908152919050565b828152604060208201525f6126606040830184612668565b5f60208284031215612be5575f5ffd5b81516123a3816123aa565b601f8211156105df57805f5260205f20601f840160051c81016020851015612c155750805b601f840160051c820191505b81811015611107575f8155600101612c21565b815167ffffffffffffffff811115612c4e57612c4e61249b565b612c6281612c5c8454612b0a565b84612bf0565b6020601f821160018114612c94575f8315612c7d5750848201515b5f19600385901b1c1916600184901b178455611107565b5f84815260208120601f198516915b82811015612cc35787850151825560209485019460019092019101612ca3565b5084821015612ce057868401515f19600387901b60f8161c191681555b50505050600190811b01905550565b5f82518060208501845e5f920191825250919050565b634e487b7160e01b5f52601160045260245ffd5b5f60018201612d2a57612d2a612d05565b5060010190565b604081525f612d436040830185612ab7565b90506001600160a01b03831660208301529392505050565b63ffffffff81811683821601908111156105ef576105ef612d05565b6bffffffffffffffffffffffff811681146105d4575f5ffd5b5f60208284031215612da0575f5ffd5b815167ffffffffffffffff811115612db6575f5ffd5b820160208185031215612dc7575f5ffd5b612dcf6124af565b815167ffffffffffffffff811115612de5575f5ffd5b80830192505084601f830112612df9575f5ffd5b8151612e076128fe82612886565b8082825260208201915060208360061b860101925087831115612e28575f5ffd5b6020850194505b82851015612e855760408589031215612e46575f5ffd5b612e4e6124d8565b8551612e5981612374565b81526020860151612e6981612d77565b8060208301525080835250602082019150604085019450612e2f565b8352509095945050505050565b634e487b7160e01b5f52603260045260245ffd5b5f604082016001600160a01b0385168352604060208401528084518083526060850191506020860192505f5b81811015612ef95783516001600160a01b0316835260209384019390920191600101612ed2565b50909695505050505050565b5f60208284031215612f15575f5ffd5b815167ffffffffffffffff811115612f2b575f5ffd5b8201601f81018413612f3b575f5ffd5b8051612f496128fe82612886565b8082825260208201915060208360051b850101925086831115612f6a575f5ffd5b6020840193505b8284101561236a578351825260209384019390910190612f71565b80820281158282048414176105ef576105ef612d05565b5f82612fbd57634e487b7160e01b5f52601260045260245ffd5b500490565b6001600160a01b0383168152604060208201525f825160606040840152612fec60a0840182612668565b90506020840151606084015260408401516080840152809150509392505050565b5f823560be19833603018112613021575f5ffd5b9190910192915050565b5f5f8335601e19843603018112613040575f5ffd5b83018035915067ffffffffffffffff82111561305a575f5ffd5b6020019150600681901b36038213156127e6575f5ffd5b808201808211156105ef576105ef612d05565b5f5f8335601e19843603018112613099575f5ffd5b830160208101925035905067ffffffffffffffff8111156130b8575f5ffd5b8060061b36038213156127e6575f5ffd5b8183526020830192505f815f5b848110156131285781356130e981612374565b6001600160a01b03168652602082013561310281612d77565b6bffffffffffffffffffffffff16602087015260409586019591909101906001016130d6565b5093949350505050565b6001600160a01b038416815260406020820181905281018290525f6060600584901b83018101908301858360be1936839003015b8782101561329357868503605f190184528235818112613184575f5ffd5b89016131908180613084565b60c088526131a260c0890182846130c9565b91505060208201356131b381612374565b6001600160a01b031660208801526131ce6040830183613084565b88830360408a015280835290915f91906020015b8183101561321d5783356131f581612374565b6001600160a01b031681526020848101359082015260409384019360019390930192016131e2565b6132296060860161241f565b63ffffffff811660608c015293506132436080860161241f565b63ffffffff811660808c0152935061325e60a0860186612a4d565b9550935089810360a08b0152613275818686612a8f565b99505050505050602083019250602084019350600182019150613166565b509298975050505050505050565b5f8235609e19833603018112613021575f5ffd5b602080825281018290525f6040600584901b830181019083018583609e1936839003015b8782101561338857868503603f1901845282358181126132f7575f5ffd5b89016133038180613084565b60a0885261331560a0890182846130c9565b915050602082013561332681612374565b6001600160a01b031660208801526040828101359088015263ffffffff61334f6060840161241f565b16606088015263ffffffff6133666080840161241f565b16608088015280965050506020830192506020840193506001820191506132d9565b5092979650505050505050565b5f602082840312156133a5575f5ffd5b505191905056fea2646970667358221220d0bbd947c18740f36b81dfab71b53a37b47bb1c757691b4217b56dc4d3898c1c64736f6c634300081b0033","linkReferences":{}},"methodIdentifiers":{"addPendingAdmin(address)":"279432eb","allTaskHashes(uint32)":"2d89f6fc","allTaskResponses(address,uint32)":"c20bab7f","allocationManager()":"ca8aa7c7","avsDirectory()":"6b3aa72e","consensusResult(uint32)":"e7f26658","consensusThreshold()":"f9b0b5b9","createAVSRewardsSubmission(((address,uint96)[],address,uint256,uint32,uint32)[])":"fce36c7d","createNewTask(string)":"85edf874","createOperatorDirectedAVSRewardsSubmission(((address,uint96)[],address,(address,uint256)[],uint32,uint32,string)[])":"a20b99bf","deregisterOperatorFromAVS(address)":"a364f4da","deregisterOperatorFromOperatorSets(address,uint32[])":"c1a8e2c5","getConsensusResult(uint32)":"86e6ddcc","getOperatorRestakedStrategies(address)":"33cfb7b7","getRestakeableStrategies()":"e481af9d","initialize(address,address,uint256,uint256)":"eb990c59","latestTaskNum()":"8b00ce7c","minimumResponses()":"54bcd7ff","owner()":"8da5cb5b","registerOperatorToAVS(address,(bytes,bytes32,uint256))":"9926ee7d","removeAdmin(address)":"1785f53c","removeAppointee(address,address,bytes4)":"ba550880","removePendingAdmin(address)":"9da16d8e","renounceOwnership()":"715018a6","respondToTask((string,uint32),uint32,bytes)":"3415a49c","responseVotes(uint32,bytes)":"d0e1f258","rewardsInitiator()":"fc299dee","setAVSRegistrar(address)":"f25f1610","setAppointee(address,address,bytes4)":"1fdb0cfd","setClaimerFor(address)":"a0169ddd","setRewardsInitiator(address)":"3bc28c8c","stakeRegistry()":"68304835","taskRespondents(uint32)":"5b09fce1","taskStatus(uint32)":"acbe1036","transferOwnership(address)":"f2fde38b","updateAVSMetadataURI(string)":"a98fb355","updateConsensusParameters(uint256,uint256)":"a65feaf0"},"id":156}