{"abi":[{"type":"constructor","inputs":[{"name":"_avsDirectory","type":"address","internalType":"address"},{"name":"_stakeRegistry","type":"address","internalType":"address"},{"name":"_rewardsCoordinator","type":"address","internalType":"address"},{"name":"_delegationManager","type":"address","internalType":"address"},{"name":"_allocationManager","type":"address","internalType":"address"}],"stateMutability":"nonpayable"},{"type":"function","name":"addPendingAdmin","inputs":[{"name":"admin","type":"address","internalType":"address"}],"outputs":[],"stateMutability":"nonpayable"},{"type":"function","name":"allTaskHashes","inputs":[{"name":"","type":"uint32","internalType":"uint32"}],"outputs":[{"name":"","type":"bytes32","internalType":"bytes32"}],"stateMutability":"view"},{"type":"function","name":"allTaskResponses","inputs":[{"name":"","type":"address","internalType":"address"},{"name":"","type":"uint32","internalType":"uint32"}],"outputs":[{"name":"","type":"bytes","internalType":"bytes"}],"stateMutability":"view"},{"type":"function","name":"allocationManager","inputs":[],"outputs":[{"name":"","type":"address","internalType":"address"}],"stateMutability":"view"},{"type":"function","name":"avsDirectory","inputs":[],"outputs":[{"name":"","type":"address","internalType":"address"}],"stateMutability":"view"},{"type":"function","name":"consensusResult","inputs":[{"name":"","type":"uint32","internalType":"uint32"}],"outputs":[{"name":"","type":"bytes","internalType":"bytes"}],"stateMutability":"view"},{"type":"function","name":"consensusThreshold","inputs":[],"outputs":[{"name":"","type":"uint256","internalType":"uint256"}],"stateMutability":"view"},{"type":"function","name":"createAVSRewardsSubmission","inputs":[{"name":"rewardsSubmissions","type":"tuple[]","internalType":"struct IRewardsCoordinatorTypes.RewardsSubmission[]","components":[{"name":"strategiesAndMultipliers","type":"tuple[]","internalType":"struct IRewardsCoordinatorTypes.StrategyAndMultiplier[]","components":[{"name":"strategy","type":"address","internalType":"contract IStrategy"},{"name":"multiplier","type":"uint96","internalType":"uint96"}]},{"name":"token","type":"address","internalType":"contract IERC20"},{"name":"amount","type":"uint256","internalType":"uint256"},{"name":"startTimestamp","type":"uint32","internalType":"uint32"},{"name":"duration","type":"uint32","internalType":"uint32"}]}],"outputs":[],"stateMutability":"nonpayable"},{"type":"function","name":"createNewTask","inputs":[{"name":"name","type":"string","internalType":"string"}],"outputs":[{"name":"","type":"tuple","internalType":"struct IAIOracleServiceManager.Task","components":[{"name":"name","type":"string","internalType":"string"},{"name":"taskCreatedBlock","type":"uint32","internalType":"uint32"}]}],"stateMutability":"nonpayable"},{"type":"function","name":"createOperatorDirectedAVSRewardsSubmission","inputs":[{"name":"operatorDirectedRewardsSubmissions","type":"tuple[]","internalType":"struct IRewardsCoordinatorTypes.OperatorDirectedRewardsSubmission[]","components":[{"name":"strategiesAndMultipliers","type":"tuple[]","internalType":"struct IRewardsCoordinatorTypes.StrategyAndMultiplier[]","components":[{"name":"strategy","type":"address","internalType":"contract IStrategy"},{"name":"multiplier","type":"uint96","internalType":"uint96"}]},{"name":"token","type":"address","internalType":"contract IERC20"},{"name":"operatorRewards","type":"tuple[]","internalType":"struct IRewardsCoordinatorTypes.OperatorReward[]","components":[{"name":"operator","type":"address","internalType":"address"},{"name":"amount","type":"uint256","internalType":"uint256"}]},{"name":"startTimestamp","type":"uint32","internalType":"uint32"},{"name":"duration","type":"uint32","internalType":"uint32"},{"name":"description","type":"string","internalType":"string"}]}],"outputs":[],"stateMutability":"nonpayable"},{"type":"function","name":"deregisterOperatorFromAVS","inputs":[{"name":"operator","type":"address","internalType":"address"}],"outputs":[],"stateMutability":"nonpayable"},{"type":"function","name":"deregisterOperatorFromOperatorSets","inputs":[{"name":"operator","type":"address","internalType":"address"},{"name":"operatorSetIds","type":"uint32[]","internalType":"uint32[]"}],"outputs":[],"stateMutability":"nonpayable"},{"type":"function","name":"getConsensusResult","inputs":[{"name":"taskIndex","type":"uint32","internalType":"uint32"}],"outputs":[{"name":"result","type":"bytes","internalType":"bytes"},{"name":"isResolved","type":"bool","internalType":"bool"}],"stateMutability":"view"},{"type":"function","name":"getOperatorRestakedStrategies","inputs":[{"name":"_operator","type":"address","internalType":"address"}],"outputs":[{"name":"","type":"address[]","internalType":"address[]"}],"stateMutability":"view"},{"type":"function","name":"getRestakeableStrategies","inputs":[],"outputs":[{"name":"","type":"address[]","internalType":"address[]"}],"stateMutability":"view"},{"type":"function","name":"initialize","inputs":[{"name":"initialOwner","type":"address","internalType":"address"},{"name":"_rewardsInitiator","type":"address","internalType":"address"},{"name":"_minimumResponses","type":"uint256","internalType":"uint256"},{"name":"_consensusThreshold","type":"uint256","internalType":"uint256"}],"outputs":[],"stateMutability":"nonpayable"},{"type":"function","name":"latestTaskNum","inputs":[],"outputs":[{"name":"","type":"uint32","internalType":"uint32"}],"stateMutability":"view"},{"type":"function","name":"minimumResponses","inputs":[],"outputs":[{"name":"","type":"uint256","internalType":"uint256"}],"stateMutability":"view"},{"type":"function","name":"owner","inputs":[],"outputs":[{"name":"","type":"address","internalType":"address"}],"stateMutability":"view"},{"type":"function","name":"registerOperatorToAVS","inputs":[{"name":"operator","type":"address","internalType":"address"},{"name":"operatorSignature","type":"tuple","internalType":"struct ISignatureUtils.SignatureWithSaltAndExpiry","components":[{"name":"signature","type":"bytes","internalType":"bytes"},{"name":"salt","type":"bytes32","internalType":"bytes32"},{"name":"expiry","type":"uint256","internalType":"uint256"}]}],"outputs":[],"stateMutability":"nonpayable"},{"type":"function","name":"removeAdmin","inputs":[{"name":"admin","type":"address","internalType":"address"}],"outputs":[],"stateMutability":"nonpayable"},{"type":"function","name":"removeAppointee","inputs":[{"name":"appointee","type":"address","internalType":"address"},{"name":"target","type":"address","internalType":"address"},{"name":"selector","type":"bytes4","internalType":"bytes4"}],"outputs":[],"stateMutability":"nonpayable"},{"type":"function","name":"removePendingAdmin","inputs":[{"name":"pendingAdmin","type":"address","internalType":"address"}],"outputs":[],"stateMutability":"nonpayable"},{"type":"function","name":"renounceOwnership","inputs":[],"outputs":[],"stateMutability":"nonpayable"},{"type":"function","name":"respondToTask","inputs":[{"name":"referenceTaskIndex","type":"uint32","internalType":"uint32"},{"name":"signature","type":"bytes","internalType":"bytes"}],"outputs":[],"stateMutability":"nonpayable"},{"type":"function","name":"responseVotes","inputs":[{"name":"","type":"uint32","internalType":"uint32"},{"name":"","type":"bytes","internalType":"bytes"}],"outputs":[{"name":"","type":"uint256","internalType":"uint256"}],"stateMutability":"view"},{"type":"function","name":"rewardsInitiator","inputs":[],"outputs":[{"name":"","type":"address","internalType":"address"}],"stateMutability":"view"},{"type":"function","name":"setAVSRegistrar","inputs":[{"name":"registrar","type":"address","internalType":"contract IAVSRegistrar"}],"outputs":[],"stateMutability":"nonpayable"},{"type":"function","name":"setAppointee","inputs":[{"name":"appointee","type":"address","internalType":"address"},{"name":"target","type":"address","internalType":"address"},{"name":"selector","type":"bytes4","internalType":"bytes4"}],"outputs":[],"stateMutability":"nonpayable"},{"type":"function","name":"setClaimerFor","inputs":[{"name":"claimer","type":"address","internalType":"address"}],"outputs":[],"stateMutability":"nonpayable"},{"type":"function","name":"setRewardsInitiator","inputs":[{"name":"newRewardsInitiator","type":"address","internalType":"address"}],"outputs":[],"stateMutability":"nonpayable"},{"type":"function","name":"stakeRegistry","inputs":[],"outputs":[{"name":"","type":"address","internalType":"address"}],"stateMutability":"view"},{"type":"function","name":"taskRespondents","inputs":[{"name":"taskIndex","type":"uint32","internalType":"uint32"}],"outputs":[{"name":"","type":"address[]","internalType":"address[]"}],"stateMutability":"view"},{"type":"function","name":"taskStatus","inputs":[{"name":"taskIndex","type":"uint32","internalType":"uint32"}],"outputs":[{"name":"","type":"uint8","internalType":"enum IAIOracleServiceManager.TaskStatus"}],"stateMutability":"view"},{"type":"function","name":"transferOwnership","inputs":[{"name":"newOwner","type":"address","internalType":"address"}],"outputs":[],"stateMutability":"nonpayable"},{"type":"function","name":"updateAVSMetadataURI","inputs":[{"name":"_metadataURI","type":"string","internalType":"string"}],"outputs":[],"stateMutability":"nonpayable"},{"type":"function","name":"updateConsensusParameters","inputs":[{"name":"_minimumResponses","type":"uint256","internalType":"uint256"},{"name":"_consensusThreshold","type":"uint256","internalType":"uint256"}],"outputs":[],"stateMutability":"nonpayable"},{"type":"event","name":"AgentRewarded","inputs":[{"name":"agent","type":"address","indexed":true,"internalType":"address"},{"name":"taskIndex","type":"uint32","indexed":true,"internalType":"uint32"},{"name":"rewardAmount","type":"uint256","indexed":false,"internalType":"uint256"}],"anonymous":false},{"type":"event","name":"ConsensusReached","inputs":[{"name":"taskIndex","type":"uint32","indexed":true,"internalType":"uint32"},{"name":"consensusResult","type":"bytes","indexed":false,"internalType":"bytes"}],"anonymous":false},{"type":"event","name":"Initialized","inputs":[{"name":"version","type":"uint8","indexed":false,"internalType":"uint8"}],"anonymous":false},{"type":"event","name":"NewTaskCreated","inputs":[{"name":"taskIndex","type":"uint32","indexed":true,"internalType":"uint32"},{"name":"task","type":"tuple","indexed":false,"internalType":"struct IAIOracleServiceManager.Task","components":[{"name":"name","type":"string","internalType":"string"},{"name":"taskCreatedBlock","type":"uint32","internalType":"uint32"}]}],"anonymous":false},{"type":"event","name":"OwnershipTransferred","inputs":[{"name":"previousOwner","type":"address","indexed":true,"internalType":"address"},{"name":"newOwner","type":"address","indexed":true,"internalType":"address"}],"anonymous":false},{"type":"event","name":"RewardsInitiatorUpdated","inputs":[{"name":"prevRewardsInitiator","type":"address","indexed":false,"internalType":"address"},{"name":"newRewardsInitiator","type":"address","indexed":false,"internalType":"address"}],"anonymous":false},{"type":"event","name":"TaskResponded","inputs":[{"name":"taskIndex","type":"uint32","indexed":true,"internalType":"uint32"},{"name":"task","type":"tuple","indexed":false,"internalType":"struct IAIOracleServiceManager.Task","components":[{"name":"name","type":"string","internalType":"string"},{"name":"taskCreatedBlock","type":"uint32","internalType":"uint32"}]},{"name":"operator","type":"address","indexed":false,"internalType":"address"}],"anonymous":false},{"type":"error","name":"DelayPeriodNotPassed","inputs":[]},{"type":"error","name":"OnlyRegistryCoordinator","inputs":[]},{"type":"error","name":"OnlyRewardsInitiator","inputs":[]},{"type":"error","name":"OnlyStakeRegistry","inputs":[]},{"type":"error","name":"SafeERC20FailedOperation","inputs":[{"name":"token","type":"address","internalType":"address"}]}],"bytecode":{"object":"0x610120346101bc57601f612ace38819003918201601f19168301916001600160401b038311848410176101c05780849260a0946040528339810103126101bc57610048816101d4565b90610055602082016101d4565b610061604083016101d4565b9061007a6080610073606086016101d4565b94016101d4565b9360a05260805260e0526101005260c0525f5460ff8160081c166101675760ff8082160361012d575b6040516128e590816101e9823960805181818161065c01528181610c4c01528181611026015281816114df0152818161187a015261199b015260a051818181610f2601528181611058015281816115070152611836015260c0518181816104ab0152610d7f015260e0518181816101ee0152818161110d01526113b801526101005181611a610152f35b60ff90811916175f557f7f26b83ff96e1f2b6a682f133852f6798a09c465da95921460cefb3847402498602060405160ff8152a15f6100a3565b60405162461bcd60e51b815260206004820152602760248201527f496e697469616c697a61626c653a20636f6e747261637420697320696e697469604482015266616c697a696e6760c81b6064820152608490fd5b5f80fd5b634e487b7160e01b5f52604160045260245ffd5b51906001600160a01b03821682036101bc5756fe60806040526004361015610011575f80fd5b5f803560e01c80631785f53c14611c715780631fdb0cfd14611c93578063279432eb14611c715780632d89f6fc14611c3c57806333cfb7b71461196e5780633bc28c8c1461194a57806354bcd7ff1461192d5780635b09fce1146118a957806368304835146118655780636b3aa72e14611821578063715018a6146117c657806385edf874146116a757806386e6ddcc146116225780638b00ce7c146115ff5780638da5cb5b146115d75780639926ee7d146114435780639da16d8e14611420578063a0169ddd14611393578063a20b99bf146110cf578063a364f4da1461100a578063a65feaf014610f93578063a98fb35514610f0c578063acbe103614610eb4578063ba55088014610e9a578063c1a8e2c514610e09578063c20bab7f14610dae578063ca8aa7c714610d69578063d0e1f25814610cf9578063e481af9d14610c27578063e7f2665814610bd9578063eb990c5914610a28578063eeed705614610514578063f25f161014610479578063f2fde38b146103e8578063f9b0b5b9146103ca578063fc299dee146103a15763fce36c7d146101b1575f80fd5b3461028e57602036600319011261028e576004356001600160401b03811161039d576101e1903690600401611eab565b6101ec9291926122cf565b7f0000000000000000000000000000000000000000000000000000000000000000825b82811061033957506001600160a01b031690813b15610335576040519363fce36c7d60e01b8552816024860160206004880152526044850160448360051b87010192828690609e19813603015b83831061029c5788808b8181808c0381838f5af180156102915761027d5750f35b8161028791611da2565b61028e5780f35b80fd5b6040513d84823e3d90fd5b9091929394956043198a82030186528635828112156103315760206001928582930190608063ffffffff61031f826102e56102d7878061236a565b60a0885260a088019161239e565b95898060a01b036102f7898301611cc2565b1688870152604081013560408701528361031360608301611d34565b16606087015201611d34565b1691015298019601949301919061025c565b8980fd5b8280fd5b8061036e610355602061034f600195888b6126c3565b01612356565b604061036284888b6126c3565b013590309033906126e5565b610397610381602061034f84888b6126c3565b84604061038f85898c6126c3565b01359161272e565b0161020f565b5080fd5b503461028e578060031936011261028e576065546040516001600160a01b039091168152602090f35b503461028e578060031936011261028e576020609954604051908152f35b503461028e57602036600319011261028e57610402611cac565b61040a612089565b6001600160a01b038116156104255761042290612287565b80f35b60405162461bcd60e51b815260206004820152602660248201527f4f776e61626c653a206e6577206f776e657220697320746865207a65726f206160448201526564647265737360d01b6064820152608490fd5b503461028e57602036600319011261028e57806004356001600160a01b03811690819003610511576104a9612089565b7f00000000000000000000000000000000000000000000000000000000000000006001600160a01b031690813b1561050d5782916044839260405194859384926334f65bfd60e21b845230600485015260248401525af180156102915761027d5750f35b5050fd5b50fd5b503461028e57604036600319011261028e5761052e611d21565b6024356001600160401b0381116103355736602382011215610335578060040135916001600160401b038311610a245760248201923660248285010111610a205763ffffffff821693848652609e6020526040862054156109e557338652609f60205260408620855f526020526105a860405f2054611ef2565b61098d57848652609a60205260ff604087205416600381101561081c57600214610948576040516020810190635461736b60e01b825263ffffffff60e01b8560e01b166024820152600881526105ff602882611da2565b5190207f19457468657265756d205369676e6564204d6573736167653a0a3332000000008752601c52603c862060405190630b135d3f60e11b825260048201526040602482015260208180610658604482018787611fe3565b03817f00000000000000000000000000000000000000000000000000000000000000006001600160a01b03165afa90811561093d5787916108f6575b506001600160e01b031916630b135d3f60e11b036108bd576106b4611fca565b9363ffffffff43166020860152338752609f60205260408720865f5260205260405f20906106ec846106e68454611ef2565b84612003565b838891601f82116001146108525761071a928a9183610844575b50508160011b915f199060031b1c19161790565b90555b848652609b6020526040862080549068010000000000000000821015610830579061074d91600182018155612052565b81549060031b9033821b9160018060a01b03901b1916179055848652609a60205260ff604087205416600381101561081c57927f8eb2d2fcccf5801e10ff58cd73e8781ba923122963789378771f03c1148b023e949260206107e1936107f59615610801575b888a52609c825260408a208360405194859384378201908152030190206107da815461207b565b9055612402565b604051918291604083526040830190611e6a565b3360208301520390a280f35b888a52609a825260408a20805460ff191660011790556107b3565b634e487b7160e01b87526021600452602487fd5b634e487b7160e01b88526041600452602488fd5b602492500101355f80610706565b838a5260208a209290915085601f1981168b5b81811061089f575010610883575b505050600183811b01905561071d565b01602401355f19600386901b60f8161c191690555f8080610873565b84840160240135865560019095019460209384019389935001610865565b60405162461bcd60e51b8152602060048201526011602482015270496e76616c6964207369676e617475726560781b6044820152606490fd5b90506020813d602011610935575b8161091160209383611da2565b8101031261093157516001600160e01b031981168103610931575f610694565b8680fd5b3d9150610904565b6040513d89823e3d90fd5b60405162461bcd60e51b815260206004820152601e60248201527f5461736b2068617320616c7265616479206265656e207265736f6c76656400006044820152606490fd5b60405162461bcd60e51b815260206004820152602a60248201527f4f70657261746f722068617320616c726561647920726573706f6e64656420746044820152696f20746865207461736b60b01b6064820152608490fd5b60405162461bcd60e51b81526020600482015260136024820152721d185cdac8191bd95cc81b9bdd08195e1a5cdd606a1b6044820152606490fd5b8480fd5b8380fd5b503461028e57608036600319011261028e57610a42611cac565b602435906001600160a01b03821682036103355782549160ff8360081c161592838094610bcc575b8015610bb5575b15610b595760ff198116600117855583610b48575b5060ff845460081c1615610aef57610aa0610aa592612287565b612229565b604435609855606435609955610ab85780f35b61ff001981541681557f7f26b83ff96e1f2b6a682f133852f6798a09c465da95921460cefb3847402498602060405160018152a180f35b60405162461bcd60e51b815260206004820152602b60248201527f496e697469616c697a61626c653a20636f6e7472616374206973206e6f74206960448201526a6e697469616c697a696e6760a81b6064820152608490fd5b61ffff19166101011784555f610a86565b60405162461bcd60e51b815260206004820152602e60248201527f496e697469616c697a61626c653a20636f6e747261637420697320616c72656160448201526d191e481a5b9a5d1a585b1a5e995960921b6064820152608490fd5b50303b158015610a715750600160ff821614610a71565b50600160ff821610610a6a565b503461028e57602036600319011261028e57610c0f6040610c239263ffffffff610c01611d21565b168152609d60205220611f2a565b604051918291602083526020830190611e46565b0390f35b503461028e578060031936011261028e576040516302e0740360e31b815281816004817f00000000000000000000000000000000000000000000000000000000000000006001600160a01b03165afa908115610291578291610cd7575b50610c908151516121f7565b915b81518051821015610cc957600191906001600160a01b0390610cb59083906121e3565b515116610cc282866121e3565b5201610c92565b60405180610c238682611d45565b610cf391503d8084833e610ceb8183611da2565b8101906120e1565b5f610c84565b503461028e57604036600319011261028e57610d13611d21565b906024356001600160401b03811161039d576020926040849363ffffffff610d4086953690600401611e90565b93168152609c845220604051938285935191829101845e82019081520301902054604051908152f35b503461028e578060031936011261028e576040517f00000000000000000000000000000000000000000000000000000000000000006001600160a01b03168152602090f35b503461028e57604036600319011261028e57610dc8611cac565b906024359163ffffffff8316830361039d5763ffffffff9160409160018060a01b03168152609f6020522091165f52602052610c23610c0f60405f20611f2a565b503461028e57604036600319011261028e57610e23611cac565b506024356001600160401b03811161039d573660238201121561039d57806004013560246020610e5283611edb565b610e5f6040519182611da2565b838152019160051b83010191368311610a2457602401905b828210610e82578380f35b60208091610e8f84611d34565b815201910190610e77565b503461028e57610ea936611cd6565b505050610422612089565b503461028e57602036600319011261028e5763ffffffff610ed3611d21565b168152609a60205260ff604082205416604051906003811015610ef857602092508152f35b634e487b7160e01b83526021600452602483fd5b503461028e5780610f1c36611e08565b610f24612089565b7f00000000000000000000000000000000000000000000000000000000000000006001600160a01b0316803b1561050d5760405163a98fb35560e01b8152602060048201529183918391829084908290610f82906024830190611e46565b03925af180156102915761027d5750f35b503461028e57604036600319011261028e57602435610fb0612089565b6127108111610fc55760043560985560995580f35b60405162461bcd60e51b815260206004820152601c60248201527f5468726573686f6c642063616e6e6f74206578636565642031303025000000006044820152606490fd5b503461028e57602036600319011261028e57611024611cac565b7f00000000000000000000000000000000000000000000000000000000000000006001600160a01b031633036110c05781907f00000000000000000000000000000000000000000000000000000000000000006001600160a01b031690813b1561050d576040516351b27a6d60e11b81526001600160a01b0390911660048201529082908290602490829084905af180156102915761027d5750f35b6346bf228160e01b8252600482fd5b503461028e57602036600319011261028e576004356001600160401b03811161039d57611100903690600401611eab565b61110b9291926122cf565b7f0000000000000000000000000000000000000000000000000000000000000000825b8281106112de57506001600160a01b0316803b156103355760405191634e5cd2fd60e11b835280604484013060048601526040602486015252606483019460648260051b8501019181869060be19813603015b8383106111a2578880898181808b0381838e5af180156102915761027d5750f35b9091929394606319888203018a52853582811215610331578301906111d86111ca838061236a565b60c0845260c084019161239e565b916001600160a01b036111ed60208301611cc2565b1660208301526020611202604083018361236a565b848603604086015280865294909101938c905b8082106112ae5750505063ffffffff61123060608301611d34565b16606083015263ffffffff61124760808301611d34565b16608083015260a0810135601e19823603018112156112aa570190602082359201906001600160401b0383116112aa5782360382136112aa578360209384938360a06112999560019903910152611fe3565b97019a019301919098939298611181565b8b80fd5b909194604080600192838060a01b036112c68a611cc2565b16815260208901356020820152019601920190611215565b909291829483955b6112fe6112f48585856122f2565b6040810190612314565b905087101561134e576113156112f48585856122f2565b88101561133a576001916020611332928a60061b01013590612349565b9601956112e6565b634e487b7160e01b86526032600452602486fd5b60019294959391965061138d9061137781308a611372602061034f898d33956122f2565b6126e5565b84611388602061034f868a8d6122f2565b61272e565b0161112e565b503461028e57602036600319011261028e57806113ae611cac565b6113b6612089565b7f00000000000000000000000000000000000000000000000000000000000000006001600160a01b031690813b1561050d5760405163a0169ddd60e01b81526001600160a01b0390911660048201529082908290602490829084905af180156102915761027d5750f35b503461028e57602036600319011261028e5761143a611cac565b50610422612089565b50346115b05760403660031901126115b05761145d611cac565b602435906001600160401b0382116115b057606060031983360301126115b05760405190606082018281106001600160401b038211176115c35760405282600401356001600160401b0381116115b0576114bd9060043691860101611e90565b8252602082019160248401358352604460408201940135845260018060a01b037f00000000000000000000000000000000000000000000000000000000000000001633036115b4577f00000000000000000000000000000000000000000000000000000000000000006001600160a01b031690813b156115b0575f61157893819560405197889687958694639926ee7d60e01b865260018060a01b0316600486015260406024860152516060604486015260a4850190611e46565b9151606484015251608483015203925af180156115a557611597575080f35b6115a391505f90611da2565b005b6040513d5f823e3d90fd5b5f80fd5b6346bf228160e01b5f5260045ffd5b634e487b7160e01b5f52604160045260245ffd5b346115b0575f3660031901126115b0576033546040516001600160a01b039091168152602090f35b346115b0575f3660031901126115b057602063ffffffff60975416604051908152f35b346115b05760203660031901126115b05763ffffffff611640611d21565b16805f52609a60205260ff60405f205416600381101561169357611688915f52609d60205261167160405f20611f2a565b906002604051938493604085526040850190611e46565b911460208301520390f35b634e487b7160e01b5f52602160045260245ffd5b346115b0576116b536611e08565b6116bd611fca565b506116c6611fca565b90815263ffffffff43166020820152604051602081019060208252611700816116f26040820186611e6a565b03601f198101835282611da2565b51902063ffffffff609754165f52609e60205260405f205563ffffffff609754165f52609a60205260405f2060ff19815416905560975490600163ffffffff8316807f58180a6a0403a63c2b5ce4b85d129d46a80d37851b2216bd0a98b59e7309b84760405160208152806117786020820188611e6a565b0390a2019163ffffffff83116117b25763ffffffff610c2393169063ffffffff191617609755604051918291602083526020830190611e6a565b634e487b7160e01b5f52601160045260245ffd5b346115b0575f3660031901126115b0576117de612089565b603380546001600160a01b031981169091555f906001600160a01b03167f8be0079c531659141344cd1fd0a4f28419497f9722a3daafe3b4186f6b6457e08280a3005b346115b0575f3660031901126115b0576040517f00000000000000000000000000000000000000000000000000000000000000006001600160a01b03168152602090f35b346115b0575f3660031901126115b0576040517f00000000000000000000000000000000000000000000000000000000000000006001600160a01b03168152602090f35b346115b05760203660031901126115b05763ffffffff6118c7611d21565b165f52609b60205260405f206040519081602082549182815201915f5260205f20905f5b81811061190e57610c238561190281870382611da2565b60405191829182611d45565b82546001600160a01b03168452602090930192600192830192016118eb565b346115b0575f3660031901126115b0576020609854604051908152f35b346115b05760203660031901126115b0576115a3611966611cac565b610aa0612089565b346115b05760203660031901126115b057611987611cac565b6040516302e0740360e31b81525f816004817f00000000000000000000000000000000000000000000000000000000000000006001600160a01b03165afa9081156115a5575f91611c22575b5090815151906119e282611edb565b906119f06040519283611da2565b8282526119fc83611edb565b602083019490601f19013686375f5b848110611bf457505060408051639004134760e01b81526001600160a01b0390921660048301526024820152815160448201819052909384916064830191905f5b818110611bd257505f939283900391508290507f00000000000000000000000000000000000000000000000000000000000000006001600160a01b03165afa9283156115a5575f93611b40575b505f805b838110611b145750611aae906121f7565b925f905f5b848110611ac85760405180610c238882611d45565b611ad281836121e3565b51611ae0575b600101611ab3565b91600190611b0c906001600160a01b03611afa86886121e3565b5116611b06828a6121e3565b5261207b565b929050611ad8565b611b1e81866121e3565b51611b2c575b600101611a9d565b90611b3860019161207b565b919050611b24565b9092503d805f833e611b528183611da2565b8101906020818303126115b0578051906001600160401b0382116115b057019080601f830112156115b0578151611b8881611edb565b92611b966040519485611da2565b81845260208085019260051b8201019283116115b057602001905b828210611bc2575050509183611a99565b8151815260209182019101611bb1565b82516001600160a01b0316845287945060209384019390920191600101611a4c565b600190818060a09895981b03611c0b8285516121e3565b515116611c1882876121e3565b5201949194611a0b565b611c3691503d805f833e610ceb8183611da2565b826119d3565b346115b05760203660031901126115b05763ffffffff611c5a611d21565b165f52609e602052602060405f2054604051908152f35b346115b05760203660031901126115b057611c8a611cac565b506115a3612089565b346115b057611ca136611cd6565b5050506115a3612089565b600435906001600160a01b03821682036115b057565b35906001600160a01b03821682036115b057565b60609060031901126115b0576004356001600160a01b03811681036115b057906024356001600160a01b03811681036115b057906044356001600160e01b0319811681036115b05790565b6004359063ffffffff821682036115b057565b359063ffffffff821682036115b057565b60206040818301928281528451809452019201905f5b818110611d685750505090565b82516001600160a01b0316845260209384019390920191600101611d5b565b604081019081106001600160401b038211176115c357604052565b90601f801991011681019081106001600160401b038211176115c357604052565b9291926001600160401b0382116115c35760405191611dec601f8201601f191660200184611da2565b8294818452818301116115b0578281602093845f960137010152565b60206003198201126115b057600435906001600160401b0382116115b057806023830112156115b057816024611e4393600401359101611dc3565b90565b805180835260209291819084018484015e5f828201840152601f01601f1916010190565b90602063ffffffff81611e868551604086526040860190611e46565b9401511691015290565b9080601f830112156115b057816020611e4393359101611dc3565b9181601f840112156115b0578235916001600160401b0383116115b0576020808501948460051b0101116115b057565b6001600160401b0381116115c35760051b60200190565b90600182811c92168015611f20575b6020831014611f0c57565b634e487b7160e01b5f52602260045260245ffd5b91607f1691611f01565b9060405191825f825492611f3d84611ef2565b8084529360018116908115611fa85750600114611f64575b50611f6292500383611da2565b565b90505f9291925260205f20905f915b818310611f8c575050906020611f62928201015f611f55565b6020919350806001915483858901015201910190918492611f73565b905060209250611f6294915060ff191682840152151560051b8201015f611f55565b60405190611fd782611d87565b5f602083606081520152565b908060209392818452848401375f828201840152601f01601f1916010190565b601f821161201057505050565b5f5260205f20906020601f840160051c83019310612048575b601f0160051c01905b81811061203d575050565b5f8155600101612032565b9091508190612029565b8054821015612067575f5260205f2001905f90565b634e487b7160e01b5f52603260045260245ffd5b5f1981146117b25760010190565b6033546001600160a01b0316330361209d57565b606460405162461bcd60e51b815260206004820152602060248201527f4f776e61626c653a2063616c6c6572206973206e6f7420746865206f776e65726044820152fd5b6020818303126115b0578051906001600160401b0382116115b05701906020828203126115b05760405191602083018381106001600160401b038211176115c3576040528051906001600160401b0382116115b0570181601f820112156115b05780519061214e82611edb565b9261215c6040519485611da2565b82845260208085019360061b830101918183116115b057602001925b8284106121885750505050815290565b6040848303126115b0576040519061219f82611d87565b84516001600160a01b03811681036115b05782526020850151906bffffffffffffffffffffffff821682036115b05782602092836040950152815201930192612178565b80518210156120675760209160051b010190565b9061220182611edb565b61220e6040519182611da2565b828152809261221f601f1991611edb565b0190602036910137565b606554604080516001600160a01b038084168252841660208201529192917fe11cddf1816a43318ca175bbc52cd0185436e9cbead7c83acc54a73e461717e39190a16001600160a01b03166001600160a01b03199190911617606555565b603380546001600160a01b039283166001600160a01b0319821681179092559091167f8be0079c531659141344cd1fd0a4f28419497f9722a3daafe3b4186f6b6457e05f80a3565b6065546001600160a01b031633036122e357565b638e79fdb560e01b5f5260045ffd5b91908110156120675760051b8101359060be19813603018212156115b0570190565b903590601e19813603018212156115b057018035906001600160401b0382116115b057602001918160061b360383136115b057565b919082018092116117b257565b356001600160a01b03811681036115b05790565b9035601e19823603018112156115b05701602081359101916001600160401b0382116115b0578160061b360383136115b057565b916020908281520191905f905b8082106123b85750505090565b909192833560018060a01b0381168091036115b05781526020840135906bffffffffffffffffffffffff82168092036115b0576040816001936020839401520194019201906123ab565b63ffffffff16805f52609b60205260405f205460985481106126bf576060905f905f5b81811061263a575061271082029180830461271014901517156117b25780156126265760995491041015612457575050565b815f52609a60205260405f20600260ff19825416179055815f52609d60205260405f2081516001600160401b0381116115c357612498816106e68454611ef2565b6020601f82116001146125c65790806124c5925f916125bb575b508160011b915f199060031b1c19161790565b90555b815f52609b60205260405f20545f60208301905b8281106125245750505061251f7f717054e12d1c28eb8880f00b72660a874ddba5eaba5a5a9994011648f5acea6691604051918291602083526020830190611e46565b0390a2565b600190855f52609b6020528561253d8260405f20612052565b848060a01b0391549060031b1c16805f52609f60205260405f20825f5260205261256960405f20611f2a565b602081519101208751862014612582575b5050016124dc565b7f7bb03d9adf04498e7d816ba1da47b33f38c0fe782e8b2d92d767b5ef91b4ec156020604051670de0b6b3a76400008152a3855f61257a565b90508401515f6124b2565b601f19821690835f52805f20915f5b81811061260e575090836001949392106125f6575b5050811b0190556124c8565b8501515f1960f88460031b161c191690555f806125ea565b9192602060018192868a0151815501940192016125d5565b634e487b7160e01b5f52601260045260245ffd5b845f52609b60205261264f8160405f20612052565b60018060a01b0391549060031b1c165f52609f60205260405f20855f5260205261267b60405f20611f2a565b855f52609c60205260405f2060206040518092845180848701845e820190815203019020548481116126b2575b5050600101612425565b909450925060015f6126a8565b5050565b91908110156120675760051b81013590609e19813603018212156115b0570190565b6040516323b872dd60e01b60208201526001600160a01b039283166024820152929091166044830152606480830193909352918152611f6291612729608483611da2565b612857565b604051636eb1769f60e11b81523060048201526001600160a01b038381166024830152821693602082604481885afa80156115a5575f90612823575b6127749250612349565b9260205f604051948286019063095ea7b360e01b825260018060a01b0316968760248801526044870152604486526127ad606487611da2565b85519082865af1903d5f519083612804575b505050156127cc57505050565b612729611f62936040519063095ea7b360e01b602083015260248201525f6044820152604481526127fe606482611da2565b82612857565b9192509061281957503b15155b5f80806127bf565b6001915014612811565b506020823d60201161284f575b8161283d60209383611da2565b810103126115b057612774915161276a565b3d9150612830565b905f602091828151910182855af1156115a5575f513d6128a657506001600160a01b0381163b155b6128865750565b635274afe760e01b5f9081526001600160a01b0391909116600452602490fd5b6001141561287f56fea2646970667358221220658ac638090f6a61dd46fdc39cc5ba97561002d9f6d556f9d38311535040af5f64736f6c634300081a0033","linkReferences":{}},"methodIdentifiers":{"addPendingAdmin(address)":"279432eb","allTaskHashes(uint32)":"2d89f6fc","allTaskResponses(address,uint32)":"c20bab7f","allocationManager()":"ca8aa7c7","avsDirectory()":"6b3aa72e","consensusResult(uint32)":"e7f26658","consensusThreshold()":"f9b0b5b9","createAVSRewardsSubmission(((address,uint96)[],address,uint256,uint32,uint32)[])":"fce36c7d","createNewTask(string)":"85edf874","createOperatorDirectedAVSRewardsSubmission(((address,uint96)[],address,(address,uint256)[],uint32,uint32,string)[])":"a20b99bf","deregisterOperatorFromAVS(address)":"a364f4da","deregisterOperatorFromOperatorSets(address,uint32[])":"c1a8e2c5","getConsensusResult(uint32)":"86e6ddcc","getOperatorRestakedStrategies(address)":"33cfb7b7","getRestakeableStrategies()":"e481af9d","initialize(address,address,uint256,uint256)":"eb990c59","latestTaskNum()":"8b00ce7c","minimumResponses()":"54bcd7ff","owner()":"8da5cb5b","registerOperatorToAVS(address,(bytes,bytes32,uint256))":"9926ee7d","removeAdmin(address)":"1785f53c","removeAppointee(address,address,bytes4)":"ba550880","removePendingAdmin(address)":"9da16d8e","renounceOwnership()":"715018a6","respondToTask(uint32,bytes)":"eeed7056","responseVotes(uint32,bytes)":"d0e1f258","rewardsInitiator()":"fc299dee","setAVSRegistrar(address)":"f25f1610","setAppointee(address,address,bytes4)":"1fdb0cfd","setClaimerFor(address)":"a0169ddd","setRewardsInitiator(address)":"3bc28c8c","stakeRegistry()":"68304835","taskRespondents(uint32)":"5b09fce1","taskStatus(uint32)":"acbe1036","transferOwnership(address)":"f2fde38b","updateAVSMetadataURI(string)":"a98fb355","updateConsensusParameters(uint256,uint256)":"a65feaf0"},"id":73}