{"abi":[{"type":"constructor","inputs":[{"name":"_poolManager","type":"address","internalType":"contract IPoolManager"},{"name":"_posm","type":"address","internalType":"contract PoolModifyLiquidityTest"},{"name":"_poolCreationHelper","type":"address","internalType":"contract PoolCreationHelper"}],"stateMutability":"nonpayable"},{"type":"function","name":"TICK_SPACING","inputs":[],"outputs":[{"name":"","type":"int24","internalType":"int24"}],"stateMutability":"view"},{"type":"function","name":"afterAddLiquidity","inputs":[{"name":"sender","type":"address","internalType":"address"},{"name":"key","type":"tuple","internalType":"struct PoolKey","components":[{"name":"currency0","type":"address","internalType":"Currency"},{"name":"currency1","type":"address","internalType":"Currency"},{"name":"fee","type":"uint24","internalType":"uint24"},{"name":"tickSpacing","type":"int24","internalType":"int24"},{"name":"hooks","type":"address","internalType":"contract IHooks"}]},{"name":"params","type":"tuple","internalType":"struct IPoolManager.ModifyLiquidityParams","components":[{"name":"tickLower","type":"int24","internalType":"int24"},{"name":"tickUpper","type":"int24","internalType":"int24"},{"name":"liquidityDelta","type":"int256","internalType":"int256"},{"name":"salt","type":"bytes32","internalType":"bytes32"}]},{"name":"delta","type":"int256","internalType":"BalanceDelta"},{"name":"feesAccrued","type":"int256","internalType":"BalanceDelta"},{"name":"hookData","type":"bytes","internalType":"bytes"}],"outputs":[{"name":"","type":"bytes4","internalType":"bytes4"},{"name":"","type":"int256","internalType":"BalanceDelta"}],"stateMutability":"nonpayable"},{"type":"function","name":"afterDonate","inputs":[{"name":"sender","type":"address","internalType":"address"},{"name":"key","type":"tuple","internalType":"struct PoolKey","components":[{"name":"currency0","type":"address","internalType":"Currency"},{"name":"currency1","type":"address","internalType":"Currency"},{"name":"fee","type":"uint24","internalType":"uint24"},{"name":"tickSpacing","type":"int24","internalType":"int24"},{"name":"hooks","type":"address","internalType":"contract IHooks"}]},{"name":"amount0","type":"uint256","internalType":"uint256"},{"name":"amount1","type":"uint256","internalType":"uint256"},{"name":"hookData","type":"bytes","internalType":"bytes"}],"outputs":[{"name":"","type":"bytes4","internalType":"bytes4"}],"stateMutability":"nonpayable"},{"type":"function","name":"afterInitialize","inputs":[{"name":"sender","type":"address","internalType":"address"},{"name":"key","type":"tuple","internalType":"struct PoolKey","components":[{"name":"currency0","type":"address","internalType":"Currency"},{"name":"currency1","type":"address","internalType":"Currency"},{"name":"fee","type":"uint24","internalType":"uint24"},{"name":"tickSpacing","type":"int24","internalType":"int24"},{"name":"hooks","type":"address","internalType":"contract IHooks"}]},{"name":"sqrtPriceX96","type":"uint160","internalType":"uint160"},{"name":"tick","type":"int24","internalType":"int24"}],"outputs":[{"name":"","type":"bytes4","internalType":"bytes4"}],"stateMutability":"nonpayable"},{"type":"function","name":"afterRemoveLiquidity","inputs":[{"name":"sender","type":"address","internalType":"address"},{"name":"key","type":"tuple","internalType":"struct PoolKey","components":[{"name":"currency0","type":"address","internalType":"Currency"},{"name":"currency1","type":"address","internalType":"Currency"},{"name":"fee","type":"uint24","internalType":"uint24"},{"name":"tickSpacing","type":"int24","internalType":"int24"},{"name":"hooks","type":"address","internalType":"contract IHooks"}]},{"name":"params","type":"tuple","internalType":"struct IPoolManager.ModifyLiquidityParams","components":[{"name":"tickLower","type":"int24","internalType":"int24"},{"name":"tickUpper","type":"int24","internalType":"int24"},{"name":"liquidityDelta","type":"int256","internalType":"int256"},{"name":"salt","type":"bytes32","internalType":"bytes32"}]},{"name":"delta","type":"int256","internalType":"BalanceDelta"},{"name":"feesAccrued","type":"int256","internalType":"BalanceDelta"},{"name":"hookData","type":"bytes","internalType":"bytes"}],"outputs":[{"name":"","type":"bytes4","internalType":"bytes4"},{"name":"","type":"int256","internalType":"BalanceDelta"}],"stateMutability":"nonpayable"},{"type":"function","name":"afterSwap","inputs":[{"name":"sender","type":"address","internalType":"address"},{"name":"key","type":"tuple","internalType":"struct PoolKey","components":[{"name":"currency0","type":"address","internalType":"Currency"},{"name":"currency1","type":"address","internalType":"Currency"},{"name":"fee","type":"uint24","internalType":"uint24"},{"name":"tickSpacing","type":"int24","internalType":"int24"},{"name":"hooks","type":"address","internalType":"contract IHooks"}]},{"name":"params","type":"tuple","internalType":"struct IPoolManager.SwapParams","components":[{"name":"zeroForOne","type":"bool","internalType":"bool"},{"name":"amountSpecified","type":"int256","internalType":"int256"},{"name":"sqrtPriceLimitX96","type":"uint160","internalType":"uint160"}]},{"name":"delta","type":"int256","internalType":"BalanceDelta"},{"name":"hookData","type":"bytes","internalType":"bytes"}],"outputs":[{"name":"","type":"bytes4","internalType":"bytes4"},{"name":"","type":"int128","internalType":"int128"}],"stateMutability":"nonpayable"},{"type":"function","name":"beforeAddLiquidity","inputs":[{"name":"sender","type":"address","internalType":"address"},{"name":"key","type":"tuple","internalType":"struct PoolKey","components":[{"name":"currency0","type":"address","internalType":"Currency"},{"name":"currency1","type":"address","internalType":"Currency"},{"name":"fee","type":"uint24","internalType":"uint24"},{"name":"tickSpacing","type":"int24","internalType":"int24"},{"name":"hooks","type":"address","internalType":"contract IHooks"}]},{"name":"params","type":"tuple","internalType":"struct IPoolManager.ModifyLiquidityParams","components":[{"name":"tickLower","type":"int24","internalType":"int24"},{"name":"tickUpper","type":"int24","internalType":"int24"},{"name":"liquidityDelta","type":"int256","internalType":"int256"},{"name":"salt","type":"bytes32","internalType":"bytes32"}]},{"name":"hookData","type":"bytes","internalType":"bytes"}],"outputs":[{"name":"","type":"bytes4","internalType":"bytes4"}],"stateMutability":"nonpayable"},{"type":"function","name":"beforeDonate","inputs":[{"name":"sender","type":"address","internalType":"address"},{"name":"key","type":"tuple","internalType":"struct PoolKey","components":[{"name":"currency0","type":"address","internalType":"Currency"},{"name":"currency1","type":"address","internalType":"Currency"},{"name":"fee","type":"uint24","internalType":"uint24"},{"name":"tickSpacing","type":"int24","internalType":"int24"},{"name":"hooks","type":"address","internalType":"contract IHooks"}]},{"name":"amount0","type":"uint256","internalType":"uint256"},{"name":"amount1","type":"uint256","internalType":"uint256"},{"name":"hookData","type":"bytes","internalType":"bytes"}],"outputs":[{"name":"","type":"bytes4","internalType":"bytes4"}],"stateMutability":"nonpayable"},{"type":"function","name":"beforeInitialize","inputs":[{"name":"sender","type":"address","internalType":"address"},{"name":"key","type":"tuple","internalType":"struct PoolKey","components":[{"name":"currency0","type":"address","internalType":"Currency"},{"name":"currency1","type":"address","internalType":"Currency"},{"name":"fee","type":"uint24","internalType":"uint24"},{"name":"tickSpacing","type":"int24","internalType":"int24"},{"name":"hooks","type":"address","internalType":"contract IHooks"}]},{"name":"sqrtPriceX96","type":"uint160","internalType":"uint160"}],"outputs":[{"name":"","type":"bytes4","internalType":"bytes4"}],"stateMutability":"nonpayable"},{"type":"function","name":"beforeRemoveLiquidity","inputs":[{"name":"sender","type":"address","internalType":"address"},{"name":"key","type":"tuple","internalType":"struct PoolKey","components":[{"name":"currency0","type":"address","internalType":"Currency"},{"name":"currency1","type":"address","internalType":"Currency"},{"name":"fee","type":"uint24","internalType":"uint24"},{"name":"tickSpacing","type":"int24","internalType":"int24"},{"name":"hooks","type":"address","internalType":"contract IHooks"}]},{"name":"params","type":"tuple","internalType":"struct IPoolManager.ModifyLiquidityParams","components":[{"name":"tickLower","type":"int24","internalType":"int24"},{"name":"tickUpper","type":"int24","internalType":"int24"},{"name":"liquidityDelta","type":"int256","internalType":"int256"},{"name":"salt","type":"bytes32","internalType":"bytes32"}]},{"name":"hookData","type":"bytes","internalType":"bytes"}],"outputs":[{"name":"","type":"bytes4","internalType":"bytes4"}],"stateMutability":"nonpayable"},{"type":"function","name":"beforeSwap","inputs":[{"name":"sender","type":"address","internalType":"address"},{"name":"key","type":"tuple","internalType":"struct PoolKey","components":[{"name":"currency0","type":"address","internalType":"Currency"},{"name":"currency1","type":"address","internalType":"Currency"},{"name":"fee","type":"uint24","internalType":"uint24"},{"name":"tickSpacing","type":"int24","internalType":"int24"},{"name":"hooks","type":"address","internalType":"contract IHooks"}]},{"name":"params","type":"tuple","internalType":"struct IPoolManager.SwapParams","components":[{"name":"zeroForOne","type":"bool","internalType":"bool"},{"name":"amountSpecified","type":"int256","internalType":"int256"},{"name":"sqrtPriceLimitX96","type":"uint160","internalType":"uint160"}]},{"name":"hookData","type":"bytes","internalType":"bytes"}],"outputs":[{"name":"","type":"bytes4","internalType":"bytes4"},{"name":"","type":"int256","internalType":"BeforeSwapDelta"},{"name":"","type":"uint24","internalType":"uint24"}],"stateMutability":"nonpayable"},{"type":"function","name":"cancelMarket","inputs":[{"name":"marketId","type":"bytes32","internalType":"bytes32"}],"outputs":[],"stateMutability":"nonpayable"},{"type":"function","name":"claimWinnings","inputs":[{"name":"marketId","type":"bytes32","internalType":"bytes32"}],"outputs":[],"stateMutability":"nonpayable"},{"type":"function","name":"claimedTokens","inputs":[{"name":"marketId","type":"bytes32","internalType":"bytes32"}],"outputs":[{"name":"","type":"uint256","internalType":"uint256"}],"stateMutability":"view"},{"type":"function","name":"createMarketAndDepositCollateral","inputs":[{"name":"params","type":"tuple","internalType":"struct CreateMarketParams","components":[{"name":"oracle","type":"address","internalType":"address"},{"name":"creator","type":"address","internalType":"address"},{"name":"collateralAddress","type":"address","internalType":"address"},{"name":"collateralAmount","type":"uint256","internalType":"uint256"},{"name":"title","type":"string","internalType":"string"},{"name":"description","type":"string","internalType":"string"},{"name":"duration","type":"uint256","internalType":"uint256"}]}],"outputs":[{"name":"","type":"bytes32","internalType":"bytes32"}],"stateMutability":"nonpayable"},{"type":"function","name":"getHookPermissions","inputs":[],"outputs":[{"name":"","type":"tuple","internalType":"struct Hooks.Permissions","components":[{"name":"beforeInitialize","type":"bool","internalType":"bool"},{"name":"afterInitialize","type":"bool","internalType":"bool"},{"name":"beforeAddLiquidity","type":"bool","internalType":"bool"},{"name":"afterAddLiquidity","type":"bool","internalType":"bool"},{"name":"beforeRemoveLiquidity","type":"bool","internalType":"bool"},{"name":"afterRemoveLiquidity","type":"bool","internalType":"bool"},{"name":"beforeSwap","type":"bool","internalType":"bool"},{"name":"afterSwap","type":"bool","internalType":"bool"},{"name":"beforeDonate","type":"bool","internalType":"bool"},{"name":"afterDonate","type":"bool","internalType":"bool"},{"name":"beforeSwapReturnDelta","type":"bool","internalType":"bool"},{"name":"afterSwapReturnDelta","type":"bool","internalType":"bool"},{"name":"afterAddLiquidityReturnDelta","type":"bool","internalType":"bool"},{"name":"afterRemoveLiquidityReturnDelta","type":"bool","internalType":"bool"}]}],"stateMutability":"pure"},{"type":"function","name":"getMarketById","inputs":[{"name":"marketId","type":"bytes32","internalType":"bytes32"}],"outputs":[{"name":"","type":"tuple","internalType":"struct Market","components":[{"name":"yesPoolKey","type":"tuple","internalType":"struct PoolKey","components":[{"name":"currency0","type":"address","internalType":"Currency"},{"name":"currency1","type":"address","internalType":"Currency"},{"name":"fee","type":"uint24","internalType":"uint24"},{"name":"tickSpacing","type":"int24","internalType":"int24"},{"name":"hooks","type":"address","internalType":"contract IHooks"}]},{"name":"noPoolKey","type":"tuple","internalType":"struct PoolKey","components":[{"name":"currency0","type":"address","internalType":"Currency"},{"name":"currency1","type":"address","internalType":"Currency"},{"name":"fee","type":"uint24","internalType":"uint24"},{"name":"tickSpacing","type":"int24","internalType":"int24"},{"name":"hooks","type":"address","internalType":"contract IHooks"}]},{"name":"oracle","type":"address","internalType":"address"},{"name":"creator","type":"address","internalType":"address"},{"name":"yesToken","type":"address","internalType":"contract OutcomeToken"},{"name":"noToken","type":"address","internalType":"contract OutcomeToken"},{"name":"state","type":"uint8","internalType":"enum MarketState"},{"name":"outcome","type":"bool","internalType":"bool"},{"name":"totalCollateral","type":"uint256","internalType":"uint256"},{"name":"collateralAddress","type":"address","internalType":"address"},{"name":"title","type":"string","internalType":"string"},{"name":"description","type":"string","internalType":"string"},{"name":"endTimestamp","type":"uint256","internalType":"uint256"}]}],"stateMutability":"view"},{"type":"function","name":"hasClaimed","inputs":[{"name":"marketId","type":"bytes32","internalType":"bytes32"},{"name":"user","type":"address","internalType":"address"}],"outputs":[{"name":"","type":"bool","internalType":"bool"}],"stateMutability":"view"},{"type":"function","name":"marketCount","inputs":[],"outputs":[{"name":"","type":"uint256","internalType":"uint256"}],"stateMutability":"view"},{"type":"function","name":"marketPoolIds","inputs":[{"name":"index","type":"uint256","internalType":"uint256"}],"outputs":[{"name":"","type":"bytes32","internalType":"PoolId"}],"stateMutability":"view"},{"type":"function","name":"markets","inputs":[{"name":"poolId","type":"bytes32","internalType":"PoolId"}],"outputs":[{"name":"","type":"tuple","internalType":"struct Market","components":[{"name":"yesPoolKey","type":"tuple","internalType":"struct PoolKey","components":[{"name":"currency0","type":"address","internalType":"Currency"},{"name":"currency1","type":"address","internalType":"Currency"},{"name":"fee","type":"uint24","internalType":"uint24"},{"name":"tickSpacing","type":"int24","internalType":"int24"},{"name":"hooks","type":"address","internalType":"contract IHooks"}]},{"name":"noPoolKey","type":"tuple","internalType":"struct PoolKey","components":[{"name":"currency0","type":"address","internalType":"Currency"},{"name":"currency1","type":"address","internalType":"Currency"},{"name":"fee","type":"uint24","internalType":"uint24"},{"name":"tickSpacing","type":"int24","internalType":"int24"},{"name":"hooks","type":"address","internalType":"contract IHooks"}]},{"name":"oracle","type":"address","internalType":"address"},{"name":"creator","type":"address","internalType":"address"},{"name":"yesToken","type":"address","internalType":"contract OutcomeToken"},{"name":"noToken","type":"address","internalType":"contract OutcomeToken"},{"name":"state","type":"uint8","internalType":"enum MarketState"},{"name":"outcome","type":"bool","internalType":"bool"},{"name":"totalCollateral","type":"uint256","internalType":"uint256"},{"name":"collateralAddress","type":"address","internalType":"address"},{"name":"title","type":"string","internalType":"string"},{"name":"description","type":"string","internalType":"string"},{"name":"endTimestamp","type":"uint256","internalType":"uint256"}]}],"stateMutability":"view"},{"type":"function","name":"poolCreationHelper","inputs":[],"outputs":[{"name":"","type":"address","internalType":"contract PoolCreationHelper"}],"stateMutability":"view"},{"type":"function","name":"poolManager","inputs":[],"outputs":[{"name":"","type":"address","internalType":"contract IPoolManager"}],"stateMutability":"view"},{"type":"function","name":"poolm","inputs":[],"outputs":[{"name":"","type":"address","internalType":"contract IPoolManager"}],"stateMutability":"view"},{"type":"function","name":"posm","inputs":[],"outputs":[{"name":"","type":"address","internalType":"contract PoolModifyLiquidityTest"}],"stateMutability":"view"},{"type":"function","name":"resolveMarket","inputs":[{"name":"marketId","type":"bytes32","internalType":"bytes32"},{"name":"outcome","type":"bool","internalType":"bool"}],"outputs":[],"stateMutability":"nonpayable"},{"type":"event","name":"PoolCreated","inputs":[{"name":"poolId","type":"bytes32","indexed":false,"internalType":"PoolId"}],"anonymous":false},{"type":"event","name":"WinningsClaimed","inputs":[{"name":"marketId","type":"bytes32","indexed":true,"internalType":"bytes32"},{"name":"user","type":"address","indexed":true,"internalType":"address"},{"name":"amount","type":"uint256","indexed":false,"internalType":"uint256"}],"anonymous":false},{"type":"error","name":"AlreadyClaimed","inputs":[]},{"type":"error","name":"DirectLiquidityNotAllowed","inputs":[]},{"type":"error","name":"DirectSwapsNotAllowed","inputs":[]},{"type":"error","name":"HookNotImplemented","inputs":[]},{"type":"error","name":"MarketAlreadyResolved","inputs":[]},{"type":"error","name":"MarketNotResolved","inputs":[]},{"type":"error","name":"NoTokensToClaim","inputs":[]},{"type":"error","name":"NotOracle","inputs":[]},{"type":"error","name":"NotOracleOrCreator","inputs":[]},{"type":"error","name":"NotPoolManager","inputs":[]}],"bytecode":{"object":"0x60a06040526002805462ffffff60a01b1916601960a21b179055348015610024575f5ffd5b506040516146f23803806146f28339810160408190526100439161030b565b6001600160a01b0383166080528261005a3061009c565b505f80546001600160a01b039485166001600160a01b031991821617909155600180549385169382169390931790925560028054919093169116179055610355565b61018f8161018a604080516101c0810182525f80825260208201819052918101829052606081018290526080810182905260a0810182905260c0810182905260e08101829052610100810182905261012081018290526101408101829052610160810182905261018081018290526101a081019190915250604080516101c0810182525f808252602082018190526001928201839052606082018190526080820183905260a0820181905260c082019290925260e08101829052610100810182905261012081018290526101408101829052610160810182905261018081018290526101a081019190915290565b610192565b50565b80511515612000831615151415806101b65750602081015115156110008316151514155b806101cd5750604081015115156108008316151514155b806101e45750606081015115156104008316151514155b806101fb5750608081015115156102008316151514155b80610212575060a081015115156101008316151514155b80610228575060c0810151151560808316151514155b8061023e575060e0810151151560408316151514155b806102555750610100810151151560208316151514155b8061026c5750610120810151151560108316151514155b806102835750610140810151151560088316151514155b8061029a5750610160810151151560048316151514155b806102b15750610180810151151560028316151514155b806102c857506101a0810151151560018316151514155b156102de576102de630732d7b560e51b836102e2565b5050565b815f526001600160a01b03811660045260245ffd5b6001600160a01b038116811461018f575f5ffd5b5f5f5f6060848603121561031d575f5ffd5b8351610328816102f7565b6020850151909350610339816102f7565b604085015190925061034a816102f7565b809150509250925092565b60805161434d6103a55f395f81816104f801528181610567015281816105c8015281816106210152818161068a01528181610b1b015281816116eb015281816117520152611888015261434d5ff3fe608060405234801561000f575f5ffd5b50600436106101a5575f3560e01c8063b47b2fb1116100e8578063c4e833ce11610093578063e1b4af691161006e578063e1b4af6914610386578063e49b606c1461052d578063ec97908214610540578063f2f746e714610548575f5ffd5b8063c4e833ce146103fc578063dc4c90d3146104f3578063dc98354e1461051a575f5ffd5b8063bc8aac57116100c3578063bc8aac57146103b8578063bdb83289146103ca578063c441b239146103dd575f5ffd5b8063b47b2fb114610350578063b6a8b0fa14610386578063b798829014610399575f5ffd5b80636d9ce330116101535780637564912b1161012e5780637564912b146102f95780638e4a92b01461030c57806392a42d1d1461032d5780639f063efc14610253575f5ffd5b80636d9ce3301461029b5780636f70a7fa146102bb5780636fe7e6eb146102e6575f5ffd5b8063575e24b411610183578063575e24b4146102155780636c2bbe7e146102535780636c9f139414610286575f5ffd5b806321d0ee70146101a9578063259982e5146101da57806346ca626b146101ed575b5f5ffd5b6101bc6101b7366004612977565b61055b565b6040516001600160e01b031990911681526020015b60405180910390f35b6101bc6101e8366004612977565b6105bc565b6002805461020291600160a01b909104900b81565b60405160029190910b81526020016101d1565b6102286102233660046129fe565b610613565b604080516001600160e01b03199094168452602084019290925262ffffff16908201526060016101d1565b610266610261366004612a58565b61067d565b604080516001600160e01b031990931683526020830191909152016101d1565b610299610294366004612af0565b6106e7565b005b6102ae6102a9366004612b1e565b6107b9565b6040516101d19190612b97565b6001546102ce906001600160a01b031681565b6040516001600160a01b0390911681526020016101d1565b6101bc6102f4366004612d3a565b610b0f565b6102ae610307366004612b1e565b610b6e565b61031f61031a366004612d93565b610d45565b6040519081526020016101d1565b61034061033b366004612dd1565b6116b2565b60405190151581526020016101d1565b61036361035e366004612df4565b6116de565b604080516001600160e01b03199093168352600f9190910b6020830152016101d1565b6101bc610394366004612e75565b611746565b61031f6103a7366004612b1e565b5f9081526004602052604090205490565b5f546102ce906001600160a01b031681565b6102996103d8366004612b1e565b6117a9565b61031f6103eb366004612b1e565b5f9081526007602052604090205490565b6104e6604080516101c0810182525f80825260208201819052918101829052606081018290526080810182905260a0810182905260c0810182905260e08101829052610100810182905261012081018290526101408101829052610160810182905261018081018290526101a081019190915250604080516101c0810182525f808252602082018190526001928201839052606082018190526080820183905260a0820181905260c082019290925260e08101829052610100810182905261012081018290526101408101829052610160810182905261018081018290526101a081019190915290565b6040516101d19190612ecf565b6102ce7f000000000000000000000000000000000000000000000000000000000000000081565b6101bc610528366004612ff0565b61187c565b61029961053b366004612b1e565b6118d9565b60035461031f565b6002546102ce906001600160a01b031681565b5f336001600160a01b037f000000000000000000000000000000000000000000000000000000000000000016146105a55760405163570c108560e11b815260040160405180910390fd5b6105b28686868686611d71565b9695505050505050565b5f336001600160a01b037f000000000000000000000000000000000000000000000000000000000000000016146106065760405163570c108560e11b815260040160405180910390fd5b6105b286868686866120ef565b5f8080336001600160a01b037f0000000000000000000000000000000000000000000000000000000000000000161461065f5760405163570c108560e11b815260040160405180910390fd5b61066c8888888888612515565b925092509250955095509592505050565b5f80336001600160a01b037f000000000000000000000000000000000000000000000000000000000000000016146106c85760405163570c108560e11b815260040160405180910390fd5b6106d789898989898989612845565b9150915097509795505050505050565b5f828152600560205260409020600601546001600160a01b0316331461072057604051631bc2178f60e01b815260040160405180910390fd5b5f5f83815260056020526040902060090154600160a01b900460ff16600281111561074d5761074d612b35565b1461076b5760405163aa43cb2d60e01b815260040160405180910390fd5b5f918252600560205260409091206009018054600160a01b921515600160a81b027fffffffffffffffffffff0000ffffffffffffffffffffffffffffffffffffffff90911617919091179055565b61087d6040805161024081019091525f6101a082018181526101c083018290526101e083018290526102008301829052610220830191909152819081526040805160a0810182525f808252602082810182905292820181905260608201819052608082015291019081525f6020820181905260408201819052606082018190526080820181905260a09091019081526020015f151581526020015f81526020015f6001600160a01b0316815260200160608152602001606081526020015f81525090565b5f8281526005602081815260409283902083516102408101855281546001600160a01b039081166101a0830190815260018401548083166101c0850152600160a01b80820462ffffff9081166101e0870152600160b81b92839004600290810b610200880152808801548616610220880152938652895160a08082018c526003890154871682526004890154808816838c0152848104909316828d015293909104840b6060808301919091529887015485166080808301919091529786015260068601548416988501989098526007850154831696840196909652600884015482169483019490945260098301549081169482019490945293909260c085019291900460ff169081111561099357610993612b35565b60028111156109a4576109a4612b35565b81526009820154600160a81b900460ff1615156020820152600a8201546040820152600b8201546001600160a01b03166060820152600c820180546080909201916109ee90613037565b80601f0160208091040260200160405190810160405280929190818152602001828054610a1a90613037565b8015610a655780601f10610a3c57610100808354040283529160200191610a65565b820191905f5260205f20905b815481529060010190602001808311610a4857829003601f168201915b50505050508152602001600d82018054610a7e90613037565b80601f0160208091040260200160405190810160405280929190818152602001828054610aaa90613037565b8015610af55780601f10610acc57610100808354040283529160200191610af5565b820191905f5260205f20905b815481529060010190602001808311610ad857829003601f168201915b50505050508152602001600e820154815250509050919050565b5f336001600160a01b037f00000000000000000000000000000000000000000000000000000000000000001614610b595760405163570c108560e11b815260040160405180910390fd5b610b6585858585612860565b95945050505050565b610c326040805161024081019091525f6101a082018181526101c083018290526101e083018290526102008301829052610220830191909152819081526040805160a0810182525f808252602082810182905292820181905260608201819052608082015291019081525f6020820181905260408201819052606082018190526080820181905260a09091019081526020015f151581526020015f81526020015f6001600160a01b0316815260200160608152602001606081526020015f81525090565b610c3b8261287a565b604080516102408101825282546001600160a01b039081166101a0830190815260018501548083166101c085015262ffffff600160a01b80830482166101e0870152600160b81b92839004600290810b610200880152808901548616610220880152938652865160a0818101895260038a01548716825260048a0154808816602084810191909152848204909516838b015294909404850b60608083019190915260058a015487166080808401919091529388019190915260068901548616978701979097526007880154851696860196909652600887015484169085015260098601549283169084015291939260c085019260ff91909204169081111561099357610993612b35565b5f5f604051610d53906128e8565b6040808252600a908201527f4d61726b6574205945530000000000000000000000000000000000000000000060608201526080602082018190526003908201527f594553000000000000000000000000000000000000000000000000000000000060a082015260c001604051809103905ff080158015610dd5573d5f5f3e3d5ffd5b5090505f604051610de5906128e8565b60408082526009908201527f4d61726b6574204e4f000000000000000000000000000000000000000000000060608201526080602082018190526002908201527f4e4f00000000000000000000000000000000000000000000000000000000000060a082015260c001604051809103905ff080158015610e67573d5f5f3e3d5ffd5b5090506060840135806001600160a01b0384166340c10f19610e8f6040890160208a01613069565b6040516001600160e01b031960e084901b1681526001600160a01b039091166004820152602481018590526044015f604051808303815f87803b158015610ed4575f5ffd5b505af1158015610ee6573d5f5f3e3d5ffd5b5050506001600160a01b03841690506340c10f19610f0a6040890160208a01613069565b6040516001600160e01b031960e084901b1681526001600160a01b039091166004820152602481018490526044015f604051808303815f87803b158015610f4f575f5ffd5b505af1158015610f61573d5f5f3e3d5ffd5b50610f76925050506060870160408801613069565b6040517f23b872dd000000000000000000000000000000000000000000000000000000008152336004820152306024820152606088013560448201526001600160a01b0391909116906323b872dd906064016020604051808303815f875af1158015610fe4573d5f5f3e3d5ffd5b505050506040513d601f19601f820116820180604052508101906110089190613084565b505f6040518060a001604052808860400160208101906110289190613069565b6001600160a01b03168152602001866001600160a01b0316815260200161271062ffffff168152602001606460020b8152602001306001600160a01b031681525090505f6040518060a0016040528089604001602081019061108a9190613069565b6001600160a01b039081168252878116602083015261271060408084019190915260646060840152306080909301929092526002549151638a8801c960e01b81529293501690638a8801c9906110e490859060040161309f565b60a0604051808303815f875af1158015611100573d5f5f3e3d5ffd5b505050506040513d601f19601f820116820180604052508101906111249190613148565b50600254604051638a8801c960e01b81526001600160a01b0390911690638a8801c99061115590849060040161309f565b60a0604051808303815f875af1158015611171573d5f5f3e3d5ffd5b505050506040513d601f19601f820116820180604052508101906111959190613148565b5060a082205f9060a0832060408051602081019390935282015260600160408051601f1981840301815282825280516020918201206101a0840183528684528382018690529350908201906111ec908c018c613069565b6001600160a01b031681526020018a602001602081019061120d9190613069565b6001600160a01b0390811682528981166020830152881660408201526060015f81526020015f151581526020018a6060013581526020018a60400160208101906112579190613069565b6001600160a01b0316815260200161127260808c018c6131c2565b8080601f0160208091040260200160405190810160405280939291908181526020018383808284375f920191909152505050908252506020016112b860a08c018c6131c2565b8080601f0160208091040260200160405190810160405280939291908181526020018383808284375f920191909152505050908252506020016112ff60c08c013542613219565b81525060055f8381526020019081526020015f205f820151815f015f820151815f015f6101000a8154816001600160a01b0302191690836001600160a01b031602179055506020820151816001015f6101000a8154816001600160a01b0302191690836001600160a01b0316021790555060408201518160010160146101000a81548162ffffff021916908362ffffff16021790555060608201518160010160176101000a81548162ffffff021916908360020b62ffffff1602179055506080820151816002015f6101000a8154816001600160a01b0302191690836001600160a01b0316021790555050506020820151816003015f820151815f015f6101000a8154816001600160a01b0302191690836001600160a01b031602179055506020820151816001015f6101000a8154816001600160a01b0302191690836001600160a01b0316021790555060408201518160010160146101000a81548162ffffff021916908362ffffff16021790555060608201518160010160176101000a81548162ffffff021916908360020b62ffffff1602179055506080820151816002015f6101000a8154816001600160a01b0302191690836001600160a01b0316021790555050506040820151816006015f6101000a8154816001600160a01b0302191690836001600160a01b031602179055506060820151816007015f6101000a8154816001600160a01b0302191690836001600160a01b031602179055506080820151816008015f6101000a8154816001600160a01b0302191690836001600160a01b0316021790555060a0820151816009015f6101000a8154816001600160a01b0302191690836001600160a01b0316021790555060c08201518160090160146101000a81548160ff0219169083600281111561159f5761159f612b35565b021790555060e08201516009820180547fffffffffffffffffffff00ffffffffffffffffffffffffffffffffffffffffff16600160a81b92151592909202919091179055610100820151600a820155610120820151600b820180547fffffffffffffffffffffffff0000000000000000000000000000000000000000166001600160a01b03909216919091179055610140820151600c8201906116429082613278565b50610160820151600d8201906116589082613278565b5061018082015181600e01559050508060085f6116768660a0902090565b81526020019081526020015f20819055508060085f6116968560a0902090565b815260208101919091526040015f205598975050505050505050565b5f8281526006602090815260408083206001600160a01b038516845290915290205460ff165b92915050565b5f80336001600160a01b037f000000000000000000000000000000000000000000000000000000000000000016146117295760405163570c108560e11b815260040160405180910390fd5b611737888888888888612845565b91509150965096945050505050565b5f336001600160a01b037f000000000000000000000000000000000000000000000000000000000000000016146117905760405163570c108560e11b815260040160405180910390fd5b61179e878787878787612860565b979650505050505050565b5f818152600560205260409020600601546001600160a01b031633146117e257604051631bc2178f60e01b815260040160405180910390fd5b5f5f82815260056020526040902060090154600160a01b900460ff16600281111561180f5761180f612b35565b1461182d5760405163aa43cb2d60e01b815260040160405180910390fd5b5f90815260056020526040902060090180547fffffffffffffffffffffff00ffffffffffffffffffffffffffffffffffffffff1674020000000000000000000000000000000000000000179055565b5f336001600160a01b037f000000000000000000000000000000000000000000000000000000000000000016146118c65760405163570c108560e11b815260040160405180910390fd5b6118d1848484612860565b949350505050565b5f81815260056020526040902060016009820154600160a01b900460ff16600281111561190857611908612b35565b1461193f576040517f2e96c72600000000000000000000000000000000000000000000000000000000815260040160405180910390fd5b5f82815260066020908152604080832033845290915290205460ff1615611992576040517f646cf55800000000000000000000000000000000000000000000000000000000815260040160405180910390fd5b60098101545f90600160a81b900460ff16156119bc575060088101546001600160a01b03166119cc565b5060098101546001600160a01b03165b6040517f70a082310000000000000000000000000000000000000000000000000000000081523360048201525f906001600160a01b038316906370a0823190602401602060405180830381865afa158015611a29573d5f5f3e3d5ffd5b505050506040513d601f19601f82011682018060405250810190611a4d9190613333565b90505f8111611aa35760405162461bcd60e51b815260206004820152601260248201527f4e6f20746f6b656e7320746f20636c61696d000000000000000000000000000060448201526064015b60405180910390fd5b600b830154604080517f313ce56700000000000000000000000000000000000000000000000000000000815290515f926001600160a01b03169163313ce5679160048083019260209291908290030181865afa158015611b05573d5f5f3e3d5ffd5b505050506040513d601f19601f82011682018060405250810190611b29919061334a565b60ff1690505f611b3a82601261336a565b611b4590600a613460565b90505f611b52828561347f565b5f88815260076020526040812054600a8901549293509091611b74919061336a565b905080821115611bec5760405162461bcd60e51b815260206004820152602160248201527f496e73756666696369656e7420636f6c6c61746572616c2072656d61696e696e60448201527f67000000000000000000000000000000000000000000000000000000000000006064820152608401611a9a565b6040517f79cc6790000000000000000000000000000000000000000000000000000000008152336004820152602481018690526001600160a01b038716906379cc6790906044015f604051808303815f87803b158015611c4a575f5ffd5b505af1158015611c5c573d5f5f3e3d5ffd5b50505050600b8701546040517fa9059cbb000000000000000000000000000000000000000000000000000000008152336004820152602481018490526001600160a01b039091169063a9059cbb906044016020604051808303815f875af1158015611cc9573d5f5f3e3d5ffd5b505050506040513d601f19601f82011682018060405250810190611ced9190613084565b505f8881526007602052604081208054849290611d0b908490613219565b90915550505f8881526006602090815260408083203380855290835292819020805460ff19166001179055518481528a917fac1dfcff29900d7010c04a6028e48814b8a49daf045127abd10a4636d1d49115910160405180910390a35050505050505050565b5f80611d8c611d8536889003880188613492565b60a0902090565b90505f611d988261287a565b604080516102408101825282546001600160a01b039081166101a0830190815260018501548083166101c085015262ffffff600160a01b80830482166101e0870152600160b81b92839004600290810b610200880152808901548616610220880152938652865160a0818101895260038a01548716825260048a0154808816602084810191909152848204909516838b015294909404850b60608083019190915260058a015487166080808401919091529388019190915260068901548616978701979097526007880154851696860196909652600887015484169085015260098601549283169084015291939260c085019260ff919092041690811115611ea257611ea2612b35565b6002811115611eb357611eb3612b35565b81526009820154600160a81b900460ff1615156020820152600a8201546040820152600b8201546001600160a01b03166060820152600c82018054608090920191611efd90613037565b80601f0160208091040260200160405190810160405280929190818152602001828054611f2990613037565b8015611f745780601f10611f4b57610100808354040283529160200191611f74565b820191905f5260205f20905b815481529060010190602001808311611f5757829003601f168201915b50505050508152602001600d82018054611f8d90613037565b80601f0160208091040260200160405190810160405280929190818152602001828054611fb990613037565b80156120045780601f10611fdb57610100808354040283529160200191612004565b820191905f5260205f20905b815481529060010190602001808311611fe757829003601f168201915b5050509183525050600e919091015460209091015290505f8160c00151600281111561203257612032612b35565b146120735760405162461bcd60e51b81526020600482015260116024820152704d61726b6574206e6f742061637469766560781b6044820152606401611a9a565b60018160c00151600281111561208b5761208b612b35565b146120c2576040517fa43320e800000000000000000000000000000000000000000000000000000000815260040160405180910390fd5b507f21d0ee7000000000000000000000000000000000000000000000000000000000979650505050505050565b5f80612103611d8536889003880188613492565b90505f61210f8261287a565b604080516102408101825282546001600160a01b039081166101a0830190815260018501548083166101c085015262ffffff600160a01b80830482166101e0870152600160b81b92839004600290810b610200880152808901548616610220880152938652865160a0818101895260038a01548716825260048a0154808816602084810191909152848204909516838b015294909404850b60608083019190915260058a015487166080808401919091529388019190915260068901548616978701979097526007880154851696860196909652600887015484169085015260098601549283169084015291939260c085019260ff91909204169081111561221957612219612b35565b600281111561222a5761222a612b35565b81526009820154600160a81b900460ff1615156020820152600a8201546040820152600b8201546001600160a01b03166060820152600c8201805460809092019161227490613037565b80601f01602080910402602001604051908101604052809291908181526020018280546122a090613037565b80156122eb5780601f106122c2576101008083540402835291602001916122eb565b820191905f5260205f20905b8154815290600101906020018083116122ce57829003601f168201915b50505050508152602001600d8201805461230490613037565b80601f016020809104026020016040519081016040528092919081815260200182805461233090613037565b801561237b5780601f106123525761010080835404028352916020019161237b565b820191905f5260205f20905b81548152906001019060200180831161235e57829003601f168201915b5050509183525050600e919091015460209091015290505f8160c0015160028111156123a9576123a9612b35565b146123ea5760405162461bcd60e51b81526020600482015260116024820152704d61726b6574206e6f742061637469766560781b6044820152606401611a9a565b600280546123ef199160631991600160a01b9004900b61240a8184613500565b6124149190613538565b60028054919350600160a01b909104900b61242f8183613500565b6124399190613538565b9050600282900b61244d60208a018a613557565b60020b121580156124745750600281900b61246e60408a0160208b01613557565b60020b13155b6124e65760405162461bcd60e51b815260206004820152602d60248201527f506f736974696f6e206d7573742062652077697468696e20302e30312d302e3960448201527f392070726963652072616e6765000000000000000000000000000000000000006064820152608401611a9a565b507f259982e5000000000000000000000000000000000000000000000000000000009998505050505050505050565b5f80808061252b611d85368a90038a018a613492565b90505f6125378261287a565b604080516102408101825282546001600160a01b039081166101a0830190815260018501548083166101c085015262ffffff600160a01b80830482166101e0870152600160b81b92839004600290810b610200880152808901548616610220880152938652865160a0818101895260038a01548716825260048a0154808816602084810191909152848204909516838b015294909404850b60608083019190915260058a015487166080808401919091529388019190915260068901548616978701979097526007880154851696860196909652600887015484169085015260098601549283169084015291939260c085019260ff91909204169081111561264157612641612b35565b600281111561265257612652612b35565b81526009820154600160a81b900460ff1615156020820152600a8201546040820152600b8201546001600160a01b03166060820152600c8201805460809092019161269c90613037565b80601f01602080910402602001604051908101604052809291908181526020018280546126c890613037565b80156127135780601f106126ea57610100808354040283529160200191612713565b820191905f5260205f20905b8154815290600101906020018083116126f657829003601f168201915b50505050508152602001600d8201805461272c90613037565b80601f016020809104026020016040519081016040528092919081815260200182805461275890613037565b80156127a35780601f1061277a576101008083540402835291602001916127a3565b820191905f5260205f20905b81548152906001019060200180831161278657829003601f168201915b5050509183525050600e919091015460209091015290505f8160c0015160028111156127d1576127d1612b35565b146128125760405162461bcd60e51b81526020600482015260116024820152704d61726b6574206e6f742061637469766560781b6044820152606401611a9a565b507f575e24b400000000000000000000000000000000000000000000000000000000995f99508998509650505050505050565b5f5f604051630a85dc2960e01b815260040160405180910390fd5b5f604051630a85dc2960e01b815260040160405180910390fd5b5f81815260086020526040812054806128d55760405162461bcd60e51b815260206004820152601060248201527f4d61726b6574206e6f7420666f756e64000000000000000000000000000000006044820152606401611a9a565b5f90815260056020526040902092915050565b610da58061357383390190565b6001600160a01b0381168114612909575f5ffd5b50565b5f60a0828403121561291c575f5ffd5b50919050565b5f6080828403121561291c575f5ffd5b5f5f83601f840112612942575f5ffd5b50813567ffffffffffffffff811115612959575f5ffd5b602083019150836020828501011115612970575f5ffd5b9250929050565b5f5f5f5f5f610160868803121561298c575f5ffd5b8535612997816128f5565b94506129a6876020880161290c565b93506129b58760c08801612922565b925061014086013567ffffffffffffffff8111156129d1575f5ffd5b6129dd88828901612932565b969995985093965092949392505050565b5f6060828403121561291c575f5ffd5b5f5f5f5f5f6101408688031215612a13575f5ffd5b8535612a1e816128f5565b9450612a2d876020880161290c565b9350612a3c8760c088016129ee565b925061012086013567ffffffffffffffff8111156129d1575f5ffd5b5f5f5f5f5f5f5f6101a0888a031215612a6f575f5ffd5b8735612a7a816128f5565b9650612a898960208a0161290c565b9550612a988960c08a01612922565b94506101408801359350610160880135925061018088013567ffffffffffffffff811115612ac4575f5ffd5b612ad08a828b01612932565b989b979a50959850939692959293505050565b8015158114612909575f5ffd5b5f5f60408385031215612b01575f5ffd5b823591506020830135612b1381612ae3565b809150509250929050565b5f60208284031215612b2e575f5ffd5b5035919050565b634e487b7160e01b5f52602160045260245ffd5b60038110612b6557634e487b7160e01b5f52602160045260245ffd5b9052565b5f81518084528060208401602086015e5f602082860101526020601f19601f83011685010191505092915050565b60208152612bf76020820183516001600160a01b0381511682526001600160a01b03602082015116602083015262ffffff6040820151166040830152606081015160020b60608301526001600160a01b0360808201511660808301525050565b5f6020830151612c5860c08401826001600160a01b0381511682526001600160a01b03602082015116602083015262ffffff6040820151166040830152606081015160020b60608301526001600160a01b0360808201511660808301525050565b5060408301516001600160a01b0390811661016084015260608401518116610180840152608084015181166101a084015260a0840151166101c083015260c0830151612ca86101e0840182612b49565b5060e083015115156102008301526101008301516102208301526101208301516001600160a01b03166102408301526101408301516102a0610260840152612cf46102c0840182612b69565b9050610160840151601f1984830301610280850152612d138282612b69565b9150506101808401516102a08401528091505092915050565b8060020b8114612909575f5ffd5b5f5f5f5f6101008587031215612d4e575f5ffd5b8435612d59816128f5565b9350612d68866020870161290c565b925060c0850135612d78816128f5565b915060e0850135612d8881612d2c565b939692955090935050565b5f60208284031215612da3575f5ffd5b813567ffffffffffffffff811115612db9575f5ffd5b820160e08185031215612dca575f5ffd5b9392505050565b5f5f60408385031215612de2575f5ffd5b823591506020830135612b13816128f5565b5f5f5f5f5f5f6101608789031215612e0a575f5ffd5b8635612e15816128f5565b9550612e24886020890161290c565b9450612e338860c089016129ee565b9350610120870135925061014087013567ffffffffffffffff811115612e57575f5ffd5b612e6389828a01612932565b979a9699509497509295939492505050565b5f5f5f5f5f5f6101208789031215612e8b575f5ffd5b8635612e96816128f5565b9550612ea5886020890161290c565b945060c0870135935060e0870135925061010087013567ffffffffffffffff811115612e57575f5ffd5b8151151581526101c081016020830151612eed602084018215159052565b506040830151612f01604084018215159052565b506060830151612f15606084018215159052565b506080830151612f29608084018215159052565b5060a0830151612f3d60a084018215159052565b5060c0830151612f5160c084018215159052565b5060e0830151612f6560e084018215159052565b50610100830151612f7b61010084018215159052565b50610120830151612f9161012084018215159052565b50610140830151612fa761014084018215159052565b50610160830151612fbd61016084018215159052565b50610180830151612fd361018084018215159052565b506101a0830151612fe96101a084018215159052565b5092915050565b5f5f5f60e08486031215613002575f5ffd5b833561300d816128f5565b925061301c856020860161290c565b915060c084013561302c816128f5565b809150509250925092565b600181811c9082168061304b57607f821691505b60208210810361291c57634e487b7160e01b5f52602260045260245ffd5b5f60208284031215613079575f5ffd5b8135612dca816128f5565b5f60208284031215613094575f5ffd5b8151612dca81612ae3565b60a081016116d882846001600160a01b0381511682526001600160a01b03602082015116602083015262ffffff6040820151166040830152606081015160020b60608301526001600160a01b0360808201511660808301525050565b634e487b7160e01b5f52604160045260245ffd5b60405160a0810167ffffffffffffffff81118282101715613132576131326130fb565b60405290565b62ffffff81168114612909575f5ffd5b5f60a0828403128015613159575f5ffd5b5061316261310f565b825161316d816128f5565b8152602083015161317d816128f5565b6020820152604083015161319081613138565b604082015260608301516131a381612d2c565b606082015260808301516131b6816128f5565b60808201529392505050565b5f5f8335601e198436030181126131d7575f5ffd5b83018035915067ffffffffffffffff8211156131f1575f5ffd5b602001915036819003821315612970575f5ffd5b634e487b7160e01b5f52601160045260245ffd5b808201808211156116d8576116d8613205565b601f82111561327357805f5260205f20601f840160051c810160208510156132515750805b601f840160051c820191505b81811015613270575f815560010161325d565b50505b505050565b815167ffffffffffffffff811115613292576132926130fb565b6132a6816132a08454613037565b8461322c565b6020601f8211600181146132d8575f83156132c15750848201515b5f19600385901b1c1916600184901b178455613270565b5f84815260208120601f198516915b8281101561330757878501518255602094850194600190920191016132e7565b508482101561332457868401515f19600387901b60f8161c191681555b50505050600190811b01905550565b5f60208284031215613343575f5ffd5b5051919050565b5f6020828403121561335a575f5ffd5b815160ff81168114612dca575f5ffd5b818103818111156116d8576116d8613205565b6001815b60018411156133b85780850481111561339c5761339c613205565b60018416156133aa57908102905b60019390931c928002613381565b935093915050565b5f826133ce575060016116d8565b816133da57505f6116d8565b81600181146133f057600281146133fa57613416565b60019150506116d8565b60ff84111561340b5761340b613205565b50506001821b6116d8565b5060208310610133831016604e8410600b8410161715613439575081810a6116d8565b6134455f19848461337d565b805f190482111561345857613458613205565b029392505050565b5f612dca83836133c0565b634e487b7160e01b5f52601260045260245ffd5b5f8261348d5761348d61346b565b500490565b5f60a08284031280156134a3575f5ffd5b506134ac61310f565b82356134b7816128f5565b815260208301356134c7816128f5565b602082015260408301356134da81613138565b604082015260608301356134ed81612d2c565b606082015260808301356131b6816128f5565b5f8160020b8360020b806135165761351661346b565b627fffff1982145f198214161561352f5761352f613205565b90059392505050565b5f8260020b8260020b028060020b9150808214612fe957612fe9613205565b5f60208284031215613567575f5ffd5b8135612dca81612d2c56fe608060405234801561000f575f5ffd5b50604051610da5380380610da583398101604081905261002e91610179565b338282600361003d8382610262565b50600461004a8282610262565b5050506001600160a01b03811661007a57604051631e4fbdf760e01b81525f600482015260240160405180910390fd5b6100838161008b565b50505061031c565b600580546001600160a01b038381166001600160a01b0319831681179093556040519116919082907f8be0079c531659141344cd1fd0a4f28419497f9722a3daafe3b4186f6b6457e0905f90a35050565b634e487b7160e01b5f52604160045260245ffd5b5f82601f8301126100ff575f5ffd5b81516001600160401b03811115610118576101186100dc565b604051601f8201601f19908116603f011681016001600160401b0381118282101715610146576101466100dc565b60405281815283820160200185101561015d575f5ffd5b8160208501602083015e5f918101602001919091529392505050565b5f5f6040838503121561018a575f5ffd5b82516001600160401b0381111561019f575f5ffd5b6101ab858286016100f0565b602085015190935090506001600160401b038111156101c8575f5ffd5b6101d4858286016100f0565b9150509250929050565b600181811c908216806101f257607f821691505b60208210810361021057634e487b7160e01b5f52602260045260245ffd5b50919050565b601f82111561025d57805f5260205f20601f840160051c8101602085101561023b5750805b601f840160051c820191505b8181101561025a575f8155600101610247565b50505b505050565b81516001600160401b0381111561027b5761027b6100dc565b61028f8161028984546101de565b84610216565b6020601f8211600181146102c1575f83156102aa5750848201515b5f19600385901b1c1916600184901b17845561025a565b5f84815260208120601f198516915b828110156102f057878501518255602094850194600190920191016102d0565b508482101561030d57868401515f19600387901b60f8161c191681555b50505050600190811b01905550565b610a7c806103295f395ff3fe608060405234801561000f575f5ffd5b50600436106100e5575f3560e01c8063715018a61161008857806395d89b411161006357806395d89b41146101d1578063a9059cbb146101d9578063dd62ed3e146101ec578063f2fde38b14610224575f5ffd5b8063715018a61461019b57806379cc6790146101a35780638da5cb5b146101b6575f5ffd5b806323b872dd116100c357806323b872dd1461013c578063313ce5671461014f57806340c10f191461015e57806370a0823114610173575f5ffd5b806306fdde03146100e9578063095ea7b31461010757806318160ddd1461012a575b5f5ffd5b6100f1610237565b6040516100fe91906108d1565b60405180910390f35b61011a610115366004610921565b6102c7565b60405190151581526020016100fe565b6002545b6040519081526020016100fe565b61011a61014a366004610949565b6102e0565b604051601281526020016100fe565b61017161016c366004610921565b610303565b005b61012e610181366004610983565b6001600160a01b03165f9081526020819052604090205490565b610171610319565b6101716101b1366004610921565b61032c565b6005546040516001600160a01b0390911681526020016100fe565b6100f1610406565b61011a6101e7366004610921565b610415565b61012e6101fa3660046109a3565b6001600160a01b039182165f90815260016020908152604080832093909416825291909152205490565b610171610232366004610983565b610422565b606060038054610246906109d4565b80601f0160208091040260200160405190810160405280929190818152602001828054610272906109d4565b80156102bd5780601f10610294576101008083540402835291602001916102bd565b820191905f5260205f20905b8154815290600101906020018083116102a057829003601f168201915b5050505050905090565b5f336102d4818585610478565b60019150505b92915050565b5f336102ed858285610485565b6102f885858561051a565b506001949350505050565b61030b610577565b61031582826105bd565b5050565b610321610577565b61032a5f6105f1565b565b6001600160a01b0382165f908152600160209081526040808320338452909152902054818110156103e3576040517f08c379a0000000000000000000000000000000000000000000000000000000008152602060048201526024808201527f45524332303a206275726e20616d6f756e74206578636565647320616c6c6f7760448201527f616e63650000000000000000000000000000000000000000000000000000000060648201526084015b60405180910390fd5b6103f783336103f28585610a20565b610478565b610401838361065a565b505050565b606060048054610246906109d4565b5f336102d481858561051a565b61042a610577565b6001600160a01b03811661046c576040517f1e4fbdf70000000000000000000000000000000000000000000000000000000081525f60048201526024016103da565b610475816105f1565b50565b610401838383600161068e565b6001600160a01b038381165f908152600160209081526040808320938616835292905220545f198110156105145781811015610506576040517ffb8f41b20000000000000000000000000000000000000000000000000000000081526001600160a01b038416600482015260248101829052604481018390526064016103da565b61051484848484035f61068e565b50505050565b6001600160a01b03831661054357604051634b637e8f60e11b81525f60048201526024016103da565b6001600160a01b03821661056c5760405163ec442f0560e01b81525f60048201526024016103da565b610401838383610792565b6005546001600160a01b0316331461032a576040517f118cdaa70000000000000000000000000000000000000000000000000000000081523360048201526024016103da565b6001600160a01b0382166105e65760405163ec442f0560e01b81525f60048201526024016103da565b6103155f8383610792565b600580546001600160a01b038381167fffffffffffffffffffffffff0000000000000000000000000000000000000000831681179093556040519116919082907f8be0079c531659141344cd1fd0a4f28419497f9722a3daafe3b4186f6b6457e0905f90a35050565b6001600160a01b03821661068357604051634b637e8f60e11b81525f60048201526024016103da565b610315825f83610792565b6001600160a01b0384166106d0576040517fe602df050000000000000000000000000000000000000000000000000000000081525f60048201526024016103da565b6001600160a01b038316610712576040517f94280d620000000000000000000000000000000000000000000000000000000081525f60048201526024016103da565b6001600160a01b038085165f908152600160209081526040808320938716835292905220829055801561051457826001600160a01b0316846001600160a01b03167f8c5be1e5ebec7d5bd14f71427d1e84f3dd0314c0f7b2291e5b200ac8c7c3b9258460405161078491815260200190565b60405180910390a350505050565b6001600160a01b0383166107bc578060025f8282546107b19190610a33565b909155506108459050565b6001600160a01b0383165f9081526020819052604090205481811015610827576040517fe450d38c0000000000000000000000000000000000000000000000000000000081526001600160a01b038516600482015260248101829052604481018390526064016103da565b6001600160a01b0384165f9081526020819052604090209082900390555b6001600160a01b0382166108615760028054829003905561087f565b6001600160a01b0382165f9081526020819052604090208054820190555b816001600160a01b0316836001600160a01b03167fddf252ad1be2c89b69c2b068fc378daa952ba7f163c4a11628f55a4df523b3ef836040516108c491815260200190565b60405180910390a3505050565b602081525f82518060208401528060208501604085015e5f604082850101526040601f19601f83011684010191505092915050565b80356001600160a01b038116811461091c575f5ffd5b919050565b5f5f60408385031215610932575f5ffd5b61093b83610906565b946020939093013593505050565b5f5f5f6060848603121561095b575f5ffd5b61096484610906565b925061097260208501610906565b929592945050506040919091013590565b5f60208284031215610993575f5ffd5b61099c82610906565b9392505050565b5f5f604083850312156109b4575f5ffd5b6109bd83610906565b91506109cb60208401610906565b90509250929050565b600181811c908216806109e857607f821691505b602082108103610a0657634e487b7160e01b5f52602260045260245ffd5b50919050565b634e487b7160e01b5f52601160045260245ffd5b818103818111156102da576102da610a0c565b808201808211156102da576102da610a0c56fea2646970667358221220b5771fbcedfacc18f6e163ad317c6098aac6713a5842ba09f07cbc5d96b06c2364736f6c634300081b0033a2646970667358221220a78b362daa5a2b6af6c9474fe58a6459195521342b67d1221db53e5e62877f1d64736f6c634300081b0033","linkReferences":{}},"methodIdentifiers":{"TICK_SPACING()":"46ca626b","afterAddLiquidity(address,(address,address,uint24,int24,address),(int24,int24,int256,bytes32),int256,int256,bytes)":"9f063efc","afterDonate(address,(address,address,uint24,int24,address),uint256,uint256,bytes)":"e1b4af69","afterInitialize(address,(address,address,uint24,int24,address),uint160,int24)":"6fe7e6eb","afterRemoveLiquidity(address,(address,address,uint24,int24,address),(int24,int24,int256,bytes32),int256,int256,bytes)":"6c2bbe7e","afterSwap(address,(address,address,uint24,int24,address),(bool,int256,uint160),int256,bytes)":"b47b2fb1","beforeAddLiquidity(address,(address,address,uint24,int24,address),(int24,int24,int256,bytes32),bytes)":"259982e5","beforeDonate(address,(address,address,uint24,int24,address),uint256,uint256,bytes)":"b6a8b0fa","beforeInitialize(address,(address,address,uint24,int24,address),uint160)":"dc98354e","beforeRemoveLiquidity(address,(address,address,uint24,int24,address),(int24,int24,int256,bytes32),bytes)":"21d0ee70","beforeSwap(address,(address,address,uint24,int24,address),(bool,int256,uint160),bytes)":"575e24b4","cancelMarket(bytes32)":"bdb83289","claimWinnings(bytes32)":"e49b606c","claimedTokens(bytes32)":"c441b239","createMarketAndDepositCollateral((address,address,address,uint256,string,string,uint256))":"8e4a92b0","getHookPermissions()":"c4e833ce","getMarketById(bytes32)":"6d9ce330","hasClaimed(bytes32,address)":"92a42d1d","marketCount()":"ec979082","marketPoolIds(uint256)":"b7988290","markets(bytes32)":"7564912b","poolCreationHelper()":"f2f746e7","poolManager()":"dc4c90d3","poolm()":"bc8aac57","posm()":"6f70a7fa","resolveMarket(bytes32,bool)":"6c9f1394"},"id":151}